:1000000000000220751F0000A11F0000A11F0000BA
:10001000A11F0000A11F0000A11F0000A11F0000E0
:10002000A11F0000A11F0000A11F0000A11F0000D0
:10003000A11F0000A11F0000A11F0000A11F0000C0
:10004000A11F0000A11F0000A11F0000A11F0000B0
:10005000A11F0000A11F0000A11F0000A11F0000A0
:10006000A11F0000A11F0000A11F0000A11F000090
:10007000A11F0000A11F0000A11F0000A11F000080
:10008000A11F0000A11F0000A11F0000A11F000070
:10009000A11F0000A11F0000A11F0000A11F000060
:1000A000A11F0000A11F0000A11F0000A11F000050
:1000B000A11F0000A11F0000A11F0000A11F000040
:1000C000A11F0000A11F0000A11F0000A11F000030
:1000D000A11F0000A11F0000A11F000010B5054CCA
:1000E000237833B9044B13B10448AFF300800123E4
:1000F000237010BD74000020000000009023000059
:1001000008B5064B1BB106480649AFF30080064808
:10011000036813B1054B03B1984708BD0000000008
:1001200090230000780000207000002000000000F4
:10013000154B002B08BF134B9D46A3F5803A0021B9
:100140008B460F461348144A121A02F045F80F4B1B
:10015000002B00D098470E4B002B00D09847002072
:10016000002104000D000D48002802D00C48AFF318
:10017000008002F00BF82000290000F05BF801F08D
:10018000F1FF00BF00000800000002200000000096
:100190000000000074000020980000200000000013
:1001A0000000000080B483B000AF0346FB71094B30
:1001B00097F907205209F97901F01F01012000FA8F
:1001C00001F1603243F822100C37BD465DF8047B24
:1001D000704700BF00E100E080B483B000AF7860FA
:1001E00039607B683A689A640C37BD465DF8047BD9
:1001F000704700BF80B582B000AF0C4B1B687B60BE
:100200003B46184601F06AFB7B681B0E0F2B0AD990
:100210003B78032B07D1064B054A126822F05002A7
:1002200042F010021A600837BD4680BDFC81E00F25
:10023000C0800C40B0B58CB000AFFFF7DBFF344B93
:1002400007F11C041D460FCD0FC42B68237000233B
:1002500087F82F305120022100F054FA02200121AA
:10026000012200F0FDFE5120042100F08DFD2948FF
:10027000012100F069FB2848012100F065FB032003
:1002800000210422012300F059FF03200121012253
:10029000002300F053FF214B3C1D1D460FCD0FC422
:1002A00095E8030084E803001D4801F03BFC3B1D7A
:1002B0001B48194601F0DCFB194B40F203125A654A
:1002C000174841F6FF71FFF787FF1620FFF76AFF17
:1002D0001720FFF767FF1248052101F091FB00206E
:1002E00001F032FD042387F82E300D4801F072FC36
:1002F000034687F82D3097F82D30184601F080FD21
:1003000097F82E300648194601F078FCEDE700BF5B
:100310000422000000D20200001202001822000095
:1003200000C4004080B487B000AFF860B9607A6064
:10033000FB6803F10473DA00BB6813449B007B6124
:100340007B697A681A601C37BD465DF8047B70478C
:1003500080B483B000AF1D4BDB6C03F47F031B0C38
:10036000FB71FB794A2B04D04B2B26D0482B22D093
:1003700025E0174B1B699BB203F03F039BB21B02A6
:10038000BB80134B9B699BB203F0F0039AB2BB880E
:100390001343BB800E4BDB6903F0F0031B099AB2D9
:1003A000BB881343BB80BB88B3F5017F01D3094BE6
:1003B00006E0094B04E0084B02E0064B00E0002396
:1003C00018460C37BD465DF8047B7047B081E00FDE
:1003D000D0FF0FE000366E010048E80180B485B020
:1003E00000AF7860284BDB6B002B0CBF0023012390
:1003F000BB72254B41F67132DA63234B5B6803F025
:100400000703FB60FB68012B01D9042B02D10023F9
:10041000FB7202E00123FB7200BF7A681B4B9A4219
:1004200007D9FB7A002B01D0052300E00423FB60F1
:1004300016E07A68154B9A420BD87A68144B9A42A8
:1004400007D9FB7A002B01D0032300E00123FB60D6
:1004500006E0FB7A002B01D0022300E00023FB60C2
:10046000094B094A526822F00701FA680A435A60A8
:10047000BB7A002B02D0044B0022DA631437BD464E
:100480005DF8047B704700BF00000C400048E801A5
:100490000024F40080B582B000AF044B7B60786824
:1004A000FFF79CFF0837BD4680BD00BF006CDC0233
:1004B00080B487B000AF78607B68002B04D07B6885
:1004C000B3F5004F00D800BF7B683B613B69B3FACE
:1004D00083F3FB60FB68DBB2C3F11F037B617B69C5
:1004E00018461C37BD465DF8047B704780B582B066
:1004F00000AF104800F096FB0346FB70FB78032B1F
:1005000007D0082B09D0022B0BD101F01BFE78601D
:100510000AE001F003FE786006E001F075FD786006
:1005200002E000237B6000BF7B6818460837BD46A9
:1005300080BD00BF05231C0080B483B000AF1A4B00
:100540005B6903F4E063B3F5007F14D0B3F5007F7B
:1005500005D8002B15D0B3F5807F0FD01AE0B3F586
:10056000C06F14D0B3F5E06F0ED0B3F5407F11D15A
:100570000E4B7B6011E00E4B7B600EE00D4B7B6001
:100580000BE00D4B7B6008E00C4B7B6005E00C4BF7
:100590007B6002E000237B6000BF7B6818460C375D
:1005A000BD465DF8047B704700800C4040420F0060
:1005B000C0CF6A00C0D8A700809FD500406F40011F
:1005C000003FAB0180B582B000AF124800F02AFBBB
:1005D0000346FB70FB78072B0FD0082B11D101F0DD
:1005E00013FD78600C4B1B6803F4E0339B0B013365
:1005F0007A68B2FBF3F37B6006E0FFF79DFF78605B
:1006000002E000237B6000BF7B6818460837BD46C8
:1006100080BD00BF0400180000800C4080B584B08D
:1006200000AF78607B68002B02D07B68012B00D183
:1006300000BF264B9A6A7B685B0022FA03F303F043
:100640000303032B3AD801A252F823F09D060000C1
:100650005D060000650600006D06000001F05EFD0D
:10066000F8602EE001F06EFDF8602AE0174B5B6841
:1006700003F48073002B05D1144B1B6803F08043F7
:10068000002B05D001F09CFC03469B08FB6018E0A2
:1006900001F096FC03465B08FB6012E00B4B9A6A84
:1006A0007B6804339B0022FA03F3002B03D001F094
:1006B0003FFDF86005E00023FB6002E00023FB60E3
:1006C00000BFFB6818461037BD4680BD00800C4057
:1006D00080B483B000AF7860094B5B6D03F0010319
:1006E000002B00D006E000BF054B1A6D7B6813405D
:1006F000002BF9D10C37BD465DF8047B704700BF75
:1007000000800C40B0B584B000AF786039607B6881
:100710001B0903F00F03FB60FB68013B042B00F295
:10072000FE8001A252F823F0710700009B07000031
:1007300007080000CB0800003D0700003B68002BC5
:1007400003D03B68082B00D800BFFFF7A3FE764B11
:10075000754A126822F4E0313A68013A92030A437A
:100760001A6001F02DFCB860B868FFF737FED7E0DB
:100770003B68002B04D03B68B3F5007F00D800BF76
:100780003868FFF795FE3860674B674A926822F039
:100790000F013A680A439A60C2E0FFF77BFE5120DE
:1007A00000F042F902463B68B2FBF3F4FFF7D0FDDC
:1007B00003469C420AD85C481E210022FFF7B2FD86
:1007C0005A4808210022FFF7ADFD09E056481E21D6
:1007D0000122FFF7A7FD554808210122FFF7A2FDDE
:1007E0003868FFF765FE38604F4B4F4A526822F079
:1007F0000F013A680A435A6001F0E2FBB860B8683A
:10080000FFF7ECFD8CE07B68494A93421ED0484AD2
:10081000934203D8474A934207D055E0464A934251
:1008200025D0464A93423FD04EE00420FFF750FFC8
:100830003868FFF73DFE38603B4B3B4A926E22F032
:10084000F0013A6812010A439A663DE00420FFF77E
:100850003FFF3868FFF72CFE3860334B324A926E08
:1008600022F470613A6812020A439A662CE03B68EF
:100870000F2B03D93B68802B00D800BF0420FFF763
:1008800027FF3868FFF714FE3860274C264B9B6E15
:1008900023F440551020FFF70BFE03463A68D31AA5
:1008A0001B032B43A3660FE00420FFF711FF3868FA
:1008B000FFF7FEFD38601C4B1B4A926E22F00301CD
:1008C0003A680A439A6600BF2AE07B681C4A934252
:1008D00003D01C4A934210D020E04020FFF7F8FEDE
:1008E0003868FFF7E5FD38600F4B0F4A126F22F0B2
:1008F00003013A680A431A6710E04020FFF7E8FE58
:100900003868FFF7D5FD3860074B074A126F22F0B1
:1009100030013A6812010A431A6700BF00E000BFC5
:100920001037BD46B0BD00BF00800C4004800C40B5
:1009300030240A003014080030000C00300410008D
:10094000400514004015160090B587B000AF7860E0
:100950000B46FB7000233B617B681B0A03F00F030F
:10096000013B052B4AD801A252F823F0850900006B
:100970008B09000091090000BF090000C9090000AF
:10098000D30900001F4B7B6126E01F4B7B6123E0F6
:100990001E4B7B611E4800F047F80446FFF7D8FC69
:1009A00003469C420AD91B481E210122FFF7BAFCCC
:1009B000194808210122FFF7B5FC0DE00CE0174BA8
:1009C0007B6101233B6107E0154B7B6110233B6199
:1009D00002E0144B7B6100BF7B681B0B03F01F031D
:1009E000FB603B69002B02D03869FFF771FEFB7892
:1009F0007869F9681A46FFF795FC00E000BF1C37DC
:100A0000BD4690BD08800C4044800C4040800C40A6
:100A10002000040000800C4004800C4058800C40F2
:100A200060800C4078800C4090B585B000AF786055
:100A30007B6803F47813B3F5602F00F09980B3F569
:100A4000602F18D8B3F5C02F5ED0B3F5C02F08D8EB
:100A5000B3F5003F3ED0B3F5802F51D0002B2BD003
:100A6000D6E0B3F5202F62D0B3F5402F6DD0B3F5AB
:100A7000002F4ED0CCE0B3F5B01F00F0AF80B3F53F
:100A8000B01F0CD8B3F5901F00F09680B3F5A01FEF
:100A900000F09780B3F5801F00F08180B8E0B3F5D7
:100AA000D01F00F0AD80B3F5E01F00F0AD80B3F5CE
:100AB000C01F00F0A180ABE001F0A6FAF860584B2F
:100AC0001B6803F4E0339B0B0133FA68B2FBF3F3CA
:100AD000FB60A0E001F098FAF860514B1B6803F44A
:100AE000E0339B0B0133FA68B2FBF3F3FB604C4B32
:100AF0009B6803F00F03FA6822FA03F3FB608AE0B5
:100B000001F05EFAF86086E00020FFF787FDF860EC
:100B100081E00020FFF782FDF860414B9B6E03F0FF
:100B2000F0031B09FA6822FA03F3FB6073E000206C
:100B3000FFF774FDF8603A4B9B6E03F470631B0A79
:100B4000FA6822FA03F3FB6065E00020FFF766FD18
:100B5000F860334B9B6E03F440531C0B1020FFF7DF
:100B6000A7FC03462344FA6822FA03F3FB6052E031
:100B70000020FFF753FDF860294B9B6E03F44053B0
:100B80001B0BFA6822FA03F3FB60254BDB6F03F0C3
:100B900007030133FA68B2FBF3F3FB603BE000208C
:100BA000FFF73CFDF8601E4B9B6E03F00303FA68F1
:100BB00022FA03F3FB602EE00120FFF72FFDF8601F
:100BC00029E00120FFF72AFDF860154B1B6F03F0A9
:100BD0000303FA6822FA03F3FB601CE00120FFF72D
:100BE0001DFDF8600E4B1B6F03F030031B09FA6804
:100BF00022FA03F3FB600EE0FFF7E4FCF8600AE082
:100C0000FFF79AFCF86006E0FFF770FCF86002E07E
:100C10000023FB6000BFFB6818461437BD4690BD3B
:100C200000800C4080B487B000AF78600123FB7572
:100C30004FF470533B617B6803F00F03FB60FB686C
:100C4000013B042B00F2938001A252F823F000BF75
:100C5000650C00009B0C0000D70C0000130D000079
:100C6000390D0000474BDA6A3B691340B3F5805FEA
:100C700009D0B3F5005F03D0B3F5006F06D008E0EC
:100C80000223FB7508E00323FB7505E00423FB75D5
:100C900002E00523FB7500BF6CE03A4B9B6A03F052
:100CA0000303022B06D0032B07D0012B08D103230B
:100CB000FB750FE00223FB750CE00623FB7509E0D2
:100CC000304B9B6A03F48033002B02D00923FB7561
:100CD00000E000BF4EE02B4B9B6A03F00C03082B97
:100CE00006D00C2B07D0042B08D10323FB750FE093
:100CF0000223FB750CE00623FB7509E0214B9B6A80
:100D000003F48013002B02D00923FB7500E000BF21
:100D100030E00723FB751B4B1B6803F08053002B4F
:100D200003D0B3F1805F03D024E00723FB7502E01A
:100D30000823FB7500BF1DE0124BDB6A03F4603330
:100D4000B3F5803F06D0B3F5003F06D0B3F5004FB2
:100D500006D008E00223FB7508E00323FB7505E0DD
:100D60000823FB7502E00123FB7500BF02E00023AE
:100D7000FB7500BFFB7D18461C37BD465DF8047B44
:100D8000704700BF00800C4090B589B000AF78601C
:100D90000B46FB700323FB610323FB7600237B617F
:100DA0007B6803F00F03FB60FB68013B042B00F240
:100DB0002A8101A252F823F0CD0D0000990E000007
:100DC000990E0000750F00009F0F0000FB78023B9A
:100DD000072B00F21A8101A252F823F0FD0D00004A
:100DE000070E0000110E0000650E00000B10000041
:100DF0000B1000000B1000006F0E00000423FB61BD
:100E00000023FB7634E00323FB610123FB762FE014
:100E10000223FB610223FB7601F06EF90446FFF723
:100E200097FA03469C4213D97B4A7B4B1B6843F0DD
:100E3000804343F060031360774B1B6C03F0100397
:100E4000002B0ED0754808210122FFF76BFA0FE046
:100E5000714B714A126822F0600242F020021A605F
:100E600006E005E00123FB610323FB7600E000BF01
:100E7000FB7E18460121012200F0F2F8FFF70AFB81
:100E8000654BFA695A6200F04BF901F099F8B860C5
:100E9000B868FFF7A3FABBE0FB78013B082B00F230
:100EA000B68001A252F823F0CD0E0000D30E000050
:100EB000E30E00000F1000000F100000F30E000002
:100EC0000F1000000F1000002B0F000000233B61EB
:100ED00030E000200121012200F0C2F802233B6132
:100EE00028E001200121012200F0BAF801233B6132
:100EF00020E04B4804210122FFF714FA03233B6151
:100F000001F05EF8B860FFF723FA0246BB689A4228
:100F10000AD241481E210122FFF704FA3F48082166
:100F20000122FFF7FFF905E004E000233B61012304
:100F30007B6100BFFB68022B0DD1374A364B9B6AA1
:100F400023F4803323F00303396919437B691B04BD
:100F50000B4393625CE0304A2F4B9B6A23F480136F
:100F600023F00C033969890019437B691B050B4386
:100F700093624DE0FB78072B02D0082B07D047E0A7
:100F8000254B254A126822F080521A6006E0224B57
:100F9000214A126842F080521A6000BF38E0FB78A4
:100FA000032B14D0082B22D0022B00D030E00020DD
:100FB0000121012200F054F8174B40225A6200BF71
:100FC000154BDB6A03F48033002BF9D01AE00120C3
:100FD0000121012200F044F80F4B60225A6200BF49
:100FE0000D4BDB6A03F40033002BF9D00AE00A4B07
:100FF00020225A6200BF084BDB6A03F40043002B37
:10100000F9D000BF04E000BF02E000BF00E000BF75
:101010002437BD4690BD00BF00800C4004800C40CA
:1010200040800C4080B483B000AF78600B4B9B6D68
:1010300003F00803002B00D00BE07B6803F00703EC
:101040007B60064B054AD26F22F007017A680A439B
:10105000DA670C37BD465DF8047B704700800C40B2
:1010600080B586B000AF13460246FA710A46BA71DF
:101070007B71FB79052B4CD801A252F823F000BFFD
:10108000D1100000C3100000A7100000991000004C
:10109000B51000001311000001233B610223FB6027
:1010A00002237B611EE004233B610823FB600823CD
:1010B0007B6117E010233B612023FB6020237B61D1
:1010C00010E040233B618023FB6080237B6109E0CB
:1010D0004FF480733B614FF40073FB604FF4007377
:1010E0007B6100BFBB79002B0DD00C4B3A691A62B3
:1010F0007B79002B0AD000BF084BDA6A7B6913406A
:10110000002BF9D002E0054BFA681A6200F008F8EB
:1011100000E000BF1837BD4680BD00BF00800C4016
:1011200080B400AF034BDA6A034B1A60BD465DF82A
:10113000047B704700800C409000002090B484B085
:1011400000AFB9607B600346FB731346BB73FB7B48
:10115000052B03D8BB680F2B00D800BFBB7B002B2F
:101160001FD07B68002B0ED04448FA7BBB6801215E
:1011700001FA03F319461346DB0013449B000344B2
:10118000103319600DE03D48FA7BBB68012101FA7C
:1011900003F319461346DB0013449B00034410334A
:1011A0005960BB68072B1DD83448FA7B334CF97B58
:1011B0000B46DB000B449B0023445968BB689B0033
:1011C0000F2404FA03F3DB431940BC7BBB689B008C
:1011D00004FA03F319431346DB0013449B00034452
:1011E000596024E02548FA7B244CF97B0B46DB0050
:1011F0000B449B00234408331968BB6803F1804308
:10120000083B9B000F2404FA03F3DB431940BC7B2B
:10121000BB6803F18043083B9B0004FA03F31943C6
:101220001346DB0013449B00034408331960BB7B67
:10123000002B1FD17B68002B0ED01048FA7BBB68B7
:10124000012101FA03F319461346DB0013449B0006
:101250000344103319600DE00848FA7BBB68012194
:1012600001FA03F319461346DB0013449B000344C1
:10127000103359601037BD4690BC70470060004085
:1012800080B483B000AF0346FB71FB79002B06D01E
:10129000084B084A126842F001021A6005E0054B4B
:1012A000044A126822F001021A600C37BD465DF84C
:1012B000047B704700A0084080B487B000AFF8609E
:1012C000B9607A60FB6803F10473DA00BB68134409
:1012D0009B007B617B697A681A601C37BD465DF8AC
:1012E000047B704780B584B000AF7860184B5B68B2
:1012F000FB600020FFF7C4FFFB6823F4830323F0A7
:101300001F03FB607B685B68FA681343FB607B68C4
:101310001B7AFA681343FB607B685B7AFA681343B5
:10132000FB607B68DB68FA681343FB607B681B8AA1
:10133000FA681343FB60064BFA685A607B681B78B7
:10134000002B02D00120FFF79BFF1037BD4680BD68
:1013500000A0084080B485B000AF78600D4B5B689A
:10136000FB60FB6823F48033FB607B68002B08D0B4
:10137000B3F5803F00D005E0FB6843F48033FB60A9
:1013800000E000BF034BFA685A601437BD465DF8B1
:10139000047B704700A0084080B483B000AF0246D1
:1013A0000B46FA807B717B79002B06D0094B094AEA
:1013B0009168FA880A439A6006E0064B054A9168EC
:1013C000FA88D2430A409A600C37BD465DF8047B28
:1013D000704700BF00A0084080B584B000AFF8603F
:1013E000B9601346FB71FB68072B00F2C38001A2B2
:1013F00052F823F015140000411400006D14000091
:1014000099140000C5140000F11400001D1500001F
:1014100049150000BB681F2B07DCBA68FB795748E9
:1014200011461A46FFF748FFA5E0BB68203BBB60AA
:10143000BA68FB79524811461A46FFF73DFF9AE019
:10144000BB681F2B07DCBA68FB794E4811461A4669
:10145000FFF732FF8FE0BB68203BBB60BA68FB79C7
:10146000494811461A46FFF727FF84E0BB681F2B47
:1014700007DCBA68FB79454811461A46FFF71CFF9E
:1014800079E0BB68203BBB60BA68FB7940481146F5
:101490001A46FFF711FF6EE0BB681F2B07DCBA6826
:1014A000FB793C4811461A46FFF706FF63E0BB682C
:1014B000203BBB60BA68FB79374811461A46FFF7F4
:1014C000FBFE58E0BB681F2B07DCBA68FB7933488A
:1014D00011461A46FFF7F0FE4DE0BB68203BBB60AB
:1014E000BA68FB792E4811461A46FFF7E5FE42E03E
:1014F000BB681F2B07DCBA68FB792A4811461A46DD
:10150000FFF7DAFE37E0BB68203BBB60BA68FB79C7
:10151000254811461A46FFF7CFFE2CE0BB681F2B6B
:1015200007DCBA68FB79214811461A46FFF7C4FE6A
:1015300021E0BB68203BBB60BA68FB791C481146C0
:101540001A46FFF7B9FE16E0BB681F2B07DCBA6826
:10155000FB79184811461A46FFF7AEFE0BE0BB6850
:10156000203BBB60BA68FB79134811461A46FFF767
:10157000A3FE00E000BF1037BD4680BD40A008407C
:1015800050A0084044A0084054A0084048A008408B
:1015900058A008404CA008405CA00840CCA00840DF
:1015A000B4A00840D0A00840B8A00840D4A008408B
:1015B000BCA00840D8A00840C0A0084080B487B0B4
:1015C00000AFF860B9607A60FB68072B00F2AC806E
:1015D00001A252F823F000BFF91500001D1600000B
:1015E000411600006516000089160000B1160000C3
:1015F000D9160000011700004E4B1B6C7B61BB68C5
:10160000DB437A6913407B61BA687B6813407A696F
:1016100013437B61474B7A691A6486E0454B5B6CE8
:101620007B61BB68DB437A6913407B61BA687B6886
:1016300013407A6913437B613E4B7A695A6474E0C4
:101640003C4B9B6C7B61BB68DB437A6913407B61DD
:10165000BA687B6813407A6913437B61354B7A69BA
:101660009A6462E0334BDB6C7B61BB68DB437A6975
:1016700013407B61BA687B6813407A6913437B61CE
:101680002C4B7A69DA6450E02A4BD3F8CC307B617A
:10169000BB68DB437A6913407B61BA687B6813409F
:1016A0007A6913437B61234B7A69C3F8CC203CE011
:1016B000204BD3F8D0307B61BB68DB437A691340A1
:1016C0007B61BA687B6813407A6913437B61194B6D
:1016D0007A69C3F8D02028E0164BD3F8D4307B6168
:1016E000BB68DB437A6913407B61BA687B6813404F
:1016F0007A6913437B610F4B7A69C3F8D42014E0F5
:101700000C4BD3F8D8307B61BB68DB437A6913405C
:101710007B61BA687B6813407A6913437B61054B30
:101720007A69C3F8D82000E000BF1C37BD465DF8D9
:10173000047B704700A0084080B487B000AFF86019
:10174000B9607A60FB68072B00F2AC8001A252F806
:1017500023F000BF7517000099170000BD170000A7
:10176000E1170000051800002D18000055180000B2
:101770007D1800004E4B1B6D7B61BB68DB437A69B3
:1017800013407B61BA687B6813407A6913437B61BD
:10179000474B7A691A6586E0454B5B6D7B61BB6898
:1017A000DB437A6913407B61BA687B6813407A69CE
:1017B00013437B613E4B7A695A6574E03C4B9B6DE9
:1017C0007B61BB68DB437A6913407B61BA687B68E5
:1017D00013407A6913437B61354B7A699A6562E0FD
:1017E000334BDB6D7B61BB68DB437A6913407B6104
:1017F000BA687B6813407A6913437B612C4B7A6922
:10180000DA6550E02A4BD3F8B4307B61BB68DB4328
:101810007A6913407B61BA687B6813407A69134325
:101820007B61234B7A69C3F8B4203CE0204BD3F8AA
:10183000B8307B61BB68DB437A6913407B61BA686F
:101840007B6813407A6913437B61194B7A69C3F84B
:10185000B82028E0164BD3F8BC307B61BB68DB4373
:101860007A6913407B61BA687B6813407A691343D5
:101870007B610F4B7A69C3F8BC2014E00C4BD3F8A2
:10188000C0307B61BB68DB437A6913407B61BA6817
:101890007B6813407A6913437B61054B7A69C3F80F
:1018A000C02000E000BF1C37BD465DF8047B7047D8
:1018B00000A0084080B483B000AF7860064B064AB1
:1018C000526822F4E0117A680A435A600C37BD4628
:1018D0005DF8047B704700BF00A0084080B485B06D
:1018E00000AF7860194B5B69DBB203F00F03DBB22A
:1018F0009B00FB73154B1B6903F0C0039B09DAB215
:10190000FB7B1343FB737B68FA7B9A700F4B1B695D
:10191000DBB203F03F03DAB27B685A700B4B9B6972
:10192000DBB223F00F03FB73084BDB6903F0F0031A
:101930001B09DAB2FB7B1343FB737B68FA7B1A70DB
:101940001437BD465DF8047B704700BFD0FF0FE041
:1019500080B586B000AFF860B9607A60FB70BB6894
:10196000002B03D12448FFF75FF8B860FB78202BE9
:101970000CD0202B02DC002B05D03AE0402B08D005
:10198000602B09D035E010237B6108E008237B61E0
:1019900005E006237B6102E004237B6100BFBB6896
:1019A0009A007B69796801FB03F35B0813443B6190
:1019B0007B697A6802FB03F33A69B2FBF3F33B619C
:1019C0003B69043B3B613B699B013B613A690B4BC3
:1019D00013403B61FB681B6823F06002FB681A60E0
:1019E000FB681A68FB781A43FB681A60FB683A695F
:1019F0005A611837BD4680BD10810200C0FF1F002C
:101A000080B485B000AF78600B46FB707A68134BEA
:101A10009A420FD07A68124B9A420BD07A68114BD7
:101A20009A4207D07A68104B9A4203D07A680F4BDB
:101A30009A4200D100BFFB78DB43FB60FB6803F0F8
:101A40000503FB60FB685A007B68DA60FA787B6804
:101A5000DA601437BD465DF8047B704700C0004073
:101A600000C4004000C8004000E0004000E4004026
:101A700080B582B000AF786039607A68244B9A42B2
:101A80000FD07A68234B9A420BD07A68224B9A4245
:101A900007D07A68214B9A4203D07A68204B9A4249
:101AA00000D100BF786800F03DF83B689B7C002BBC
:101AB00005D07B681B6843F080427B681A603B68F6
:101AC000DB7C002B07D03B681B7D43F01003DBB2AF
:101AD0001A467B689A653B685B7B1A463B681B8AA3
:101AE0001A433B68DB891A437B685A603B68596834
:101AF0003B689A683B681B7B7868FFF729FF3B6867
:101B00001B781A467B68DA600837BD4680BD00BF87
:101B100000C0004000C4004000C8004000E0004099
:101B200000E4004080B483B000AF78607A68244B52
:101B30009A420FD07A68234B9A420BD07A68224B94
:101B40009A4207D07A68214B9A4203D07A68204B98
:101B50009A4200D100BF7B6840F6AA62DA607B68D7
:101B600000221A607B6841F205025A607B680022FD
:101B70009A607B6800225A617B680022DA647B6885
:101B800041F6F9729A647B6800225A657A680C4BB8
:101B90009A4202D17B6800221A657B6800229A650E
:101BA0007A68084B9A4203D07A68074B9A4202D16E
:101BB0007B680022DA650C37BD465DF8047B704710
:101BC00000C0004000C4004000C8004000E00040E9
:101BD00000E4004080B483B000AF786000BF7B6851
:101BE0001B6903F08003002BF9D07B68DB69DBB253
:101BF00018460C37BD465DF8047B704780B483B04F
:101C000000AF78600B46FB7000BF7B681B6903F078
:101C10004003002BF9D0FA787B685A630C37BD4635
:101C20005DF8047B704700BF80B483B000AF03460B
:101C3000FB71FB79002B03D0054B01221A6602E0F1
:101C4000034B00221A660C37BD465DF8047B7047D3
:101C500000A0084080B483B000AF786000BF054B9F
:101C60005A6E7B681340002BF9D10C37BD465DF8E6
:101C7000047B704700A0084080B483B000AF786058
:101C8000054B054A916A7A68D2430A409A620C373A
:101C9000BD465DF8047B704700A0084080B500AFEA
:101CA000002028490022FFF789FC01202549002255
:101CB000FFF784FC022023490022FFF77FFC03206A
:101CC00020490022FFF77AFC04201E490022FFF77A
:101CD00075FC05201B490022FFF770FC06201949FE
:101CE0000022FFF76BFC072016490022FFF766FC75
:101CF0000020FF210022FFF71FFD0120FF2100220D
:101D0000FFF71AFD0220FF210022FFF715FD032037
:101D1000FF210022FFF710FD0420FF210022FFF722
:101D20000BFD0520FF210022FFF706FD0620FF2105
:101D30000022FFF701FD0720FF210022FFF7FCFC36
:101D400080BD00BF00F00FF080B582B000AF034649
:101D5000FB7125480121FEF7F7FD24480321FFF719
:101D600013F823484021FEF7CDFC0120FFF75AF974
:101D700020480121FEF7E8FD4FF0FF30FFF77CFF20
:101D80001D48FFF7AFFA08200121FFF705FB1020DF
:101D90000121FFF701FB80200121FFF7FDFA4FF43D
:101DA00080700121FFF7F8FA4FF400700121FFF76E
:101DB000F3FAFB79002B0DD04FF44020FFF77AFDAA
:101DC0004FF48030FFF7C6FA0C4B0C4AD26F42F04A
:101DD0000802DA67FFF762FF4FF0FF30FFF73AFFC4
:101DE0000837BD4680BD00BF004304000200060066
:101DF00030000C0000340E007423000000800C4002
:101E000080B58AB000AF78607A6842F20E739A4269
:101E100002DD42F20F737B607B6813F57A7F01DC91
:101E20003C4B7B607B68002B06DA786800F096F903
:101E300078600123BB6101E00023BB614FF0FF30FC
:101E4000FFF708FF0120FFF7EFFE00F06BF801231A
:101E5000FB6100233B6254E07A68FB6992FBF3F17B
:101E60002D4B83FB01239A10CB17D21A13469B00EC
:101E700013445B00CA1A1346FB82BB69012B04D1D1
:101E80003B6A032B01D11023FB82FA8A234B33F8E0
:101E90001230BB8200237B6227E021493A6A134655
:101EA000DB009B1A5B00CA187B6A1344C033DB7AE1
:101EB0003B611B493A6A1346DB009B1A5B00CA1858
:101EC0007B6A1344C0331B79FB60BA8A7B6A42FA8F
:101ED00003F303F00103002B04D0F86839690122F1
:101EE000FFF77AFA7B6A01337B627B6A062BD4DDCB
:101EF000FA6913469B0013445B00FB613B6A0133A4
:101F00003B623B6A032BA7DD0020FFF78DFE2837DD
:101F1000BD4680BD19FCFFFF676666665023000062
:101F20003022000080B500AF012078210022FFF7A9
:101F300003FC022078210022FFF7FEFB032078211A
:101F40000022FFF7F9FB042078210022FFF7F4FBC1
:101F5000052078210022FFF7EFFB062078210022E0
:101F6000FFF7EAFB072078210022FFF7E5FB00BF1F
:101F700080BD00BF064880470649074A074B9A4282
:101F8000BEBF51F8040B42F8040BF8E7FEF7D0F897
:101F9000112100009C23000000000020740000209C
:101FA000FEE700BF80B400AF044BDB6C1B0EDBB25E
:101FB0001846BD465DF8047B704700BFB081E00F56
:101FC00080B582B000AF00F01FF878600C4B1B6842
:101FD00003F4E0339B0B01337A68B2FBF3F37B60CD
:101FE000074B5B6803F00F037A6822FA03F37B6008
:101FF000044B7A681A607B6818460837BD4680BD76
:1020000000800C409400002080B582B000AF2F4BC0
:10201000DB6A03F47053B3F5805F0AD0B3F5005F59
:1020200003D0B3F5006F08D00BE0294B1B687B6031
:1020300047E04FF400437B6043E0264B1B687B6026
:102040003FE0224BDB6803F4E063B3F5007F1BD075
:10205000B3F5007F05D8002B24D0B3F5807F16D0D0
:102060002BE0B3F5806F09D0B3F5A06F03D0B3F5C3
:10207000407F06D021E0184B7B6021E0174B7B604E
:102080001EE0174B7B601BE0164B7B6018E0FFF7F0
:1020900089FF0346122B02D9134B7B6010E0134BD0
:1020A0007B600DE0FFF77EFF0346122B02D9104B39
:1020B0007B6005E00F4B7B6002E000237B6000BF8C
:1020C00000BF7B6818460837BD4680BD00800C40C5
:1020D0000400002000000020003FAB01406F4001E1
:1020E000809FD500C0D8A70040B56400C0CF6A006B
:1020F000804F120040420F0080B400AF034B1B68BA
:102100001846BD465DF8047B704700BF0000002004
:1021100080B400AFBD465DF8047B704780B400AF6B
:102120004FF400431846BD465DF8047B704700BF7E
:1021300080B400AF4FF47A731846BD465DF8047B57
:10214000704700BF80B400AF034B1B681846BD4604
:102150005DF8047B704700BF040000200028B8BF72
:102160004042704708B5074B044613B10021AFF356
:102170000080054B1868836A03B19847204600F039
:1021800033F800BF000000008C23000070B50E4B38
:102190000E4D0024ED1AAD101E46AC4204D056F888
:1021A000242090470134F8E700F020F8084D094B4F
:1021B0000024ED1AAD101E46AC4204D056F824207F
:1021C00090470134F8E770BD6800002068000020E7
:1021D0006C0000206800002002440346934202D0B5
:1021E00003F8011BFAE77047FEE700BFF8B500BF30
:1021F000F8BC08BC9E467047F8B500BFF8BC08BCE8
:102200009E4670470A0D48656C6C6F20576F726C64
:1022100064210A0D00000000000000000000000022
:1022200000C20100000500000010000000000000D6
:1022300001010507070304020302040605060D0E4B
:102240000E0E0D0D0D0D0E0E0E0E0D0D01010507DE
:10225000070304020302040605060F1010100F0FF7
:102260000F0F101010100F0F0101050707030402D4
:102270000302040605061112121211111111121295
:1022800012121111010105070703040203020406DB
:102290000506131C1C1C131313131C1C1C1C1313EA
:1022A00000010507060203010302040604051D1EC2
:1022B0001E1E1D1D1D1D1E1E1E1E1D1D00010507AF
:1022C000060203010302040604051F2020201F1F2D
:1022D0001F1F202020201F1F0101050707030402E4
:1022E0000302040605062122222221212121222285
:1022F000222221210705020103060423232323238D
:10230000232307050201030604242424242424246F
:102310000705020103060425252525252525070592
:102320000201030604262626262626260001070289
:1023300006272727272700000000000000001312AF
:1023400011100F0E0D0C00000000212524260000A6
:102350003F0006005B004F0066006D007D00070037
:102360007F006F0077007C0039005E00790071000B
:102370004000000001000000030040000C000000CD
:1023800000000000000000004300000008000020E2
:042390000000000049
:082394009CDDFF7F0100000049
:10239C00006CDC0200800000000000000000000067
:1023AC000000000000000000000000000000000021
:1023BC000000000000000000882300000000000066
:1023CC000000000000000000000000000000000001
:1023DC0000000000000000000000000000000000F1
:1023EC0000000000000000000000000000000000E1
:1023FC00000000000000000001010000DD000000F2
:04240C0000000000CC
:0400000300001F7565
:00000001FF
