:1000000000000220951F0000C11F0000C11F00005A
:10001000C11F0000C11F0000C11F0000C11F000060
:10002000C11F0000C11F0000C11F0000C11F000050
:10003000C11F0000C11F0000C11F00007D020000A1
:10004000C11F0000C11F0000C11F0000C11F000030
:10005000C11F0000C11F0000C11F0000C11F000020
:10006000C11F0000C11F0000C11F0000C11F000010
:10007000C11F0000C11F0000C11F0000C11F000000
:10008000C11F0000C11F0000C11F0000C11F0000F0
:10009000C11F0000C11F0000C11F0000C11F0000E0
:1000A000C11F0000C11F0000C11F0000C11F0000D0
:1000B000C11F0000C11F0000C11F0000C11F0000C0
:1000C000C11F0000C11F0000C11F0000C11F0000B0
:1000D000C11F0000C11F0000C11F000010B5054C6A
:1000E000237833B9044B13B10448AFF300800123E4
:1000F000237010BD940000200000000020240000A8
:1001000008B5064B1BB106480649AFF30080064808
:10011000036813B1054B03B1984708BD0000000008
:100120002024000098000020900000200000000023
:10013000154B002B08BF134B9D46A3F5803A0021B9
:100140008B460F461348144A121A02F051F80F4B0F
:10015000002B00D098470E4B002B00D09847002072
:10016000002104000D000D48002802D00C48AFF318
:10017000008002F017F82000290000F0A3F801F039
:10018000FDFF00BF0000080000000220000000008A
:100190000000000094000020BC00002000000000CF
:1001A0000000000080B483B000AF03463960FB71EB
:1001B00097F90730002B0BDA0D49FB7903F00F0399
:1001C000043B3A68D2B25201D2B20B441A7609E02B
:1001D000084997F907303A68D2B25201D2B20B44BB
:1001E00083F800230C37BD465DF8047B704700BFE1
:1001F00000ED00E000E100E080B582B000AF786083
:100200007B68013BB3F1807F01D301230FE00A4BF0
:100210007A68013A5A604FF0FF300721FFF7C2FFBA
:10022000054B00229A60044B07221A6000231846EF
:100230000837BD4680BD00BF10E000E080B582B049
:1002400000AF0C4B1B687B603B46184601F0BCFCC2
:100250007B681B0E0F2B0AD93B78032B07D1064B6B
:10026000054A126822F0500242F010021A60083764
:10027000BD4680BDFC81E00FC0800C4080B400AF63
:10028000044B1B685A1C034B1A60BD465DF8047B87
:10029000704700BFB400002080B485B000AF786024
:1002A000074B1B68FB6000BF054B1A68FB68D21A3E
:1002B0007B689A42F8D31437BD465DF8047B7047DB
:1002C000B400002080B584B000AFFFF7B7FF44480A
:1002D000022100F0CBFD4348012100F0A7FB42487A
:1002E000012100F0A3FB4148012100F09FFB4048A1
:1002F00000F00CFC02463F4BA3FB02139B0918467F
:10030000FFF77AFF0346002B00D0FEE73A4801F0E2
:100310000BFC3948394901F0C5FB374B02225A65BD
:10032000032004210422012300F07AFF002001F0C1
:1003300069FD3148FE2101F02FFC2F48802101F09A
:100340002BFC0023FB6006E02B48202101F024FC5D
:10035000FB680133FB60FB681F2BF5DD2648FE219F
:1003600001F01AFC2448802101F016FC244801F019
:10037000A5FD0023BB600AE0214ABB6813441B783B
:100380001D48194601F008FCBB680133BB60BB681F
:10039000042BF1DD4FF47A70FFF77EFF1648FE2143
:1003A00001F0FAFB1448802101F0F6FB154801F03A
:1003B00085FD00237B600AE0124A7B6813441B78AA
:1003C0000D48194601F0E8FB7B6801337B607B68D0
:1003D000042BF1DD4FF47A70FFF75EFFBEE700BF3C
:1003E000030012000043040000D202004005140084
:1003F00020000400D34D621000400840000000209F
:10040000100000201800002080B487B000AFF86012
:10041000B9607A60FB6803F10473DA00BB681344C7
:100420009B007B617B697A681A601C37BD465DF86A
:10043000047B704780B483B000AF1D4BDB6C03F4CA
:100440007F031B0CFB71FB794A2B04D04B2B26D06E
:10045000482B22D025E0174B1B699BB203F03F03CA
:100460009BB21B02BB80134B9B699BB203F0F00352
:100470009AB2BB881343BB800E4BDB6903F0F003D9
:100480001B099AB2BB881343BB80BB88B3F5017FBD
:1004900001D3094B06E0094B04E0084B02E0064B90
:1004A00000E0002318460C37BD465DF8047B70471A
:1004B000B081E00FD0FF0FE000366E010048E80188
:1004C00080B485B000AF7860284BDB6B002B0CBF8D
:1004D00000230123BB72254B41F67132DA63234BB3
:1004E0005B6803F00703FB60FB68012B01D9042B59
:1004F00002D10023FB7202E00123FB7200BF7A6885
:100500001B4B9A4207D9FB7A002B01D0052300E050
:100510000423FB6016E07A68154B9A420BD87A6880
:10052000144B9A4207D9FB7A002B01D0032300E039
:100530000123FB6006E0FB7A002B01D0022300E0E0
:100540000023FB60094B094A526822F00701FA6850
:100550000A435A60BB7A002B02D0044B0022DA63B4
:100560001437BD465DF8047B704700BF00000C40A7
:100570000048E8010024F40080B582B000AF044BCD
:100580007B607868FFF79CFF0837BD4680BD00BFE1
:10059000006CDC0280B487B000AF78607B68002B11
:1005A00004D07B68B3F5004F00D800BF7B683B6187
:1005B0003B69B3FA83F3FB60FB68DBB2C3F11F0353
:1005C0007B617B6918461C37BD465DF8047B70472C
:1005D00080B582B000AF104800F096FB0346FB7078
:1005E000FB78032B07D0082B09D0022B0BD101F08D
:1005F000B9FD78600AE001F0A1FD786006E001F045
:1006000013FD786002E000237B6000BF7B68184622
:100610000837BD4680BD00BF05231C0080B483B0F1
:1006200000AF1A4B5B6903F4E063B3F5007F14D0AD
:10063000B3F5007F05D8002B15D0B3F5807F0FD020
:100640001AE0B3F5C06F14D0B3F5E06F0ED0B3F578
:10065000407F11D10E4B7B6011E00E4B7B600EE0B2
:100660000D4B7B600BE00D4B7B6008E00C4B7B601F
:1006700005E00C4B7B6002E000237B6000BF7B68E1
:1006800018460C37BD465DF8047B704700800C406F
:1006900040420F00C0CF6A00C0D8A700809FD5009D
:1006A000406F4001003FAB0180B582B000AF1248FF
:1006B00000F02AFB0346FB70FB78072B0FD0082BBA
:1006C00011D101F0B1FC78600C4B1B6803F4E033EE
:1006D0009B0B01337A68B2FBF3F37B6006E0FFF714
:1006E0009DFF786002E000237B6000BF7B681846B6
:1006F0000837BD4680BD00BF0400180000800C40D4
:1007000080B584B000AF78607B68002B02D07B6836
:10071000012B00D100BF264B9A6A7B685B0022FA4E
:1007200003F303F00303032B3AD801A252F823F09A
:100730008107000041070000490700005107000041
:1007400001F0FCFCF8602EE001F00CFDF8602AE0FE
:10075000174B5B6803F48073002B05D1144B1B68A7
:1007600003F08043002B05D001F03AFC03469B08C0
:10077000FB6018E001F034FC03465B08FB6012E00C
:100780000B4B9A6A7B6804339B0022FA03F3002B1D
:1007900003D001F0DDFCF86005E00023FB6002E01F
:1007A0000023FB6000BFFB6818461037BD4680BDC4
:1007B00000800C4080B483B000AF7860094B5B6D63
:1007C00003F00103002B00D006E000BF054B1A6DBB
:1007D0007B681340002BF9D10C37BD465DF8047BD4
:1007E000704700BF00800C40B0B584B000AF7860A7
:1007F00039607B681B0903F00F03FB60FB68013B5A
:10080000042B00F2FE8001A252F823F055080000EC
:100810007F080000EB080000AF090000210800007D
:100820003B68002B03D03B68082B00D800BFFFF7C4
:10083000A3FE764B754A126822F4E0313A68013A19
:1008400092030A431A6001F0CBFBB860B868FFF767
:1008500037FED7E03B68002B04D03B68B3F5007F40
:1008600000D800BF3868FFF795FE3860674B674ACD
:10087000926822F00F013A680A439A60C2E0FFF7DB
:100880007BFE512000F042F902463B68B2FBF3F4D4
:10089000FFF7D0FD03469C420AD85C481E21002287
:1008A000FFF7B2FD5A4808210022FFF7ADFD09E02D
:1008B00056481E210122FFF7A7FD554808210122B5
:1008C000FFF7A2FD3868FFF765FE38604F4B4F4ACF
:1008D000526822F00F013A680A435A6001F080FB27
:1008E000B860B868FFF7ECFD8CE07B68494A93423A
:1008F0001ED0484A934203D8474A934207D055E056
:10090000464A934225D0464A93423FD04EE00420C7
:10091000FFF750FF3868FFF73DFE38603B4B3B4A1E
:10092000926E22F0F0013A6812010A439A663DE0A5
:100930000420FFF73FFF3868FFF72CFE3860334B89
:10094000324A926E22F470613A6812020A439A6641
:100950002CE03B680F2B03D93B68802B00D800BFED
:100960000420FFF727FF3868FFF714FE3860274C94
:10097000264B9B6E23F440551020FFF70BFE0346D9
:100980003A68D31A1B032B43A3660FE00420FFF73A
:1009900011FF3868FFF7FEFD38601C4B1B4A926E52
:1009A00022F003013A680A439A6600BF2AE07B6896
:1009B0001C4A934203D01C4A934210D020E04020AE
:1009C000FFF7F8FE3868FFF7E5FD38600F4B0F4A78
:1009D000126F22F003013A680A431A6710E04020C0
:1009E000FFF7E8FE3868FFF7D5FD3860074B074A88
:1009F000126F22F030013A6812010A431A6700BFF1
:100A000000E000BF1037BD46B0BD00BF00800C4005
:100A100004800C4030240A003014080030000C0020
:100A200030041000400514004015160090B587B042
:100A300000AF78600B46FB7000233B617B681B0AAC
:100A400003F00F03013B052B4AD801A252F823F013
:100A5000690A00006F0A0000750A0000A30A00007E
:100A6000AD0A0000B70A00001F4B7B6126E01F4B58
:100A70007B6123E01E4B7B611E4800F047F8044673
:100A8000FFF7D8FC03469C420AD91B481E210122CD
:100A9000FFF7BAFC194808210122FFF7B5FC0DE069
:100AA0000CE0174B7B6101233B6107E0154B7B6139
:100AB00010233B6102E0144B7B6100BF7B681B0B82
:100AC00003F01F03FB603B69002B02D03869FFF77E
:100AD00071FEFB787869F9681A46FFF795FC00E02B
:100AE00000BF1C37BD4690BD08800C4044800C40C0
:100AF00040800C402000040000800C4004800C402A
:100B000058800C4060800C4078800C4090B585B0D7
:100B100000AF78607B6803F47813B3F5602F00F0C2
:100B20009980B3F5602F18D8B3F5C02F5ED0B3F518
:100B3000C02F08D8B3F5003F3ED0B3F5802F51D079
:100B4000002B2BD0D6E0B3F5202F62D0B3F5402F89
:100B50006DD0B3F5002F4ED0CCE0B3F5B01F00F050
:100B6000AF80B3F5B01F0CD8B3F5901F00F096809E
:100B7000B3F5A01F00F09780B3F5801F00F08180CF
:100B8000B8E0B3F5D01F00F0AD80B3F5E01F00F082
:100B9000AD80B3F5C01F00F0A180ABE001F044FAD6
:100BA000F860584B1B6803F4E0339B0B0133FA6881
:100BB000B2FBF3F3FB60A0E001F036FAF860514BB2
:100BC0001B6803F4E0339B0B0133FA68B2FBF3F3C9
:100BD000FB604C4B9B6803F00F03FA6822FA03F3A7
:100BE000FB608AE001F0FCF9F86086E00020FFF786
:100BF00087FDF86081E00020FFF782FDF860414B3F
:100C00009B6E03F0F0031B09FA6822FA03F3FB6002
:100C100073E00020FFF774FDF8603A4B9B6E03F41D
:100C200070631B0AFA6822FA03F3FB6065E0002098
:100C3000FFF766FDF860334B9B6E03F440531C0BCB
:100C40001020FFF7A7FC03462344FA6822FA03F3B7
:100C5000FB6052E00020FFF753FDF860294B9B6ECC
:100C600003F440531B0BFA6822FA03F3FB60254B95
:100C7000DB6F03F007030133FA68B2FBF3F3FB60A9
:100C80003BE00020FFF73CFDF8601E4B9B6E03F03D
:100C90000303FA6822FA03F3FB602EE00120FFF75A
:100CA0002FFDF86029E00120FFF72AFDF860154BC1
:100CB0001B6F03F00303FA6822FA03F3FB601CE0E6
:100CC0000120FFF71DFDF8600E4B1B6F03F0300392
:100CD0001B09FA6822FA03F3FB600EE0FFF7E4FC5D
:100CE000F8600AE0FFF79AFCF86006E0FFF770FC96
:100CF000F86002E00023FB6000BFFB681846143771
:100D0000BD4690BD00800C4080B487B000AF7860D5
:100D10000123FB754FF470533B617B6803F00F03B5
:100D2000FB60FB68013B042B00F2938001A252F8A8
:100D300023F000BF490D00007F0D0000BB0D000037
:100D4000F70D00001D0E0000474BDA6A3B691340A7
:100D5000B3F5805F09D0B3F5005F03D0B3F5006F42
:100D600006D008E00223FB7508E00323FB7505E0CD
:100D70000423FB7502E00523FB7500BF6CE03A4BD2
:100D80009B6A03F00303022B06D0032B07D0012B31
:100D900008D10323FB750FE00223FB750CE006234B
:100DA000FB7509E0304B9B6A03F48033002B02D0C3
:100DB0000923FB7500E000BF4EE02B4B9B6A03F05C
:100DC0000C03082B06D00C2B07D0042B08D10323CF
:100DD000FB750FE00223FB750CE00623FB7509E0B1
:100DE000214B9B6A03F48013002B02D00923FB756F
:100DF00000E000BF30E00723FB751B4B1B6803F0CE
:100E00008053002B03D0B3F1805F03D024E007238D
:100E1000FB7502E00823FB7500BF1DE0124BDB6A87
:100E200003F46033B3F5803F06D0B3F5003F06D03E
:100E3000B3F5004F06D008E00223FB7508E003235A
:100E4000FB7505E00823FB7502E00123FB7500BF7D
:100E500002E00023FB7500BFFB7D18461C37BD4632
:100E60005DF8047B704700BF00800C4090B589B0EE
:100E700000AF78600B46FB700323FB610323FB7616
:100E800000237B617B6803F00F03FB60FB68013B81
:100E9000042B00F22A8101A252F823F0B10E0000C7
:100EA0007D0F00007D0F000059100000831000002E
:100EB000FB78023B072B00F21A8101A252F823F0C3
:100EC000E10E0000EB0E0000F50E0000490F0000DF
:100ED000EF100000EF100000EF100000530F0000B3
:100EE0000423FB610023FB7634E00323FB61012331
:100EF000FB762FE00223FB610223FB7601F00CF965
:100F00000446FFF797FA03469C4213D97B4A7B4B72
:100F10001B6843F0804343F060031360774B1B6C06
:100F200003F01003002B0ED0754808210122FFF7B3
:100F30006BFA0FE0714B714A126822F0600242F0C6
:100F400020021A6006E005E00123FB610323FB7623
:100F500000E000BFFB7E18460121012200F0F2F8FC
:100F6000FFF70AFB654BFA695A6200F04BF901F092
:100F700037F8B860B868FFF7A3FABBE0FB78013B2D
:100F8000082B00F2B68001A252F823F0B10F000046
:100F9000B70F0000C70F0000F3100000F3100000AF
:100FA000D70F0000F3100000F31000000F10000036
:100FB00000233B6130E000200121012200F0C2F853
:100FC00002233B6128E001200121012200F0BAF850
:100FD00001233B6120E04B4804210122FFF714FA72
:100FE00003233B6100F0FCFFB860FFF723FA0246E1
:100FF000BB689A420AD241481E210122FFF704FA37
:101000003F4808210122FFF7FFF905E004E0002333
:101010003B6101237B6100BFFB68022B0DD1374A86
:10102000364B9B6A23F4803323F003033969194359
:101030007B691B040B4393625CE0304A2F4B9B6A35
:1010400023F4801323F00C033969890019437B6969
:101050001B050B4393624DE0FB78072B02D0082B56
:1010600007D047E0254B254A126822F080521A60CB
:1010700006E0224B214A126842F080521A6000BFFB
:1010800038E0FB78032B14D0082B22D0022B00D0A1
:1010900030E000200121012200F054F8174B4022DB
:1010A0005A6200BF154BDB6A03F48033002BF9D082
:1010B0001AE001200121012200F044F80F4B6022C8
:1010C0005A6200BF0D4BDB6A03F40033002BF9D0EA
:1010D0000AE00A4B20225A6200BF084BDB6A03F485
:1010E0000043002BF9D000BF04E000BF02E000BFC6
:1010F00000E000BF2437BD4690BD00BF00800C401B
:1011000004800C4040800C4080B483B000AF786015
:101110000B4B9B6D03F00803002B00D00BE07B68AA
:1011200003F007037B60064B054AD26F22F00701EC
:101130007A680A43DA670C37BD465DF8047B70476E
:1011400000800C4080B586B000AF13460246FA71AD
:101150000A46BA717B71FB79052B4CD801A252F873
:1011600023F000BFB5110000A71100008B11000093
:101170007D11000099110000F711000001233B616F
:101180000223FB6002237B611EE004233B610823F2
:10119000FB6008237B6117E010233B612023FB6089
:1011A00020237B6110E040233B618023FB60802390
:1011B0007B6109E04FF480733B614FF40073FB6087
:1011C0004FF400737B6100BFBB79002B0DD00C4B3B
:1011D0003A691A627B79002B0AD000BF084BDA6AA1
:1011E0007B691340002BF9D002E0054BFA681A62C4
:1011F00000F008F800E000BF1837BD4680BD00BF12
:1012000000800C4080B400AF034BDA6A034B1A60D5
:10121000BD465DF8047B704700800C40B0000020A4
:1012200090B484B000AFB9607B600346FB73134693
:10123000BB73FB7B052B03D8BB680F2B00D800BF0B
:10124000BB7B002B1FD07B68002B0ED04448FA7B61
:10125000BB68012101FA03F319461346DB0013446E
:101260009B000344103319600DE03D48FA7BBB68D6
:10127000012101FA03F319461346DB0013449B00D6
:10128000034410335960BB68072B1DD83448FA7BE0
:10129000334CF97B0B46DB000B449B00234459681D
:1012A000BB689B000F2404FA03F3DB431940BC7BAB
:1012B000BB689B0004FA03F319431346DB00134495
:1012C0009B000344596024E02548FA7B244CF97BB9
:1012D0000B46DB000B449B00234408331968BB68B2
:1012E00003F18043083B9B000F2404FA03F3DB4324
:1012F0001940BC7BBB6803F18043083B9B0004FAA8
:1013000003F319431346DB0013449B0003440833E3
:101310001960BB7B002B1FD17B68002B0ED01048BF
:10132000FA7BBB68012101FA03F319461346DB007F
:1013300013449B000344103319600DE00848FA7B06
:10134000BB68012101FA03F319461346DB0013447D
:101350009B000344103359601037BD4690BC704762
:101360000060004080B483B000AF0346FB71FB799E
:10137000002B06D0084B084A126842F001021A609E
:1013800005E0054B044A126822F001021A600C378E
:10139000BD465DF8047B704700A0084080B487B06C
:1013A00000AFF860B9607A60FB6803F10473DA009B
:1013B000BB6813449B007B617B697A681A601C37A9
:1013C000BD465DF8047B704780B584B000AF78609F
:1013D000184B5B68FB600020FFF7C4FFFB6823F439
:1013E000830323F01F03FB607B685B68FA68134389
:1013F000FB607B681B7AFA681343FB607B685B7A4F
:10140000FA681343FB607B68DB68FA681343FB6090
:101410007B681B8AFA681343FB60064BFA685A60C4
:101420007B681B78002B02D00120FFF79BFF103751
:10143000BD4680BD00A0084080B485B000AF786094
:101440000D4B5B68FB60FB6823F48033FB607B68BB
:10145000002B08D0B3F5803F00D005E0FB6843F4D3
:101460008033FB6000E000BF034BFA685A6014371A
:10147000BD465DF8047B704700A0084080B483B08F
:1014800000AF02460B46FA807B717B79002B06D0B9
:10149000094B094A9168FA880A439A6006E0064BAC
:1014A000054A9168FA88D2430A409A600C37BD46D3
:1014B0005DF8047B704700BF00A0084080B584B091
:1014C00000AFF860B9601346FB71FB68072B00F2B0
:1014D000C38001A252F823F0F91400002515000082
:1014E000511500007D150000A9150000D51500005C
:1014F000011600002D160000BB681F2B07DCBA6820
:10150000FB79574811461A46FFF748FFA5E0BB682C
:10151000203BBB60BA68FB79524811461A46FFF778
:101520003DFF9AE0BB681F2B07DCBA68FB794E4889
:1015300011461A46FFF732FF8FE0BB68203BBB60C5
:10154000BA68FB79494811461A46FFF727FF84E03D
:10155000BB681F2B07DCBA68FB79454811461A4661
:10156000FFF71CFF79E0BB68203BBB60BA68FB79E2
:10157000404811461A46FFF711FF6EE0BB681F2B6B
:1015800007DCBA68FB793C4811461A46FFF706FFAC
:1015900063E0BB68203BBB60BA68FB793748114603
:1015A0001A46FFF7FBFE58E0BB681F2B07DCBA6842
:1015B000FB79334811461A46FFF7F0FE4DE0BB6851
:1015C000203BBB60BA68FB792E4811461A46FFF7EC
:1015D000E5FE42E0BB681F2B07DCBA68FB792A48AE
:1015E00011461A46FFF7DAFE37E0BB68203BBB60C6
:1015F000BA68FB79254811461A46FFF7CFFE2CE062
:10160000BB681F2B07DCBA68FB79214811461A46D4
:10161000FFF7C4FE21E0BB68203BBB60BA68FB79E2
:101620001C4811461A46FFF7B9FE16E0BB681F2B8F
:1016300007DCBA68FB79184811461A46FFF7AEFE78
:101640000BE0BB68203BBB60BA68FB7913481146CE
:101650001A46FFF7A3FE00E000BF1037BD4680BD6D
:1016600040A0084050A0084044A0084054A00840B2
:1016700048A0084058A008404CA008405CA0084082
:10168000CCA00840B4A00840D0A00840B8A00840B2
:10169000D4A00840BCA00840D8A00840C0A0084082
:1016A00080B487B000AFF860B9607A60FB68072B40
:1016B00000F2AC8001A252F823F000BFDD1600005A
:1016C0000117000025170000491700006D170000E2
:1016D00095170000BD170000E51700004E4B1B6C6E
:1016E0007B61BB68DB437A6913407B61BA687B68C6
:1016F00013407A6913437B61474B7A691A6486E029
:10170000454B5B6C7B61BB68DB437A6913407B6153
:10171000BA687B6813407A6913437B613E4B7A69F0
:101720005A6474E03C4B9B6C7B61BB68DB437A6919
:1017300013407B61BA687B6813407A6913437B610D
:10174000354B7A699A6462E0334BDB6C7B61BB6832
:10175000DB437A6913407B61BA687B6813407A691E
:1017600013437B612C4B7A69DA6450E02A4BD3F83F
:10177000CC307B61BB68DB437A6913407B61BA681C
:101780007B6813407A6913437B61234B7A69C3F802
:10179000CC203CE0204BD3F8D0307B61BB68DB43EE
:1017A0007A6913407B61BA687B6813407A69134396
:1017B0007B61194B7A69C3F8D02028E0164BD3F827
:1017C000D4307B61BB68DB437A6913407B61BA68C4
:1017D0007B6813407A6913437B610F4B7A69C3F8C6
:1017E000D42014E00C4BD3F8D8307B61BB68DB43CA
:1017F0007A6913407B61BA687B6813407A69134346
:101800007B61054B7A69C3F8D82000E000BF1C3724
:10181000BD465DF8047B704700A0084080B487B0E7
:1018200000AFF860B9607A60FB68072B00F2AC800B
:1018300001A252F823F000BF591800007D180000E3
:10184000A1180000C5180000E918000011190000D7
:1018500039190000611900004E4B1B6D7B61BB689C
:10186000DB437A6913407B61BA687B6813407A690D
:1018700013437B61474B7A691A6586E0454B5B6D84
:101880007B61BB68DB437A6913407B61BA687B6824
:1018900013407A6913437B613E4B7A695A6574E061
:1018A0003C4B9B6D7B61BB68DB437A6913407B617A
:1018B000BA687B6813407A6913437B61354B7A6958
:1018C0009A6562E0334BDB6D7B61BB68DB437A6911
:1018D00013407B61BA687B6813407A6913437B616C
:1018E0002C4B7A69DA6550E02A4BD3F8B4307B612F
:1018F000BB68DB437A6913407B61BA687B6813403D
:101900007A6913437B61234B7A69C3F8B4203CE0C6
:10191000204BD3F8B8307B61BB68DB437A69134056
:101920007B61BA687B6813407A6913437B61194B0A
:101930007A69C3F8B82028E0164BD3F8BC307B6135
:10194000BB68DB437A6913407B61BA687B681340EC
:101950007A6913437B610F4B7A69C3F8BC2014E0AA
:101960000C4BD3F8C0307B61BB68DB437A69134012
:101970007B61BA687B6813407A6913437B61054BCE
:101980007A69C3F8C02000E000BF1C37BD465DF88F
:10199000047B704700A0084080B483B000AF78603B
:1019A000064B064A526822F4E0117A680A435A60EC
:1019B0000C37BD465DF8047B704700BF00A00840AF
:1019C00080B483B000AF786039607B681B6C03F033
:1019D0000103002B00D006E000BF7B685A6C3B6817
:1019E0001340002BF9D10C37BD465DF8047B7047DE
:1019F00080B586B000AFF860B9607A60BB68002B34
:101A000012D1FA68164B9A4202D1164B7B6107E05D
:101A1000FA68154B9A4202D1144B7B6100E01BE03F
:101A20007869FFF773F8B860BB685A017B68B2FB4E
:101A3000F3F33B613B69203B3B613B69DB003B616E
:101A40003A6947F6F87313403B61F8680421FFF7E1
:101A5000B7FFFB683A69DA601837BD4680BD00BF42
:101A6000004008404005140000440840401516009E
:101A700080B483B000AF78600B46FB70FB78002B1E
:101A800008D000BF7B685B6C002BFBD17B68012218
:101A90001A6402E07B6800221A640C37BD465DF8C8
:101AA000047B704780B582B000AF786039607A6897
:101AB0001B4B9A4203D07A681A4B9A4200D100BF5E
:101AC00078680221FFF77CFF7B680A225A607868F9
:101AD0000121FFF7CDFF7B681B6823F01C023B68E8
:101AE0001B7B1A433B685B7B1A433B689B7B1A4317
:101AF0007B681A603B685A683B689B687868114647
:101B00001A46FFF775FF3B681B781A467B685A60D8
:101B100078680021FFF7ACFF0837BD4680BD00BFE5
:101B2000004008400044084080B582B000AF7860B3
:101B30007A68174B9A4203D07A68164B9A4200D1C2
:101B400000BF78680121FFF793FF7B68EA225A60A3
:101B50007B6800221A607B680022DA607B680022C2
:101B60001A617B6800225A617B6800229A637B6855
:101B700040F2F9725A637B680022DA637B680022C4
:101B80005A6578680021FFF773FF0837BD4680BDAE
:101B9000004008400044084080B582B000AF786043
:101BA0000B46FB7000BF7B689B6803F01003002BA3
:101BB000F9D078684021FFF703FFFA787B689A62D2
:101BC0000837BD4680BD00BF80B485B000AF7860E7
:101BD000194B5B69DBB203F00F03DBB29B00FB73B5
:101BE000154B1B6903F0C0039B09DAB2FB7B13435F
:101BF000FB737B68FA7B9A700F4B1B69DBB203F0B7
:101C00003F03DAB27B685A700B4B9B69DBB223F05F
:101C10000F03FB73084BDB6903F0F0031B09DAB217
:101C2000FB7B1343FB737B68FA7B1A701437BD464A
:101C30005DF8047B704700BFD0FF0FE080B483B035
:101C400000AF0346FB71FB79002B03D0054B01224B
:101C50001A6602E0034B00221A660C37BD465DF897
:101C6000047B704700A0084080B483B000AF786068
:101C700000BF054B5A6E7B681340002BF9D10C371F
:101C8000BD465DF8047B704700A0084080B483B077
:101C900000AF7860054B054A916A7A68D2430A40E2
:101CA0009A620C37BD465DF8047B704700A008407F
:101CB00080B500AF002028490022FFF7F1FC012089
:101CC00025490022FFF7ECFC022023490022FFF700
:101CD000E7FC032020490022FFF7E2FC04201E4914
:101CE0000022FFF7DDFC05201B490022FFF7D8FC8E
:101CF000062019490022FFF7D3FC072016490022CD
:101D0000FFF7CEFC0020FF210022FFF787FD012016
:101D1000FF210022FFF782FD0220FF210022FFF7B2
:101D20007DFD0320FF210022FFF778FD0420FF2125
:101D30000022FFF773FD0520FF210022FFF76EFD53
:101D40000620FF210022FFF769FD0720FF21002266
:101D5000FFF764FD80BD00BF00F00FF080B500AF5D
:101D6000072026490022FFF79BFC06202449002279
:101D7000FFF796FC052022490022FFF791FC042082
:101D80001F490022FFF78CFC03201D490022FFF7AA
:101D900087FC02201A490022FFF782FC0120184923
:101DA0000022FFF77DFC00204FF020410022FFF7CA
:101DB00077FC072007210022FFF730FD06200721CE
:101DC0000022FFF72BFD052007210022FFF726FD4B
:101DD000042007210022FFF721FD03200721002214
:101DE000FFF71CFD022007210022FFF717FD01204D
:101DF00007210022FFF712FD00BF80BD00E00F5059
:101E000000E00FF080B582B000AF0346FB712548BB
:101E10000121FEF70BFE24480321FFF727F8234892
:101E20004021FEF7E1FC0120FFF76EF92048012177
:101E3000FEF7FCFD4FF0FF30FFF728FF1D48FFF7CE
:101E4000C3FA08200121FFF719FB10200121FFF739
:101E500015FB80200121FFF711FB4FF48070012159
:101E6000FFF70CFB4FF400700121FFF707FBFB7934
:101E7000002B0DD04FF44020FFF78EFD4FF4803043
:101E8000FFF7DAFA0C4B0C4AD26F42F00802DA671D
:101E9000FFF70EFF4FF0FF30FFF7E6FE0837BD46B5
:101EA00080BD00BF004304000200060030000C00AB
:101EB00000340E000424000000800C4080B58AB07D
:101EC00000AF7860786800F09BF90346BB6100239F
:101ED0003B624FF0FF30FFF7C7FE0120FFF7AEFE79
:101EE000FFF73CFF00233B6246E03A6ABB699A4237
:101EF00003DA7B681B787B6201E020237B627B6ACC
:101F0000203B7B62214B7A6A33F81230FB8200233C
:101F1000FB6128E01E493A6A1346DB009B1A9B00CE
:101F2000CA18FB69134408339B793B6118493A6A24
:101F30001346DB009B1A9B00FA6913440B441B7881
:101F4000FB60FA8AFB6942FA03F303F00103002BFA
:101F500006D0FA683B69104619460122FFF7AEFA2F
:101F6000FB690133FB61FB690D2BD3DD7B6801331A
:101F70007B603B6A01333B623B6A062BB5DD002088
:101F8000FFF75CFE2837BD4680BD00BF4C23000034
:101F90002C220000064880470649074A074B9A4210
:101FA000BEBF51F8040B42F8040BF8E7FEF7C0F887
:101FB000312100002C2400000000002094000020AB
:101FC000FEE700BF80B400AF044BDB6C1B0EDBB23E
:101FD0001846BD465DF8047B704700BFB081E00F36
:101FE00080B582B000AF00F01FF878600C4B1B6822
:101FF00003F4E0339B0B01337A68B2FBF3F37B60AD
:10200000074B5B6803F00F037A6822FA03F37B60E7
:10201000044B7A681A607B6818460837BD4680BD55
:1020200000800C40B800002080B582B000AF2F4B7C
:10203000DB6A03F47053B3F5805F0AD0B3F5005F39
:1020400003D0B3F5006F08D00BE0294B1B687B6011
:1020500047E04FF400437B6043E0264B1B687B6006
:102060003FE0224BDB6803F4E063B3F5007F1BD055
:10207000B3F5007F05D8002B24D0B3F5807F16D0B0
:102080002BE0B3F5806F09D0B3F5A06F03D0B3F5A3
:10209000407F06D021E0184B7B6021E0174B7B602E
:1020A0001EE0174B7B601BE0164B7B6018E0FFF7D0
:1020B00089FF0346122B02D9134B7B6010E0134BB0
:1020C0007B600DE0FFF77EFF0346122B02D9104B19
:1020D0007B6005E00F4B7B6002E000237B6000BF6C
:1020E00000BF7B6818460837BD4680BD00800C40A5
:1020F0002400002020000020003FAB01406F400181
:10210000809FD500C0D8A70040B56400C0CF6A004A
:10211000804F120040420F0080B400AF034B1B6899
:102120001846BD465DF8047B704700BF20000020C4
:1021300080B400AFBD465DF8047B704780B400AF4B
:102140004FF400431846BD465DF8047B704700BF5E
:1021500080B400AF4FF47A731846BD465DF8047B37
:10216000704700BF80B400AF034B1B681846BD46E4
:102170005DF8047B704700BF2400002008B5074BC2
:10218000044613B10021AFF30080054B1868836A41
:1021900003B19847204600F03BF800BF0000000064
:1021A0001C24000070B50E4B0E4D0024ED1AAD102E
:1021B0001E46AC4204D056F8242090470134F8E77C
:1021C00000F028F8084D094B0024ED1AAD101E460A
:1021D000AC4204D056F8242090470134F8E770BD93
:1021E00088000020880000208C000020880000204B
:1021F00002440346934202D003F8011BFAE77047FA
:10220000034613F8012B002AFBD1181A0138704736
:10221000FEE700BFF8B500BFF8BC08BC9E4670479B
:10222000F8B500BFF8BC08BC9E4670470101050721
:10223000070304020302040605060D0E0E0E0D0D23
:102240000D0D0E0E0E0E0D0D010105070703040204
:102250000302040605060F1010100F0F0F0F1010C9
:1022600010100F0F01010507070304020302040603
:10227000050611121212111111111212121211115E
:102280000101050707030402030204060506131CE7
:102290001C1C131313131C1C1C1C13130001050717
:1022A000060203010302040604051D1E1E1E1D1D59
:1022B0001D1D1E1E1E1E1D1D000105070602030119
:1022C0000302040604051F2020201F1F1F1F2020BB
:1022D00020201F1F01010507070304020302040653
:1022E000050621222222212121212222222221210E
:1022F00007050201030604232323232323230705C1
:1023000002010306042424242424242407050201B2
:102310000306042525252525252507050201030695
:10232000042626262626262600010702062727271A
:1023300027270000000000000000131211100F0EEC
:102340000D0C0000000021252426000000000011D3
:1023500080020000000002060000200039000F008B
:102360000000401500204004001000223F0006003D
:102370005B044F0466046D047D0407007F046F0452
:1023800000000000000A000080200000FFFF77042A
:10239000790A3900B020790071007D0476040600C6
:1023A0000E00700A3800B602B6083F0073043F08FA
:1023B000730C6D0401113E0030223628802A6E0411
:1023C0000922390080080F000100080000015810A0
:1023D0007C0458005E04582071040C0C7404040042
:1023E0000E00700C3800541454045C047304670429
:1023F0005004080C78001C0010201428802A0C08B7
:102400004820000001000000030040000C00000014
:102410000000000000000000430000002800002031
:0424200000000000B8
:082424000CDDFF7F0100000048
:10242C0004000000000000008025000000000000F7
:10243C0074657374310000007465737432000000AD
:10244C00006CDC02008000000000000000000000B6
:10245C000000000000000000000000000000000070
:10246C000000000000000000182400000000000024
:10247C000000000000000000000000000000000050
:10248C000000000000000000000000000000000040
:10249C000000000000000000000000000000000030
:1024AC00000000000000000001010000DD00000041
:0424BC00000000001C
:0400000300001F9545
:00000001FF
