:1000000000000220A1050000CD050000CD05000084
:10001000CD050000CD050000CD050000CD05000098
:10002000CD050000CD050000CD050000CD05000088
:10003000CD050000CD050000CD050000CD05000078
:10004000CD050000E5010000CD050000CD05000054
:10005000CD050000CD050000CD050000CD05000058
:10006000CD050000CD050000CD050000F101000028
:10007000CD050000CD050000CD050000CD05000038
:10008000CD050000CD050000CD050000CD05000028
:10009000CD050000CD050000CD050000CD05000018
:1000A000CD050000CD050000CD050000CD05000008
:1000B000CD050000CD050000CD050000CD050000F8
:1000C000CD050000CD050000CD050000CD050000E8
:1000D000CD050000CD050000CD05000010B5054C94
:1000E000237833B9044B13B10448AFF300800123E4
:1000F000237010BD7400002000000000D80700002D
:1001000008B5064B1BB106480649AFF30080064808
:10011000036813B1054B03B1984708BD0000000008
:10012000D8070000780000207000002000000000C8
:10013000154B002B08BF134B9D46A3F5803A0021B9
:100140008B460F461348144A121A00F02BFB0F4B34
:10015000002B00D098470E4B002B00D09847002072
:10016000002104000D000D48002802D00C48AFF318
:10017000008000F0F1FA2000290000F03FF800F0C4
:10018000D7FA00BF000008000000022000000000B5
:100190000000000074000020980000200000000013
:1001A0000000000080B582B000AF0C4B1B687B6084
:1001B0003B46184600F0BAF97B681B0E0F2B0AD994
:1001C0003B78032B07D1064B054A126822F05002F8
:1001D00042F010021A600837BD4680BDFC81E00F76
:1001E000C0800C4080B500AF00F052F880BD00BF69
:1001F00080B500AF00F04CF880BD00BF80B500AF07
:10020000FFF7D0FF1F4B4FF400525A641E4B1E4A9B
:10021000D2F8942042F4A062C3F894201A4B1A4AF0
:10022000D2F8942042F4A042C3F89420164B012245
:10023000C3F89020144B144AD26A42F02002DA62CA
:10024000114B114AD26A42F40072DA620E4B4FF43B
:10025000C0621A630C4B4FF48872C3F804210A4B36
:100260004FF4C062C3F80C21074B4FF4C062C3F8CF
:100270001021064B40F602021A60002000F0F8F848
:1002800030BFFAE700800C400060004000E100E071
:1002900080B400AF0E4B0E4AD2F81421C3F81C21D3
:1002A0000B4B1B6C03F48063002B03D0084B08221C
:1002B000C3F8A820064B1B6C03F40073002B03D07B
:1002C000034B0422C3F8A820BD465DF8047B7047A9
:1002D0000060004080B500AF00F088F980BD00BF2D
:1002E00080B400AF034B0022C3F88420BD465DF804
:1002F000047B704700800C4080B400AF044B45F68F
:100300000E02C3F88420BD465DF8047B704700BF31
:1003100000800C4080B584B000AF394BD3F88430F6
:1003200003F00103FB60FFF7E7FF0023BB60354BE1
:100330001B6803F00103BA681343BB60314B1B68B1
:1003400003F01003BA681343BB602E4B1B6803F025
:100350004003BA681343BB602A4B1B6803F00403D5
:10036000BA681343BB60274B1B6803F48073BA68F9
:100370001343BB60224BBA681A624FF470537B6020
:10038000204B1A687B681340B3F5805F06D0B3F545
:10039000005F0ED0B3F5006F16D020E000BF184B01
:1003A000DB6A03F08003002BF9D0154B03225A625D
:1003B00015E000BF124BDB6A03F40073002BF9D089
:1003C0000F4B04225A620AE000BF0D4BDB6A03F0B8
:1003D0000803002BF9D00A4B02225A6200BF094BD6
:1003E0001B6803F00103002B02D1054B02221A62A5
:1003F000FB68002B01D0FFF773FF1037BD4680BDAF
:1004000000800C409000002080B483B000AF174BF8
:100410001B699BB203F03F039BB21B02FB80134B93
:100420009B699BB203F0F0039AB2FB881343FB80F5
:100430000E4BDB6903F0F0031B099AB2FB881343F0
:10044000FB80FB88B3F5827F03D3FB88B3F5017F84
:1004500001D1012300E0002303F00103DBB21846C1
:100460000C37BD465DF8047B704700BFD0FF0FE03E
:1004700080B586B000AF0346FB71274BDA6A274B85
:100480001A60254BD3F8843003F001037B61FFF73A
:1004900033FF214B4FF420721A627B69002B01D08D
:1004A000FFF71EFF1E4B1E4A126942F004021A613A
:1004B000FFF7AAFF0346FB74FB7C002B11D0194BFE
:1004C0001A68194B1340BB60164BBA68C3F88020FA
:1004D000144B5B6823F04603FB60124BFA68C3F8C9
:1004E000842030BFFB7C002B05D00E4BBA681A600D
:1004F0000C4BFA685A60FB79002B02D0FFF70AFF19
:1005000007E0064B1B6803F48063002B01D1FFF763
:10051000E1FE1837BD4680BD00800C4090000020F1
:1005200000ED00E000E100E09CF1FD0080B485B04A
:1005300000AF7860194B5B69DBB203F00F03DBB2ED
:100540009B00FB73154B1B6903F0C0039B09DAB2D8
:10055000FB7B1343FB737B68FA7B9A700F4B1B6921
:10056000DBB203F03F03DAB27B685A700B4B9B6936
:10057000DBB223F00F03FB73084BDB6903F0F003DE
:100580001B09DAB2FB7B1343FB737B68FA7B1A709F
:100590001437BD465DF8047B704700BFD0FF0FE005
:1005A000064880470649074A074B9A42BEBF51F8A2
:1005B000040B42F8040BF8E7FFF7BAFD250700002B
:1005C000E40700000000002074000020FEE700BFE8
:1005D00080B400AF044BDB6C1B0EDBB21846BD468B
:1005E0005DF8047B704700BFB081E00F80B582B03A
:1005F00000AF00F01FF878600C4B1B6803F4E03389
:100600009B0B01337A68B2FBF3F37B60074B5B68AB
:1006100003F00F037A6822FA03F37B60044B7A68D5
:100620001A607B6818460837BD4680BD00800C40C4
:100630009400002080B582B000AF2F4BDB6A03F43A
:100640007053B3F5805F0AD0B3F5005F03D0B3F504
:10065000006F08D00BE0294B1B687B6047E04FF42C
:1006600000437B6043E0264B1B687B603FE0224BEE
:10067000DB6803F4E063B3F5007F1BD0B3F5007FC4
:1006800005D8002B24D0B3F5807F16D02BE0B3F52E
:10069000806F09D0B3F5A06F03D0B3F5407F06D0CB
:1006A00021E0184B7B6021E0174B7B601EE0174B6D
:1006B0007B601BE0164B7B6018E0FFF789FF034669
:1006C000122B02D9134B7B6010E0134B7B600DE0C3
:1006D000FFF77EFF0346122B02D9104B7B6005E02B
:1006E0000F4B7B6002E000237B6000BF00BF7B6894
:1006F00018460837BD4680BD00800C40040000202D
:1007000000000020003FAB01406F4001809FD500FA
:10071000C0D8A70040B56400C0CF6A00804F120067
:1007200040420F0080B400AFBD465DF8047B7047C7
:1007300008B5074B044613B10021AFF30080054B09
:100740001868836A03B19847204600F033F800BF69
:1007500000000000D407000070B50E4B0E4D0024C1
:10076000ED1AAD101E46AC4204D056F82420904736
:100770000134F8E700F020F8084D094B0024ED1A89
:10078000AD101E46AC4204D056F8242090470134E8
:10079000F8E770BD68000020680000206C000020B1
:1007A0006800002002440346934202D003F8011B74
:1007B000FAE77047FEE700BFF8B500BFF8BC08BC19
:1007C0009E467047F8B500BFF8BC08BC9E4670470F
:0C07D000430000000800002000000000B2
:0807DC0054F9FF7F0100000049
:1007E400006CDC020080000000000000000000003B
:1007F40000000000000000000000000000000000F5
:100804000000000000000000D0070000000000000D
:1008140000000000000000000000000000000000D4
:1008240000000000000000000000000000000000C4
:1008340000000000000000000000000000000000B4
:10084400000000000000000001010000DD000000C5
:0408540000000000A0
:04000003000005A153
:00000001FF
