:100000000000022075150000AB150000AD150000C2
:10001000AF150000B1150000B3150000A9150000D0
:10002000A9150000A9150000A9150000B5150000CC
:10003000B7150000A9150000B9150000BB15000098
:10004000BD15000009020000C1150000C315000025
:10005000C5150000C7150000C9150000CB1500002C
:10006000CD150000CF150000D115000015020000CD
:10007000D5150000D7150000D9150000DB150000CC
:10008000DD150000DF150000E1150000E31500009C
:10009000E5150000E7150000E9150000EB1500006C
:1000A000ED150000EF150000F1150000F31500003C
:1000B000F5150000F7150000F9150000FB1500000C
:1000C000FD150000FF1500000116000003160000DA
:1000D00005160000071600000916000000000000C9
:1000E0000000000000000000000000000000000010
:1000F0000000000000000000000000000000000000
:1001000010B5054C237833B9044B13B10448AFF351
:1001100000800123237010BD840000200000000037
:10012000E020000008B5064B1BB106480649AFF3B6
:1001300000800648036813B1054B03B1984708BD1A
:1001400000000000E0200000880000208400002063
:1001500000000000154B002B08BF134B9D46A3F574
:10016000803A00218B460F461348144A121A01F0B8
:1001700063FB0F4B002B00D098470E4B002B00D099
:1001800098470020002104000D000D48002802D0EF
:100190000C48AFF3008001F029FB2000290000F09B
:1001A0003FF801F00FFB00BF000008000000022034
:1001B000000000000000000084000020BC000020BF
:1001C000000000000000000080B582B000AF0C4BC2
:1001D0001B687B603B46184601F092F97B681B0E5A
:1001E0000F2B0AD93B78032B07D1064B054A12681F
:1001F00022F0500242F010021A600837BD4680BD5E
:10020000FC81E00FC0800C4080B500AF00F07EF8AC
:1002100080BD00BF80B500AF00F078F880BD00BFA2
:1002200080B582B000AFFFF7CFFF3048022100F069
:10023000E9FC2F48012100F0C5FA2E48012100F009
:10024000C1FA2D48012100F0BDFA2C4801F008F94F
:100250002A482B4901F0C2F8284B02225A65032094
:1002600004210422012300F0A5FF264B254AD26A6F
:1002700042F02002DA62234B224AD26A42F4007230
:10028000DA62204B4FF4C0621A631E4B4FF488723F
:10029000C3F804211B4B4FF4C062C3F80C21194B67
:1002A0004FF4C062C3F81021174B40F602021A60E7
:1002B0001248FE2101F00CF91048802101F008F9E4
:1002C00000237B6006E00D48202101F001F97B68E6
:1002D00001337B607B681F2BF5DD0848302101F07E
:1002E000F7F8002000F00AFFFBE700BF0300120050
:1002F0000043040000D20200400514000040084002
:10030000000000200060004000E100E080B584B003
:1003100000AF304B2F4AD2F81421C3F81C212D4BCB
:100320001B6C03F48063002B06D02B4B1B78DBB2D5
:10033000013BDAB2284B1A70264B1B6C03F4007396
:10034000002B06D0244B1B78DBB20133DAB2224BF0
:100350001A70214B1B785BB23A1D10461F491A4692
:1003600001F072FA1E48FE2101F0B2F81C4880210B
:1003700001F0AEF80023FB6006E01948202101F0EF
:10038000A7F8FB680133FB60FB68032BF5DD14481D
:10039000FE2101F09DF81248802101F099F8002318
:1003A000BB6011E03A1DBB6813441B78002B00D1E1
:1003B0000DE03A1DBB6813441B780948194601F04B
:1003C00087F8BB680133BB60BB68032BEADD1037DD
:1003D000BD4680BD00600040A0000020A0200000BD
:1003E0000040084080B487B000AFF860B9607A6020
:1003F000FB6803F10473DA00BB6813449B007B6164
:100400007B697A681A601C37BD465DF8047B7047CB
:1004100080B483B000AF1D4BDB6C03F47F031B0C77
:10042000FB71FB794A2B04D04B2B26D0482B22D0D2
:1004300025E0174B1B699BB203F03F039BB21B02E5
:10044000BB80134B9B699BB203F0F0039AB2BB884D
:100450001343BB800E4BDB6903F0F0031B099AB218
:10046000BB881343BB80BB88B3F5017F01D3094B25
:1004700006E0094B04E0084B02E0064B00E00023D5
:1004800018460C37BD465DF8047B7047B081E00F1D
:10049000D0FF0FE000366E010048E80180B485B05F
:1004A00000AF7860284BDB6B002B0CBF00230123CF
:1004B000BB72254B41F67132DA63234B5B6803F064
:1004C0000703FB60FB68012B01D9042B02D1002339
:1004D000FB7202E00123FB7200BF7A681B4B9A4259
:1004E00007D9FB7A002B01D0052300E00423FB6031
:1004F00016E07A68154B9A420BD87A68144B9A42E8
:1005000007D9FB7A002B01D0032300E00123FB6015
:1005100006E0FB7A002B01D0022300E00023FB6001
:10052000094B094A526822F00701FA680A435A60E7
:10053000BB7A002B02D0044B0022DA631437BD468D
:100540005DF8047B704700BF00000C400048E801E4
:100550000024F40080B582B000AF044B7B60786863
:10056000FFF79CFF0837BD4680BD00BF006CDC0272
:1005700080B487B000AF78607B68002B04D07B68C4
:10058000B3F5004F00D800BF7B683B613B69B3FA0D
:1005900083F3FB60FB68DBB2C3F11F037B617B6904
:1005A00018461C37BD465DF8047B704780B582B0A5
:1005B00000AF104800F074FA0346FB70FB78032B81
:1005C00007D0082B09D0022B0BD101F0EFF878608F
:1005D0000AE001F0D7F8786006E001F049F87860A9
:1005E00002E000237B6000BF7B6818460837BD46E9
:1005F00080BD00BF05231C0080B483B000AF1A4B40
:100600005B6903F4E063B3F5007F14D0B3F5007FBA
:1006100005D8002B15D0B3F5807F0FD01AE0B3F5C5
:10062000C06F14D0B3F5E06F0ED0B3F5407F11D199
:100630000E4B7B6011E00E4B7B600EE00D4B7B6040
:100640000BE00D4B7B6008E00C4B7B6005E00C4B36
:100650007B6002E000237B6000BF7B6818460C379C
:10066000BD465DF8047B704700800C4040420F009F
:10067000C0CF6A00C0D8A700809FD500406F40015E
:10068000003FAB0180B582B000AF124800F008FA1D
:100690000346FB70FB78072B0FD0082B11D100F01D
:1006A000E7FF78600C4B1B6803F4E0339B0B0133CE
:1006B0007A68B2FBF3F37B6006E0FFF79DFF78609A
:1006C00002E000237B6000BF7B6818460837BD4608
:1006D00080BD00BF0400180000800C4080B584B0CD
:1006E00000AF78607B68002B02D07B68012B00D1C3
:1006F00000BF264B9A6A7B685B0022FA03F303F083
:100700000303032B3AD801A252F823F05D0700003F
:100710001D070000250700002D07000001F032F83A
:10072000F8602EE001F042F8F8602AE0174B5B68B1
:1007300003F48073002B05D1144B1B6803F0804336
:10074000002B05D000F070FF03469B08FB6018E00B
:1007500000F06AFF03465B08FB6012E00B4B9A6AED
:100760007B6804339B0022FA03F3002B03D001F0D3
:1007700013F8F86005E00023FB6002E00023FB6053
:1007800000BFFB6818461037BD4680BD00800C4096
:1007900080B483B000AF7860094B5B6D03F0010358
:1007A000002B00D006E000BF054B1A6D7B6813409C
:1007B000002BF9D10C37BD465DF8047B704700BFB4
:1007C00000800C4090B587B000AF78600B46FB709E
:1007D00000233B617B681B0A03F00F03013B052BE1
:1007E0004AD801A252F823F00108000007080000CF
:1007F0000D0800003B080000450800004F080000FD
:100800001F4B7B6126E01F4B7B6123E01E4B7B610E
:100810001E4800F047F80446FFF7FAFD03469C42E5
:100820000AD91B481E210122FFF7DCFD19480821C7
:100830000122FFF7D7FD0DE00CE0174B7B61012390
:100840003B6107E0154B7B6110233B6102E0144BD9
:100850007B6100BF7B681B0B03F01F03FB603B69E0
:10086000002B02D03869FFF793FFFB787869F968AD
:100870001A46FFF7B7FD00E000BF1C37BD4690BD2C
:1008800008800C4044800C4040800C402000040054
:1008900000800C4004800C4058800C4060800C406C
:1008A00078800C4090B585B000AF78607B6803F429
:1008B0007813B3F5602F00F09980B3F5602F18D846
:1008C000B3F5C02F5ED0B3F5C02F08D8B3F5003F05
:1008D0003ED0B3F5802F51D0002B2BD0D6E0B3F50E
:1008E000202F62D0B3F5402F6DD0B3F5002F4ED03E
:1008F000CCE0B3F5B01F00F0AF80B3F5B01F0CD85B
:10090000B3F5901F00F09680B3F5A01F00F097801C
:10091000B3F5801F00F08180B8E0B3F5D01F00F080
:10092000AD80B3F5E01F00F0AD80B3F5C01F00F05F
:10093000A180ABE000F09CFEF860584B1B6803F40C
:10094000E0339B0B0133FA68B2FBF3F3FB60A0E0EA
:1009500000F08EFEF860514B1B6803F4E0339B0BF4
:100960000133FA68B2FBF3F3FB604C4B9B6803F076
:100970000F03FA6822FA03F3FB608AE000F054FEEA
:10098000F86086E00020FFF7A9FEF86081E0002013
:10099000FFF7A4FEF860414B9B6E03F0F0031B09C8
:1009A000FA6822FA03F3FB6073E00020FFF796FE7B
:1009B000F8603A4B9B6E03F470631B0AFA6822FAE4
:1009C00003F3FB6065E00020FFF788FEF860334B1F
:1009D0009B6E03F440531C0B1020FFF7C9FD034628
:1009E0002344FA6822FA03F3FB6052E00020FFF789
:1009F00075FEF860294B9B6E03F440531B0BFA689D
:100A000022FA03F3FB60254BDB6F03F0070301338E
:100A1000FA68B2FBF3F3FB603BE00020FFF75EFEF9
:100A2000F8601E4B9B6E03F00303FA6822FA03F38F
:100A3000FB602EE00120FFF751FEF86029E0012065
:100A4000FFF74CFEF860154B1B6F03F00303FA68C9
:100A500022FA03F3FB601CE00120FFF73FFEF86081
:100A60000E4B1B6F03F030031B09FA6822FA03F3E5
:100A7000FB600EE0FFF706FEF8600AE0FFF7BCFD42
:100A8000F86006E0FFF792FDF86002E00023FB60EB
:100A900000BFFB6818461437BD4690BD00800C406F
:100AA00080B487B000AF78600123FB754FF47053BA
:100AB0003B617B6803F00F03FB60FB68013B042B89
:100AC00000F2938001A252F823F000BFE10A000077
:100AD000170B0000530B00008F0B0000B50B00003C
:100AE000474BDA6A3B691340B3F5805F09D0B3F531
:100AF000005F03D0B3F5006F06D008E00223FB755A
:100B000008E00323FB7505E00423FB7502E00523E1
:100B1000FB7500BF6CE03A4B9B6A03F00303022BAA
:100B200006D0032B07D0012B08D10323FB750FE060
:100B30000223FB750CE00623FB7509E0304B9B6A32
:100B400003F48033002B02D00923FB7500E000BFC3
:100B50004EE02B4B9B6A03F00C03082B06D00C2BAA
:100B600007D0042B08D10323FB750FE00223FB758C
:100B70000CE00623FB7509E0214B9B6A03F480130C
:100B8000002B02D00923FB7500E000BF30E00723F3
:100B9000FB751B4B1B6803F08053002B03D0B3F194
:100BA000805F03D024E00723FB7502E00823FB7578
:100BB00000BF1DE0124BDB6A03F46033B3F5803FE6
:100BC00006D0B3F5003F06D0B3F5004F06D008E0DD
:100BD0000223FB7508E00323FB7505E00823FB7582
:100BE00002E00123FB7500BF02E00023FB7500BF9C
:100BF000FB7D18461C37BD465DF8047B704700BF7F
:100C000000800C4090B589B000AF78600B46FB7057
:100C10000323FB610323FB7600237B617B6803F0E6
:100C20000F03FB60FB68013B042B00F22A8101A249
:100C300052F823F0490C0000150D0000150D0000BE
:100C4000F10D00001B0E0000FB78023B072B00F2A9
:100C50001A8101A252F823F0790C0000830C0000E5
:100C60008D0C0000E10C0000870E0000870E0000D4
:100C7000870E0000EB0C00000423FB610023FB76D1
:100C800034E00323FB610123FB762FE00223FB61A9
:100C90000223FB7600F064FD0446FFF7B9FB034630
:100CA0009C4213D97B4A7B4B1B6843F0804343F043
:100CB00060031360774B1B6C03F01003002B0ED006
:100CC000754808210122FFF78DFB0FE0714B714A37
:100CD000126822F0600242F020021A6006E005E08D
:100CE0000123FB610323FB7600E000BFFB7E184677
:100CF0000121012200F0D4F8FFF72CFC654BFA69C2
:100D00005A6200F049FA00F08FFCB860B868FFF74B
:100D1000C5FBBBE0FB78013B082B00F2B68001A2CB
:100D200052F823F0490D00004F0D00005F0D000048
:100D30008B0E00008B0E00006F0D00008B0E00006C
:100D40008B0E0000A70D000000233B6130E0002067
:100D50000121012200F0A4F802233B6128E00120D8
:100D60000121012200F09CF801233B6120E04B4867
:100D700004210122FFF736FB03233B6100F054FC02
:100D8000B860FFF745FB0246BB689A420AD2414869
:100D90001E210122FFF726FB3F4808210122FFF711
:100DA00021FB05E004E000233B6101237B6100BFE0
:100DB000FB68022B0DD1374A364B9B6A23F48033F4
:100DC00023F00303396919437B691B040B439362C6
:100DD0005CE0304A2F4B9B6A23F4801323F00C0312
:100DE0003969890019437B691B050B4393624DE008
:100DF000FB78072B02D0082B07D047E0254B254A6C
:100E0000126822F080521A6006E0224B214A1268D2
:100E100042F080521A6000BF38E0FB78032B14D0F8
:100E2000082B22D0022B00D030E00020012101222B
:100E300000F036F8174B40225A6200BF154BDB6AB0
:100E400003F48033002BF9D01AE0012001210122A4
:100E500000F026F80F4B60225A6200BF0D4BDB6A90
:100E600003F40033002BF9D00AE00A4B20225A6227
:100E700000BF084BDB6A03F40043002BF9D000BF2E
:100E800004E000BF02E000BF00E000BF2437BD4621
:100E900090BD00BF00800C4004800C4040800C409E
:100EA00080B586B000AF13460246FA710A46BA71A1
:100EB0007B71FB79052B4CD801A252F823F000BFBF
:100EC000110F0000030F0000E70E0000D90E000014
:100ED000F50E0000530F000001233B610223FB606D
:100EE00002237B611EE004233B610823FB6008238F
:100EF0007B6117E010233B612023FB6020237B6193
:100F000010E040233B618023FB6080237B6109E08C
:100F10004FF480733B614FF40073FB604FF4007338
:100F20007B6100BFBB79002B0DD00C4B3A691A6274
:100F30007B79002B0AD000BF084BDA6A7B6913402B
:100F4000002BF9D002E0054BFA681A6200F024F990
:100F500000E000BF1837BD4680BD00BF00800C40D8
:100F600080B500AF00F060FB80BD00BF80B400AF73
:100F7000034B0022C3F88420BD465DF8047B704714
:100F800000800C4080B400AF044B45F60E02C3F85D
:100F90008420BD465DF8047B704700BF00800C4094
:100FA00080B584B000AF394BD3F8843003F001032F
:100FB000FB60FFF7E7FF0023BB60354B1B6803F0C6
:100FC0000103BA681343BB60314B1B6803F0100385
:100FD000BA681343BB602E4B1B6803F04003BA682A
:100FE0001343BB602A4B1B6803F00403BA68134326
:100FF000BB60274B1B6803F48073BA681343BB6064
:10100000224BBA681A624FF470537B60204B1A6807
:101010007B681340B3F5805F06D0B3F5005F0ED058
:10102000B3F5006F16D020E000BF184BDB6A03F069
:101030008003002BF9D0154B03225A6215E000BF44
:10104000124BDB6A03F40073002BF9D00F4B042220
:101050005A620AE000BF0D4BDB6A03F00803002B65
:10106000F9D00A4B02225A6200BF094B1B6803F0F9
:101070000103002B02D1054B02221A62FB68002BF0
:1010800001D0FFF773FF1037BD4680BD00800C40D4
:10109000A400002080B483B000AF174B1B699BB243
:1010A00003F03F039BB21B02FB80134B9B699BB277
:1010B00003F0F0039AB2FB881343FB800E4BDB690D
:1010C00003F0F0031B099AB2FB881343FB80FB88F3
:1010D000B3F5827F03D3FB88B3F5017F01D10123F0
:1010E00000E0002303F00103DBB218460C37BD46D5
:1010F0005DF8047B704700BFD0FF0FE080B586B07D
:1011000000AF0346FB711F4BDA6A1F4B1A601F4B7F
:101110001E4A126942F004021A61FFF7BBFF034640
:10112000FB75FB7D002B11D0194B1A68194B13402E
:10113000FB60174BFA68C3F88020154B5B6823F0FF
:1011400046033B61124B3A69C3F8842030BFFB7DF4
:10115000002B05D00E4BFA681A600D4B3A695A60A5
:10116000FB79002B02D0FFF71BFF07E0064B1B6843
:1011700003F48063002B01D1FFF7F2FE1837BD4660
:1011800080BD00BF00800C40A400002000ED00E006
:1011900000E100E09CF1FD0080B400AF034BDA6A8F
:1011A000034B1A60BD465DF8047B704700800C401D
:1011B000A400002090B484B000AFB9607B60034607
:1011C000FB731346BB73FB7B052B03D8BB680F2B4C
:1011D00000D800BFBB7B002B1FD07B68002B0ED03C
:1011E0004448FA7BBB68012101FA03F31946134610
:1011F000DB0013449B000344103319600DE03D48AD
:10120000FA7BBB68012101FA03F319461346DB00A0
:1012100013449B00034410335960BB68072B1DD84F
:101220003448FA7B334CF97B0B46DB000B449B00C4
:1012300023445968BB689B000F2404FA03F3DB4383
:101240001940BC7BBB689B0004FA03F319431346A7
:10125000DB0013449B000344596024E02548FA7BDB
:10126000244CF97B0B46DB000B449B0023440833E2
:101270001968BB6803F18043083B9B000F2404FA04
:1012800003F3DB431940BC7BBB6803F18043083B9D
:101290009B0004FA03F319431346DB0013449B003D
:1012A000034408331960BB7B002B1FD17B68002BE4
:1012B0000ED01048FA7BBB68012101FA03F31946EE
:1012C0001346DB0013449B000344103319600DE008
:1012D0000848FA7BBB68012101FA03F3194613465B
:1012E000DB0013449B000344103359601037BD46A4
:1012F00090BC70470060004080B483B000AF78605D
:1013000039607B681B6C03F00103002B00D006E002
:1013100000BF7B685A6C3B681340002BF9D10C3737
:10132000BD465DF8047B704780B586B000AFF860BD
:10133000B9607A60BB68002B12D1FA68164B9A42EA
:1013400002D1164B7B6107E0FA68154B9A4202D135
:10135000144B7B6100E01BE07869FFF7A3FAB860EB
:10136000BB685A017B68B2FBF3F33B613B69203BEE
:101370003B613B69DB003B613A6947F6F873134018
:101380003B61F8680421FFF7B7FFFB683A69DA6050
:101390001837BD4680BD00BF00400840400514001E
:1013A000004408404015160080B483B000AF786058
:1013B0000B46FB70FB78002B08D000BF7B685B6C92
:1013C000002BFBD17B6801221A6402E07B680022BB
:1013D0001A640C37BD465DF8047B704780B582B057
:1013E00000AF786039607A681B4B9A4203D07A6804
:1013F0001A4B9A4200D100BF78680221FFF77CFFA8
:101400007B680A225A6078680121FFF7CDFF7B686C
:101410001B6823F01C023B681B7B1A433B685B7B09
:101420001A433B689B7B1A437B681A603B685A6887
:101430003B689B68786811461A46FFF775FF3B6862
:101440001B781A467B685A6078680021FFF7ACFF6A
:101450000837BD4680BD00BF00400840004408403A
:1014600080B582B000AF78607A68174B9A4203D09B
:101470007A68164B9A4200D100BF78680121FFF7C5
:1014800093FF7B68EA225A607B6800221A607B68BF
:101490000022DA607B6800221A617B6800225A61B0
:1014A0007B6800229A637B6840F2F9725A637B681A
:1014B0000022DA637B6800225A6578680021FFF712
:1014C00073FF0837BD4680BD004008400044084017
:1014D00080B582B000AF78600B46FB7000BF7B68C0
:1014E0009B6803F01003002BF9D078684021FFF7C8
:1014F00003FFFA787B689A620837BD4680BD00BF5B
:1015000080B485B000AF7860194B5B69DBB203F043
:101510000F03DBB29B00FB73154B1B6903F0C00389
:101520009B09DAB2FB7B1343FB737B68FA7B9A70EF
:101530000F4B1B69DBB203F03F03DAB27B685A70D2
:101540000B4B9B69DBB223F00F03FB73084BDB698A
:1015500003F0F0031B09DAB2FB7B1343FB737B68D8
:10156000FA7B1A701437BD465DF8047B704700BFE4
:10157000D0FF0FE0074880470749084A084B9B1AED
:1015800040F30580043BC858D0503FF7FBAF0548F7
:101590000047000079170000EC2000000000002048
:1015A0008400002055010000FEE7FEE7FEE7FEE7AD
:1015B000FEE7FEE7FEE7FEE7FEE7FEE7FEE7FEE703
:1015C000FEE7FEE7FEE7FEE7FEE7FEE7FEE7FEE7F3
:1015D000FEE7FEE7FEE7FEE7FEE7FEE7FEE7FEE7E3
:1015E000FEE7FEE7FEE7FEE7FEE7FEE7FEE7FEE7D3
:1015F000FEE7FEE7FEE7FEE7FEE7FEE7FEE7FEE7C3
:10160000FEE7FEE7FEE7FEE7FEE700BF80B400AFBF
:10161000044BDB6C1B0EDBB21846BD465DF8047B49
:10162000704700BFB081E00F80B582B000AF00F01E
:101630001FF878600C4B1B6803F4E0339B0B0133FD
:101640007A68B2FBF3F37B60074B5B6803F00F0330
:101650007A6822FA03F37B60044B7A681A607B682D
:1016600018460837BD4680BD00800C40B4000020FD
:1016700080B582B000AF2F4BDB6A03F47053B3F533
:10168000805F0AD0B3F5005F03D0B3F5006F08D0D8
:101690000BE0294B1B687B6047E04FF400437B6005
:1016A00043E0264B1B687B603FE0224BDB6803F482
:1016B000E063B3F5007F1BD0B3F5007F05D8002BA6
:1016C00024D0B3F5807F16D02BE0B3F5806F09D01E
:1016D000B3F5A06F03D0B3F5407F06D021E0184BDF
:1016E0007B6021E0174B7B601EE0174B7B601BE0AB
:1016F000164B7B6018E0FFF789FF0346122B02D9D7
:10170000134B7B6010E0134B7B600DE0FFF77EFF17
:101710000346122B02D9104B7B6005E00F4B7B6018
:1017200002E000237B6000BF00BF7B6818460837DB
:10173000BD4680BD00800C40140000201000002039
:10174000003FAB01406F4001809FD500C0D8A7008B
:1017500040B56400C0CF6A00804F120040420F00C5
:1017600080B400AF034B1B681846BD465DF8047B90
:10177000704700BF1000002080B400AFBD465DF888
:10178000047B704780B400AF4FF400431846BD4659
:101790005DF8047B704700BF80B400AF4FF47A73EC
:1017A0001846BD465DF8047B704700BF80B400AFAB
:1017B000034B1B681846BD465DF8047B704700BFAD
:1017C0001400002008B5074B044613B10021AFF305
:1017D0000080054B1868836A03B19847204600F0E3
:1017E00051FC00BF00000000A820000070B50E4BA7
:1017F0000E4D0024ED1AAD101E46AC4204D056F832
:10180000242090470134F8E700F03EFC084D094BD6
:101810000024ED1AAD101E46AC4204D056F8242028
:1018200090470134F8E770BD7C0000207C00002068
:10183000800000207C00002002440346934202D036
:1018400003F8011BFAE770470EB400B54FF40271BC
:101850009CB0ADF814106FF00041049107914FF661
:10186000FF711DABADF81610084953F8042B029018
:101870000690086802A9019300F066F8029B002216
:101880001A701CB05DF804EB03B0704778000020BC
:101890002DE9F0478D688146AB420C4692461F46C3
:1018A00043D38B8913F4906F3DD0266809690222D7
:1018B000C1EB0608666906EB460696FBF2F608F1F0
:1018C00001023A44964238BF16465B050FD53146B1
:1018D00000F022FB054698B12169424600F0B4FAB7
:1018E000A38923F4906343F08003A38113E032467D
:1018F00000F066FB054670B94846216900F0C8FA59
:101900000C23C9F80030A3894FF0FF3043F04003A7
:10191000A381BDE8F087256166614544C8EB0606F2
:101920002560A6603D46AF4200D23D462A4620686B
:10193000514600F092FAA36800205B1BA360236865
:101940001D442560BDE8F0872DE9F0439DB0039369
:101950008B8907461C060D4616460CD50B6953B9F4
:10196000402100F0D9FA2860286110B90C233B60AF
:10197000C7E040236B610023099320238DF82930B1
:1019800030238DF82A3033461C4613F8012B1AB940
:10199000B4EB06090FD002E0252AF5D1F8E7384666
:1019A000294632464B46FFF773FF013000F0A48012
:1019B000099B4B4409932378002B00F09D80002362
:1019C0004FF0FF3204930793059206938DF853303E
:1019D0001A9304F101094D4E4C46304621780522F8
:1019E00000F024FA09F10109049B28B1861B0120AB
:1019F000B04003430493EEE7D90644BF20228DF89C
:101A000053201A0744BF2B228DF8532022782A2A0C
:101A100002D0079B21460EE0039A111D1268039124
:101A2000002A01DB079204E0524243F002030792CE
:101A3000049301340AE00C4622780131303A092A35
:101A400003D80A2000FB0323F5E7079323782E2B06
:101A500019D163782A2B09D1039B02341A1D1B6804
:101A60000392002BB8BF4FF0FF330BE0611C002343
:101A70000C4622780131303A092A03D80A2000FBAB
:101A80000323F5E70593224E21783046032200F028
:101A9000CDF930B1861B4020B040049B0134034394
:101AA000049321781B480622661C8DF8281000F04C
:101AB000BDF988B1184B33B9039B073323F00703F3
:101AC0000833039314E003AB0093384604A92A4675
:101AD000124BAFF3008007E003AB0093384604A934
:101AE0002A460E4B00F08EF8B0F1FF3F804603D03F
:101AF000099B4344099346E7AB895B0601D40998E7
:101B000001E04FF0FF301DB0BDE8F083AC200000D5
:101B1000B2200000B6200000000000009118000074
:101B20002DE9F84315461F468A680B6906469A4216
:101B3000A8BF13462B6091F843200C46DDF82080A7
:101B40000AB101332B602368990602D52B68023352
:101B50002B60236813F006091DD094F843302268E7
:101B6000003318BF012392061FD5E118302081F8F9
:101B700043005A1C94F845102244023382F8431063
:101B800013E03046394604F119020123C047013001
:101B900007D009F10109E2682B68D31A9945F0DBF7
:101BA000DBE74FF0FF30BDE8F8833046394604F1FB
:101BB0004302C0470130F4D023682A6803F00603CB
:101BC000E168042B08BFC2EB01052369A2680CBFC2
:101BD00025EAE57500259A42C4BFC3EB0203ED1860
:101BE0004FF00009A9450ADA3046394604F11A02D5
:101BF0000123C0470130D4D009F10109F2E70020E8
:101C0000BDE8F8832DE9FF470E7E80466E2E0C4618
:101C100091469A460C9D01F1430000F0A58011D831
:101C2000632E22D009D8002E00F0AF80582E40F04D
:101C3000BF8081F845607B4A4FE0642E1ED0692E3C
:101C40001CD0B5E0732E00F0A48009D86F2E2BD0E5
:101C5000702E40F0AD800B6843F020030B6038E03D
:101C6000752E21D0782E34D0A2E02B6801F14207E6
:101C70001A1D1B682A6081F842309DE022682B689B
:101C800012F0800F03D01A1D2A601D6805E051066E
:101C9000F9D51A1D2A60B3F90050002D39DA2D2329
:101CA0006D4284F8433034E022682B6812F0800FD4
:101CB00003D01A1D2A601D6804E05206F9D51A1DCA
:101CC0002A601D88237E574A6F2B14BF0A230823DE
:101CD0001BE07823544A84F845302368296813F0C0
:101CE000800F01F104062E6001D00D6802E05F064E
:101CF000FBD50D88DE0744BF43F0200323601DB9E8
:101D0000236823F0200323601023002184F843106C
:101D100001E0444A0A236668002EA66003DB2168BE
:101D200021F00401216005B96EB104F14201B5FB57
:101D3000F3F603FB1655555D0F4601F8015935467C
:101D4000002EF4D100E00746082B0AD12368DD07F6
:101D500007D5626823699A4203DC302307F8013C07
:101D6000013FC01B20612CE009682B6811F0800F37
:101D7000626904D0191D29601B681A6005E04906D4
:101D8000F8D5191D29601B681A80002323610746B6
:101D900017E02B681A1D2A601F68384600F046F9C4
:101DA00063682061984288BF23612369636005E00E
:101DB00004F1420784F8426001232361002384F880
:101DC0004330CDF800A04046214603AA4B46FFF71A
:101DD000A7FE013002D14FF0FF301FE040464946D8
:101DE0003A462369D0470130F5D023689B0705D4D4
:101DF000E068039B9842B8BF18460FE00025E268F0
:101E0000039BD31A9D42F3DA4046494604F1190276
:101E10000123D0470130DED00135F0E704B0BDE842
:101E2000F08700BFBD200000CE20000010B5C9B271
:101E300002449042034605D01C7801308C42F8D110
:101E4000184610BD002010BD10B50023934203D0EA
:101E5000CC5CC4540133F9E710BD814270B501D3A5
:101E600000230EE08C18A042FAD28518134613F115
:101E7000FF3305D351426618F65C2944CE54F6E789
:101E800070BD934203D0CC5CC4540133F9E770BDFC
:101E900030B500293CD051F8042C0B1F1D49002AF5
:101EA000B8BF9B180A680C4612B95A600B6030BD67
:101EB00093420DD219685818904203D15A581144D0
:101EC000426819605A60236030BD994203D80A46BF
:101ED00051680029F9D1146815199D420AD11B686F
:101EE0002344D0188842136012D108680344136059
:101EF0004B680CE002D90C23036030BD18681C1835
:101F00008C4203D10C6849682044186059605360C2
:101F100030BD00BFAC00002070B5CD1C25F003051E
:101F200008350C2D38BF0C25002D06463FDB8D42B1
:101F30003DD3214B1C6818462146A1B10B685B1BA1
:101F40000ED40B2B03D90B60CC18CD501FE08C4264
:101F500002D1626802601AE04B6863600C4616E0CA
:101F60000C464968E9E7154C23681BB9304600F078
:101F70004DF820602946304600F048F8431C0146E1
:101F800015D0C41C24F0030484420AD1256004F156
:101F90000B00231D20F00700C31A0BD05A42E25059
:101FA00070BD3046611A00F031F80130EED10C23DB
:101FB0003360002070BD00BFAC000020A8000020EE
:101FC000F8B5064614460D4621B91146BDE8F8405D
:101FD000FFF7A2BF1AB9FFF75BFF2046F8BD00F07C
:101FE0002DF8A0420ED230462146FFF795FF074656
:101FF00050B129462246FFF727FF30462946FFF712
:1020000047FF01E02846F8BD3846F8BD38B5064C14
:10201000002305460846236000F01AF8431C02D14D
:10202000236803B12B6038BDB8000020034613F8C5
:10203000012B002AFBD1181A0138704751F8040C03
:10204000002802DA04390B5818440438704700009D
:10205000094A136863B118446946884202D810607F
:1020600018467047054B0C221A604FF0FF3070473E
:10207000034B1360EFE700BFB0000020B800002062
:10208000C0000020FEE700BFF8B500BFF8BC08BCE8
:102090009E467047F8B500BFF8BC08BC9E46704726
:1020A000256400004300000018000020232D302B81
:1020B0002000686C4C006566674546470030313249
:1020C00033343536373839414243444546003031A0
:1020D00032333435363738396162636465660000FF
:0420E00000000000FC
:0820E40070E0FF7F0100000025
:1020EC00040000000000000080250000000000003B
:1020FC00006CDC020080000000000000000000000A
:10210C0000000000000000000000000000000000C3
:10211C000000000000000000A420000000000000EF
:10212C0000000000000000000000000000000000A3
:10213C000000000000000000000000000000000093
:10214C000000000000000000000000000000000083
:10215C000000000000000000180000202501000015
:04216C00010100006D
:04000003000015756F
:00000001FF
