:020000040001F9
:10B0000098300020F5B001000FB1010011B101002E
:10B010000000000000000000000000000000000030
:10B0200000000000000000000000000013B101005B
:10B03000000000000000000015B1010017B1010080
:10B0400019B1010019B1010011B9010019B10100D4
:10B0500019B101000000000029B7010019B1010079
:10B0600019B1010019B1010019B1010019B10100B4
:10B0700019B1010019B1010019B1010019B10100A4
:10B0800019B1010075B8010019B1010019B1010031
:10B0900095B8010019B101009DB8010019B1010076
:10B0A00019B1010019B1010000000000000000000A
:10B0B0000000000000000000000000000000000090
:10B0C0000348854600F08AFA0048004799EC0100E1
:10B0D00098300020401E00BF00BF00BF00BF00BF6F
:10B0E00000BF00BF00BF00BF00BF00BF00BFF1D165
:10B0F000704700000321094802680A4302600848BB
:10B1000002680A4302600748804707480047FEE795
:10B11000FEE7FEE7FEE7FEE7FEE70000240500404D
:10B1200054050040BDB80100C1B0010030B50B4668
:10B13000014600202022012409E00D46D5409D4211
:10B1400005D31D469540491B254695404019154697
:10B15000521E002DF1DC30BD70B5002425460028BC
:10B1600001DA01244042002901DA01254942FFF7B2
:10B17000DDFFAC4200D04042002C00D0494270BDFF
:10B1800003460B439B0703D009E008C9121F08C000
:10B19000042AFAD203E00B780370401C491C521EAB
:10B1A000F9D27047D2B201E00270401C491EFBD2B6
:10B1B00070470022F6E710B513460A4604461946C2
:10B1C000FFF7F0FF204610BD421C0178401C00290B
:10B1D000FBD1801A704730B504460020034600E0DA
:10B1E0005B1C934203D2E05CCD5C401BF8D030BDC9
:10B1F000F0B51FB40646002082B0054640240191F8
:10B2000000901BE0019922460F46304600F008FAF4
:10B21000049A059B801A994110D31046194622467C
:10B2200000F0EEF9361A8F410197224601200021E5
:10B23000009F00F0E5F938184D4100902046641E4B
:10B240000028DFDC019B00982946324607B0F0BD9C
:10B25000F0B507460846584087B0C00F0490480034
:10B260000E46590040084908BC1A884105D23846A4
:10B2700031461E4617460B4602465800400810430A
:10B280004CD0300D039040055900400D490D0590FC
:10B29000401A0290402872DA18030121000B0905B8
:10B2A0000843019004980092002805D00199524269
:10B2B0000020884100920190029840210A1A0199C9
:10B2C000009800F09DF905460C466B4607CB00F050
:10B2D000B8F9C0197141039A0E0D0023D7175640D3
:10B2E0001A467A40164344D0049A002A2DD0029A76
:10B2F000012A039A15DC1205C01A91410126360570
:10B30000001C7141D20F059ED20700930192029654
:10B310002A46234600F0B5F907B0F0BD384631465D
:10B32000FAE71605224A0F46B218C01AB7410121A2
:10B330000905001C4F4100187F411146181879413A
:10B34000E20F10436D19644113E0E2076D081543E5
:10B350006408C2071443039A01261205C01A9141DA
:10B360003605001C7141CE07400830434908C0181B
:10B3700051412A46234600F077F9CDE7FFE70498CC
:10B3800001224000C117121A00238B410498314654
:10B39000C417381AA141EEE730B40124E407634032
:10B3A00030BC55E730B40124E407614030BC4FE7BE
:10B3B0000000E0FFF0B51FB488B00B990998002495
:10B3C00048400999C00F490049080991C0070B99E5
:10B3D0000090490049080B9109990898A64608432E
:10B3E0001CD00B990A98084318D0099801244000F2
:10B3F000420D4800410D099824050003000B20432D
:10B4000009900B980003000B20430B9050181C4927
:10B410004018002201901446104605E00020014625
:10B420000DB0F0BD032801DA034600E003239C467B
:10B43000C11A0AAE0AE05F0008ADED5B4F00F75B92
:10B440007D430027AA187C41491C5B1E6145F2DD43
:10B45000410004AB5A522104120C0A43240C401C34
:10B460000828DFDB01980290009970460191009056
:10B47000059B049A0799069800F003F9D0E70000AD
:10B480000DFCFFFFF0B50C465C4085B0E40FE4070F
:10B4900003944C000026640859009446490802466B
:10B4A0000296224321D062460A431ED06200570D05
:10B4B0004A000E032303550D012402462C4924059E
:10B4C000781B1B0B360B4018234326436146009024
:10B4D0001C46501AB44103D30098401C009002E06F
:10B4E000921800985B41002803DA0020014605B05D
:10B4F000F0BD0020012109050746864611E064469B
:10B500001D46141BB54106D36546521BB341744614
:10B5100007430C43A646CD07400849082843921824
:10B520005B4105460D43EAD11046184313D06046EF
:10B53000194650407140084306D06046101AB34186
:10B5400006D20122002306E000220123DB0702E0ED
:10B550000122D2435310009874460105381C614102
:10B56000029C039D0019694100F07EF8BFE70000CE
:10B57000FD0300004A0009030123090B1B051943C1
:10B580000A4B10B5520D9A4202DA0020014610BD56
:10B59000064B34339A4203DC9A1A00F041F810BD8E
:10B5A000034BD21800F02CF810BD0000FF03000080
:10B5B000CDFBFFFF10B5002904DB0124E407404266
:10B5C0008C412146002B04DB1C460123DB07524241
:10B5D000A341994200D1904210BD0000064C0125C4
:10B5E000064E05E0E36807CC2B430C3C984710342B
:10B5F000B442F7D3FFF768FDF0060200100702001F
:10B6000010B5202A04DB0146203A9140002010BDED
:10B61000914020239C1A0346E3401943904010BDFB
:10B6200010B5202A04DB0846203AD040002110BD86
:10B630000B46D340D0402024A21A9140084319461B
:10B6400010BD10B5202A06DBCB170846203A104162
:10B65000C1170B4306E00B461341D0402024A21A29
:10B6600091400843194610BD10B5002B08DA00249C
:10B67000401C614192185B411A4301D140084000CF
:10B6800010BDF0B51FB482B005460C0003D00846CB
:10B6900000F056F902E000F053F920300246009025
:10B6A00021462846FFF7ACFF049B059A04460F4647
:10B6B00018431143084314D0184610431BD0009878
:10B6C00040210A1A18460599FFF7AAFF05460E46BB
:10B6D000009A05990498FFF793FF084305D00120CD
:10B6E00004E02046394607B0F0BD0020C1170543ED
:10B6F0000E432C43374300990E986305401A790591
:10B70000E40A00220C43FD0A0A3002D5002001465B
:10B71000E9E70105101969410C9C0D9D001969416B
:10B72000FFF7A2FFDFE70000F8B50024FF25013591
:10B73000012627460094284603F0A2FE002808D0E0
:10B7400034484068304204D033480021281834433C
:10B7500001602D1D76007F1CADB2042FEBD3FF20BE
:10B760007D3003F08DFE002807D02C4800210160B9
:10B77000400704432A48006900902A4F200712D04E
:10B780000126002526420AD02748AA001118086978
:10B790000969C004C00E8903BA58890F9047760022
:10B7A0006D1C042DEED3002C30DA00241D4E002138
:10B7B000301940304156491C25D00778BD06AD0EE2
:10B7C000284601F07DFF80003658002E1BD0BF09AF
:10B7D0000121A940154AA80080180068009A80033A
:10B7E000800F114202D0022802D00CE003280AD1B7
:10B7F000032F05D102280AD00221284603F030FE8B
:10B8000039462846B047641C042CCFD3F8BD032129
:10B81000F3E7000000630040006000407C610040EE
:10B820000005005010270020006500400007005070
:10B830008307FF22DB0E9A408907090E99400028F2
:10B840000BDA0007000F0838830808489B00181817
:10B85000C36993430B43C3617047830804489B004B
:10B860001B181868904308431860704700ED00E00B
:10B8700000E400E010B506490020086048608860D8
:10B88000C860034940390860486004F04DFC10BDB1
:10B890004011014010B504F0DDFB10BD10B50648A5
:10B8A0004068002805D08047002801D000F058FEED
:10B8B00010BD03F05DF810BDD41F002010B503F0DB
:10B8C000A1F8002805D00E490C484860C8130D495E
:10B8D00088610D48018CC9B201290ED1818C0907FC
:10B8E0000BD1018D0906090F042906D1808D0006B0
:10B8F000000F02D105490120886010BDDFFF07C09D
:10B9000000050040006C0040C00F00F00006004041
:10B9100010B504F0D3FC10BD0FB410B504A9074B4B
:10B9200002AA039800F0ECF8044602A9002000F0F7
:10B9300083FC204610BC08BC04B0184739C2010083
:10B940002021020C01D010211046020A01D010461D
:10B950000839020901D01046091F820801D010469B
:10B96000891E420801D0881E7047081A704730B4FB
:10B970007446641E2578641CAB4200D21D46635D8C
:10B980005B00E31830BC184702E008C8121F08C16A
:10B99000002AFAD170477047002001E001C1121F50
:10B9A000002AFBD170470000F0B51FB484B007989F
:10B9B0000699020D014314D04A484B4910184843D8
:10B9C00005140F9801280E981CD0281A401C00243A
:10B9D000464E4749009401910290002814DA4742EC
:10B9E00027E00F98012443A3012808D000210498E0
:10B9F0000F9A84600360C260416009B0F0BD0E9888
:10BA0000C143F4E74042E2E7074612E0F80707D0F7
:10BA10002246334601990098FFF7CCFC0191009033
:10BA20002246334610461946FFF7C4FC04460E462C
:10BA30007F10002FEAD10298019B0028009A0799F5
:10BA4000069802DAFFF7B6FC01E0FFF71BFD04469B
:10BA50000E460022284BFFF7ADFD03D80020C0435F
:10BA6000014607E00022254B20463146FFF7F0FB58
:10BA7000FFF780FD102409E0002C0ADB0A220023D6
:10BA8000FFF7B6FB059B30321A55641E02460A4387
:10BA9000F2D11122641C059B121B1C190F9B012B58
:10BAA00003D0012308430ED10AE0084304D011203B
:10BAB0000E9000200F9084E70E98151A6D1E0BE073
:10BAC0000E98824202DD00236D1C03E0824201DAFF
:10BAD00000236D1E002BEED004980F998260C16088
:10BAE00030C08AE701FCFFFF104D00000000244039
:10BAF0000000F03F300000000000F0430000E03F95
:10BB0000FFB597B00646002518E2252877D1002416
:10BB10002746FD49049400E00443761C3278012056
:10BB2000203A90400842F7D130782A280ED00222DD
:10BB3000307801463039092916D804990A23594327
:10BB4000303940181443761C0490F1E7189802C865
:10BB500004911890002904DA01204003044348426C
:10BB6000049002200443761C30782E2814D104203F
:10BB700004437078761C2A2809D11898761C80C84E
:10BB8000189009E00A214F43303FC719761C3078DE
:10BB9000014630390929F5D930786C2810D006DCF7
:10BBA0004C281AD068280ED06A2817D104E07428CF
:10BBB00013D07A2812D110E00120400504430CE094
:10BBC0000121090501E0032109050C437178814237
:10BBD00003D1012000052418761C761C30781190C2
:10BBE00066280BD013DC58287DD009DC00287BD0D8
:10BBF0004528F6D04628F4D047281AD1A5E118E008
:10BC0000632835D0642870D0652812D19DE1702852
:10BC10006CD008DC6728F1D069287BD06E280DD065
:10BC20006F2806D1BAE073282ED0752871D07828F5
:10BC300059D01A9A199990476D1C7EE16002400F05
:10BC4000022809D003280DD00428189801680DD0C7
:10BC50000D60001D189070E11898EA1701680D60DA
:10BC60004A60F6E7189801680D80F2E70D70F0E77A
:10BC700018986A4601781172001D189000205072C1
:10BC800002A80090012005E0189802C81890002032
:10BC90000091C04361070DD5002101E00199491CC5
:10BCA0000191B94212DA8142F8DB009A515C002915
:10BCB000F4D10BE0002101E00199491C019181427E
:10BCC000FADB019A0099895C0029F5D10199049861
:10BCD0001A9B471A21463846199A00F097FA01999B
:10BCE000401945180BE04FE02CE113E04EE00098BE
:10BCF00000990078491C00911A9A19999047019867
:10BD0000401E0190401CF2D1214638461A9B199AD8
:10BD100010E137E00A200021009001916002410FFC
:10BD2000022907D0189A01CA1892C217944603290B
:10BD300008D00AE01898C01DC108C90005C91891AB
:10BD4000944607E000B2C2179446042902D140B2DB
:10BD5000C1178C4600226146944506DA0A46002146
:10BD6000404291418C462D2102E0210504D52B2132
:10BD70006A461173012103E0E10701D02021F7E7B2
:10BD8000029155E00A200AE0102008E010200090FF
:10BD90000021042004430191082703E0082000212A
:10BDA000019100906002410F022907D0189A01CA40
:10BDB000189200229446032908D008E01898C01D64
:10BDC000C108C90005C91891944603E080B204294E
:10BDD00000D1C0B200210291210729D51199702903
:10BDE00006D0009A1021019B4A401A4305D00EE06C
:10BDF00040216A461173012108E06146014306D0E3
:10BE000030216A4611731199517302210291009AEF
:10BE10000821019B4A401A430AD16146014301D1DE
:10BE2000610705D530216A46117301217F1E0291F9
:10BE30001199582904D035A10E910DA90D910DE04D
:10BE400037A1F9E76146019B009AFFF7D1F90E9BF4
:10BE50008C469B5C0D9A521E0D92137061460143F5
:10BE6000F0D10D9805A9081A20300190600703D57C
:10BE700001200004844300E001270198874201DD8E
:10BE8000381A00E000200199009041180298091822
:10BE90000498401A0490E00306D421461A9B199A8C
:10BEA000049800F0B3F94519002706E003A81A9A90
:10BEB000C05D199990476D1C7F1C02988742F5DB85
:10BEC000E0030CD521461A9B199A049800F09EF9BC
:10BED000451904E01A9A3020199990476D1C009971
:10BEE000481E00900029F5DC08E00D980D990078B7
:10BEF000491C0D911A9A199990476D1C0199481E79
:10BF000001900029F1DC63E109280100303132336E
:10BF10003435363738396162636465660000000085
:10BF2000303132333435363738394142434445466F
:10BF30000000000000F05AF94519761C30780028FE
:10BF400000D0E2E528461BB0F0BD600700D406270C
:10BF50001898C01DC108C90048680A680831C30F95
:10BF6000DB071891190001D09CA108E0210501D53B
:10BF70009BA104E0E10701D09AA100E09AA143004F
:10BF800011985B08109165280CD006DC452809D073
:10BF900046281DD0472841D141E0662818D067289F
:10BFA0003CD13CE00021112F01DB112000E0781C86
:10BFB0000191009008A911A8FFF7F6FC13990591CB
:10BFC0000021119A15927F1C12980197009150E060
:10BFD0000120C00703900120019008A9009711A833
:10BFE000FFF7E2FC139A149905920022119B00922C
:10BFF00012981593059A0192002901D0104602E08B
:10C00000791C40180190381A01D5019804E040428B
:10C01000401E0090781C0190C01B029043E0012F4D
:10C0200000DA01270021112F01DD112000E0384640
:10C030000191009008A911A8FFF7B6FC139905918A
:10C04000119A0021129815920091019721070CD4A2
:10C050000599B94201DB019900E00191012904DD54
:10C06000159A491E515C302906D0B84201DA011DEB
:10C0700005DA0121029115E00199491EEDE700283A
:10C0800005DC0099411800910199091A03E0019A11
:10C09000411C914200DD01910099401A401C029020
:10C0A0000120C0070390200706D40299019881421D
:10C0B00002DB0020C043029000206946C87707AF2A
:10C0C000012103980337C907884224D00220119028
:10C0D0002B201290039800280CDA404203902D2068
:10C0E000129007E00A210398FFF720F830317F1EF5
:10C0F000039039701199481E11900029F2DC0398C1
:10C100000028EFD1791E129808703078202108405D
:10C110004530BF1E387006A8C01BC01D0390109884
:10C120000078002800D00120019941180298C0171A
:10C130000918039809180498401A401E0490E00357
:10C1400006D421461A9B199A049800F05FF8451905
:10C1500010980078002803D01A9A199990476D1CFE
:10C16000E00324D521461A9B199A049800F04EF852
:10C1700045191CE00098002807DB009905988842C3
:10C1800003DD1598405C199901E0199930201A9A3D
:10C19000904700986D1C401C00900298401E029031
:10C1A000002804D11A9A2E20199990476D1C0199E4
:10C1B000481E01900029DDDC05E038781A9A7F1CC2
:10C1C000199990476D1C0399481E03900029F4DCCF
:10C1D00021461A9B199A0498ACE600002D00000035
:10C1E0002B0000002000000000000000F8B504460D
:10C1F00000251E461746880404D405E03946202051
:10C20000B0476D1C641EF9D52846F8BDFFB504463D
:10C21000002581B01E46C80301D5302700E0202745
:10C22000880404D505E038460399B0476D1C641EA8
:10C23000F9D5284605B0F0BD0A68531C0B60107094
:10C240007047F7B584B00025168807461580406B07
:10C250001446002813D003780598032E51D30221E9
:10C26000017021881122491C89B221804254218801
:10C27000491C89B2218043542088401C2080386B9F
:10C2800000281DD005462088059902461232B24288
:10C2900037D811220A5420881022401C80B22080F6
:10C2A0000A542088401C20800F202A5C2388401ECE
:10C2B000CA54228840B2521C22800028F5DA002598
:10C2C000384620300290807B002806D03346224634
:10C2D000059902F0E3FB050014D10298407B002889
:10C2E00006D032462146059800F06CFD050009D1C4
:10C2F000B878002823D0059886462088001DB042D3
:10C3000002D90C2007B0F0BD684679DF0028F9D1CA
:10C31000218803207246505420881921401C80B285
:10C320002080115420887146401C80B22080411822
:10C330006846008804F066F8218840182080F87864
:10C34000002817D0218803230A46FB56C91C0598EC
:10C35000B142D6D80221815421880122491C89B2D8
:10C36000218042542188491C89B22180435420886D
:10C37000401C20807868002817D021880023C356ED
:10C380000A46C91C0598B142BBD8022181542188B4
:10C390000A22491C89B2218042542188491C89B251
:10C3A000218043542088401C2080388900280AD0EE
:10C3B000009438460196062202210830059B04F0BD
:10C3C000A0F805009ED1388A00280AD0009438468B
:10C3D0000196072203211030059B04F092F8050016
:10C3E00090D1388B00280AD0009438460196152247
:10C3F00014211830059B04F084F8050082D1386AB6
:10C40000002806D033462246059901F081FB05003D
:10C41000D8D1786A002806D033462246059902F022
:10C4200021FD0500CED10298007B002807D03346BD
:10C4300022463846059903F023FC0500C2D138781E
:10C44000002807D0334622463846059902F03EFDC3
:10C450000500B7D1284655E710B50122022100207A
:10C4600000F056FF002801D0072812D10722022130
:10C47000012000F04DFF002801D0072809D100213C
:10C480000A22084600F044FF002801D0072800D106
:10C49000002010BD044842680121C9050B469343A2
:10C4A00083600A40C26070470005005070B50024E8
:10C4B000064D06E06968E000085C012102F08CFD91
:10C4C000641C28788442F5D3002070BDA01F002092
:10C4D000F8B515460C460646052A01D20720F8BDD8
:10C4E00002F050FE002803D102F022FE0028F6D10F
:10C4F000104900204E600C70C8608D6008610E4DC0
:10C500000DE0E00069688019009181786A465170F9
:10C5100000780A4A694602F0AFFD0028DFD12046C4
:10C52000641EE4B20028ECD1054A0021024800F064
:10C5300079F8F8BDA01F0020E8060200A9E8010074
:10C54000D9DC0100BFF34F8F04490348C860BFF333
:10C550004F8F00BFFDE700000400FA0500ED00E08A
:10C560000EB50021029000916A4601910148FFF743
:10C57000E9FF000001400000014B1B681847000064
:10C58000EC26002010B58268C368934203D002F005
:10C5900045F8002010BD052010BD002906D0002A56
:10C5A00002D0531E134203D0092070470E2070475B
:10C5B0000160838000218160C1600846704710B52A
:10C5C0008268C3689A1A83889A4203D802F030F8C6
:10C5D000002010BD042010BD38B50C46A2680C2305
:10C5E0005A43064B09789D58054A126A0092024642
:10C5F000204608302369A84738BD000040280020A5
:10C60000741F002010B5064914230A785A435118A4
:10C61000091DFFF7E1FF042003F0A4FB10BD00009B
:10C6200074270020094B9B68002B07D0002A07D0F5
:10C63000002805D00068037C002B03D00820704739
:10C64000072070474174426100207047B41F0020EA
:10C65000FFB59007002581B014460E46002832D160
:10C660001B4F002C31D003F0A9FA04987861032005
:10C67000387033461821224600204B43BC601834E2
:10C68000C10089180D704D708E704C601C19401CD3
:10C690000328F5DBFD607D7001240E48BD70240584
:10C6A000046003211420FFF7C3F80B4804600B4C0F
:10C6B0000198A06003211120FFF7BAF86068386183
:10C6C000002005B0F0BD0720FBE7BD60FBE70000E0
:10C6D000B41F002080E200E000E100E0001501400E
:10C6E000FEB50D461B4917468968044600292AD025
:10C6F000002C28D0052D01D20720FEBD606900283E
:10C7000021D0607C012820D0002603F0BDFEC000AF
:10C710001049019089684018694603F0DFFE00283F
:10C7200015D0012101700C49446049680830E2C00D
:10C73000084901988968411868460078487003F0F4
:10C74000CBFC0020FEBD0820FEBD2E46DDE7042008
:10C75000FEBD0000B41F002000150140F8B5134DC8
:10C760000446A96800291CD0002C1AD06069002852
:10C7700017D00026267403F087FEC700A868694614
:10C78000381803F0ABFE00280DD002210170446080
:10C79000A868391868460078487003F09DFC304658
:10C7A000F8BD0820F8BD0420F8BD0000B41F00202B
:10C7B00070B50446224888B01E460D0042601CD069
:10C7C000A888296882B21F48FFF7E7FE002815D124
:10C7D000A889A96882B21B481030FFF7DEFE002846
:10C7E0000CD1202218496846FEF7CAFCA0680690C2
:10C7F0002079002804D0012103E0072008B070BD93
:10C8000000216846017506776079002800D00E2067
:10C8100069464875E0780290A078039020780190EE
:10C82000607800900949684602F0B4FC0028E5D120
:10C8300002F03AFD02480121801C02F00FFDDDE705
:10C84000981F002058280020C80602000D02020090
:10C8500010B50446064801214470401C02F07EFDDC
:10C86000112803D121460348FFF7A9FE10BD00009F
:10C87000981F002068280020F0B50C4693B01F21B7
:10C880006A461180072600279180002809D0C178C8
:10C8900049070DD502A9FFF7D4FC002809D102AD44
:10C8A00001E000251780002C0ED0E078002802D08F
:10C8B000304613B0F0BD01AA0AA92046FFF7C1FC1B
:10C8C0000028F6D10AAA02E068460022878068465E
:10C8D0008088C3B268460088C1B2284672DFE8E7A4
:10C8E00070B50D4604991646040042D0002E40D083
:10C8F000424800224271C36001612422314640480F
:10C90000FEF73EFC00F0D4F83D49343108461038BB
:10C9100001602031816038215C38FEF74AFC3848DC
:10C92000217838380170A1788170E178C170617820
:10C9300041706269216942610161E268A168C26077
:10C9400081600146E369A269CB618A61616A00295D
:10C9500019D00146AC310246B83241628A60636A3E
:10C960001B880B80616A436A898899800021436A29
:10C9700006E00E2070BD666AB668765C5654491CA7
:10C980009E888E42F7D8A16A00291CD01C4AAC327E
:10C9900011460C398A608162A36A9B888B80A16AE8
:10C9A000836A098819800021836A04E0A66AB66850
:10C9B000765C5654491C9E888E42F7D82C210A5D1D
:10C9C0000F4918390A73216A002909D00B4914311B
:10C9D0000162226A52884A80216A026A09881180AB
:10C9E0006168002904D00549891D41606168416082
:10C9F000034829463838FFF73FFF70BD281F002045
:10CA0000B824002010B502881C4C102A17D0002131
:10CA1000112A1AD0192A11D1807900280ED16079F3
:10CA200001281ED0022822D0032822D0042805D1B4
:10CA30002171E2680846002A00D0904710BD017DB0
:10CA40000129FBD18088208110BD617080882189F7
:10CA50008842F9D1012005E021690029F4D08847F6
:10CA600010BD022000F04CF80028F5D110BD0320C5
:10CA7000F8E7032020710420F4E70000281F0020BD
:10CA800010B5022801D003280ED1084C20780028C8
:10CA90000AD000202070607900F032F8002803D01E
:10CAA0002169002900D0884710BD0000281F002000
:10CAB00010B507210148FEF77CFB10BD401F002088
:10CAC00010B50D480078012814D10C4C607800286E
:10CAD00010D16079002802D074DF00280BD101202A
:10CAE0006070607900F00CF8002803D021690029FB
:10CAF00000D08847002010BDB8240020281F002047
:10CB0000F0B5754C87B06071002606A8069602F055
:10CB10000DFE0127082806D000286FD106980028AE
:10CB200002D02770D4E00696FFF7C2FF6B4D6878FD
:10CB3000002802D06079012805D0A87800280AD002
:10CB40006079022807D1E168002903D0E770082046
:10CB5000884700E0E6706079012808D168780028ED
:10CB600009D05D48193002F09EFD002803D060799D
:10CB7000022802D00CE002206071A878002805D0BD
:10CB80005548193002F08FFD002801D10320607153
:10CB9000287B002804D16079032801D1042060712A
:10CBA000287E002804D16079042801D1667126719D
:10CBB000E16800290AD06079032801D0042805D152
:10CBC0002878002802D06078002818D0A670182194
:10CBD0006846FEF7EEFA68460670019606720396FE
:10CBE000607901280FD0022816D03C4E24363746F3
:10CBF0005C3F03281CD004285ED13BE069E0A770AD
:10CC000007208847E3E734481830019068460770EA
:10CC100046820682277152E02F48183001906846FC
:10CC2000077029894182A98801820220207146E08B
:10CC3000A88A69464882288A08822848243003F056
:10CC4000CFFC002805D02878002802D06078002882
:10CC500001D003202FE002206946087204200396C9
:10CC6000F8701E4800213838FFF706FE002830D142
:10CC7000052020E0A88B69460882288C4882174846
:10CC8000243003F0ADFC002805D02878002802D01D
:10CC90006078002801D004200DE002206946087267
:10CCA00004200396F8700D4800213838FFF7E4FDA2
:10CCB00000280ED1062020716079002803D0684634
:10CCC00073DF002805D1E168002901D02079884769
:10CCD000002007B0F0BD0000281F0020B82400206D
:10CCE00070B5054601461C220E48FEF749FA0E4C67
:10CCF000002626702968002906D00822201DFEF78C
:10CD00003FFA201D7ADF02E00748001D7BDF002884
:10CD100007D1401E60806670044A00210448FFF776
:10CD200081FC70BDA4250020481F002025040200BE
:10CD300038060200F8B5214C028800271E4DE6890E
:10CD4000102A15D01E49112A21D0122A2DD0502A7E
:10CD50001CD1C288801DB24218D1028B022A15D183
:10CD6000C27E837E10021843C007C00F0CD112E0B0
:10CD70008188698001461048082216310C30FEF780
:10CD8000FFF96F70002E01D100F00AFFF8BD0020FE
:10CD9000C04368806F700868FFF7E0FC0028F5D09A
:10CDA000A1690029F2D08847F8BD811D02480822F8
:10CDB0000C30FEF7E5F9E7E7481F0020A425002026
:10CDC000380602007CB5054608880C4609309042BA
:10CDD00001D90C207CBD684671DF0028FAD121887A
:10CDE0000820685420881B21401C80B220802954D0
:10CDF000208800A9401C80B2208040190622013101
:10CE0000FEF7BEF920886946801D80B2208009782F
:10CE1000002900D0012129542088401C20800020B6
:10CE20007CBD000010B5044601F080F82046FFF7F5
:10CE300081FF204600F072F9204602F063FB204695
:10CE4000FFF7E0FD2146024800F0B8F810BD0000F1
:10CE5000FC23002030B50A460446C08A10498BB036
:10CE600088421AD0002500950195029504A9104624
:10CE7000039500F0E9FB014668468184E189018061
:10CE80000121817009A802906846858004A803905A
:10CE9000E08A6946A6DF0BB030BD0820FBE7000042
:10CEA000FFFF000030B587B00A4600250446009514
:10CEB00002A91046019500F0C7FB694608804D8025
:10CEC00002A80190E189E08A6A46A4DF07B030BD7C
:10CED000F0B5A1B00446086820600020C043E0829D
:10CEE00033480E460FC80EAD0FC51AA90EA863DF52
:10CEF00000285AD118A8017A10A881722D49018101
:10CF0000221D12A90120A0DF00284ED170681990BF
:10CF10001C2107A8FEF74DF927496846818310A810
:10CF2000817A684681771427078418A8017910A8A8
:10CF3000017301256846458413A8099008A8417A21
:10CF40000820014308A8417245730572A088A21DFC
:10CF500007A900F0BDFB002827D1717918A801703E
:10CF60001C216846FEF725F95B21C900684601804F
:10CF700010A8817A6846817087801BA918A800F0E4
:10CF800063FB01466846C1801BA802906846417B4E
:10CF90001220014368464173057485740573224667
:10CFA000A0880E32694600F093FB21B0F0BD00006E
:10CFB000700602009C3B00004669000010B50A881C
:10CFC000102A19D0112A19D0502A1BD0512A12D157
:10CFD0000A1D891D0B78022B0DD19279042A0AD0E3
:10CFE000062A08D0052A06D04A88C3889A4202D168
:10CFF000891C02F031FB10BD898801E00021C94382
:10D00000C18210BD891DF4E700B585B00023482218
:10D010001749082002F0F6FE002801D0FFF7A0FA19
:10D020006A460121002002F0D5FE002801D0FFF75A
:10D0300097FA104802F01CFE002801D0FFF790FA82
:10D04000684602F0BDFE002801D0FFF789FA0A48C1
:10D0500002F0ACFE002801D0FFF782FA074802F088
:10D06000E9FE002801D0FFF77BFA05B000BD000003
:10D07000B4210020001E002025CE0100290002005E
:10D080001CB5044681786A460C4802F063FB002810
:10D0900012D160781C21484309491C2340181A46C4
:10D0A000694602F01DFC064806494C30807A800033
:10D0B0000A582146684690471CBD00006C1F00209E
:10D0C000A0260020500602007CB5134E00250C4619
:10D0D0003060002918D06946002000F0B5F800281B
:10D0E00019D101A9012000F0AFF8002813D168463A
:10D0F00001790020002901D0022004E06946097866
:10D10000002900D00B2020707068002802D1FFF7A2
:10D11000A3F9054628467CBD201F002010B51C4CF5
:10D120000188606810290DD011290AD1401E606065
:10D1300007D1FFF791F9002803D02168002900D01A
:10D14000884710BD00281ED100210122084600F0AA
:10D15000DFF8002801D0072811D107220221012081
:10D1600000F0D6F8002801D0072808D104220221B7
:10D17000002000F0CDF8002805D0072803D0216852
:10D18000002900D088476068401C606010BD000026
:10D19000201F002010B5032000F038FA002801D02D
:10D1A000062800D1002010BDF8B50746002423480A
:10D1B00002E0641C042C1AD2A2008258BA42F8D1B0
:10D1C000042C14D21D481E4E0C38002929D00129E8
:10D1D0000ED002290BD16000201880194578002D4F
:10D1E00005D018480169002901D028468847F8BDB4
:10D1F00061006118755C8E19717800290CD0114995
:10D200000A224968806851430E4A521CFFF768FAA7
:10D21000002801D10B4847700A48B17814300155F5
:10D22000DDE78068FFF79AFA06486100611814305C
:10D230008919005D8D78A842D1D0F8BD080602009A
:10D2400054240020081F002004280CD2074A126929
:10D25000074B80001B5C01209840904300D00120C8
:10D260000870002070470020FAE700000005005019
:10D27000080602001FB5042822D007282BD00A2850
:10D280001BD00E2818D117A003F0ACF81A4C207848
:10D29000002825D00020207017491848FFF702FE0B
:10D2A00015491648FFF7D6FD227815A16846FEF706
:10D2B00033FB684603F096F81FBD02F03FFD1FBD2B
:10D2C0000D481321401E408876DF06E00028F6D086
:10D2D000FFF746F91FBDFFF7F3FB0828F6D11FBD86
:10D2E0000120D8E7427574746F6E205072657373B5
:10D2F0002E2E2E0D0A000000011F0020FC2300200E
:10D300004E65772073746174653A2025640D0A00B8
:10D3100070B50023042811D2440004190D4D012AD0
:10D3200002D101290DD0002246008019094E801932
:10D3300000290CD0012906D0022906D0072318465F
:10D3400070BD0D30C2B22A55F9E74270F7E782701E
:10D35000F5E700005424002010B5054A0146127A72
:10D360000020D20702D0084600F054F810BD00009B
:10D37000081F002070B50E46204905464E608D609E
:10D3800000200A61A9071ED500240122114620466B
:10D39000FFF7BEFF641C042C02D20028F5D012E077
:10D3A000002810D1720804211548FFF791F80028D1
:10D3B00009D1FFF77BF8002805D11148114A002157
:10D3C0001438FFF72FF9E90706D00F220E4952054E
:10D3D0008A600023CB608A6100280DD108480B4A7F
:10D3E00000211C38FFF71EF9002805D10448084A1F
:10D3F00001211838FFF716F970BD0000081F002042
:10D400001806020051D6010000050050F1EA0100A3
:10D4100095C40100FEB57A4D0722EB6892059A4348
:10D4200002936B6800939C0006461B1900200121A3
:10D43000019349050746734C3300FEF798FA180D1F
:10D440001515374755677C887F8891DE9E9E9E9E86
:10D450009EC8CED1D8DEDE140F21029A4905914331
:10D46000A160E7602F70FEBDA260E76060680F22D8
:10D4700052055040800209D5A160E760022E02D11A
:10D48000E120C0000AE07D20400107E0E160A760E4
:10D49000022E01D1C82001E0FF2091302E706421BE
:10D4A000FDF744FE0099414300223FE0A260E7609F
:10D4B00060680F2252055040800204D5A160E760E9
:10D4C00019204001EAE7E160A760E3E7A260E760B6
:10D4D00060680F2252055040800202D5A160E760CB
:10D4E000D1E7E160A760D7E7A260E76060680F223C
:10D4F00052055040800202D5A160E76001E0E16082
:10D50000A7602E700098410000220FE0A260E76043
:10D5100060680F2252055040800202D5A160E7608A
:10D5200001E0E160A7602E70009900223648006893
:10D53000FFF7D6F8FEBDA260E7601BE0616801203E
:10D54000800502468A43A2600140E16010E0606805
:10D55000012189050A468243A2600840E060E3E7B2
:10D560006068012189050A468243A2600840E060A4
:10D570000199C9E7E160A7602DE023484068FFF703
:10D58000EDF811218A1B01D0002807D00F22E9688D
:10D5900052051140A160E760EF60FEBD0121C905A1
:10D5A000E960012A0CD91046C82148436421FDF7DF
:10D5B000BDFD69680022414313484068FFF790F8B9
:10D5C0000F22E96852051140E160A760FEBD0F21FE
:10D5D0004905A160E7602E70FEBD07229205AAE70B
:10D5E0000D214905A160E76001218905C2E70321FA
:10D5F000C905A160E7608910BCE70F214905B9E7BB
:10D60000081F002000050050FC050200F0B50021B5
:10D610000B4C0C4D03273F048A00A2589200561968
:10D62000326801238B40034000D00323BA431B041C
:10D6300013433360491C0429EED30020F0BD0000E1
:10D6400008060200000700500078087001207047AB
:10D6500010B500780221FFF7A7FD10BD0022D243CC
:10D66000830004490428CA5002D3081820300277E6
:10D670007047000010270020F0B50025ED43002A78
:10D6800002D00023042601E0042308260B4C04E00A
:10D690009F00E7597F1C04D05B1CB342F8D3284697
:10D6A000F0BD26185DB2203635709E00A151002ACB
:10D6B000F5D1E11820310877F1E7000010270020AC
:10D6C0000249091820200856704700001027002042
:10D6D000F7B58878012592B00C46002817D008A924
:10D6E000887720886946888700260796207C07A9C6
:10D6F00002F00DFB07A9607C013102F008FBA07B62
:10D7000000286846807F05D00821084304E008A867
:10D710008577E6E7F721084069468877E17B0029AD
:10D7200002D01021084301E0EF21084069468877C4
:10D73000217B002901D0284301E0400840006946D0
:10D740008877F927E17C3840002901D0022100E0E8
:10D75000012149000843694688771C216846FDF786
:10D7600028FD607BC10601D4800610D50E960EA957
:10D77000A07C013102F0CBFA0120014608A810314B
:10D780000176817E3940891C81760EA80590617BE7
:10D7900068460170142109A8FDF70BFD0FA8099038
:10D7A00007A80A90A18868460186A068002804D0CE
:10D7B000E08869468885A0680D906069002844D09B
:10D7C0000896018868460181606908AE418868460C
:10D7D0004181606908A94068049601906069007BF6
:10D7E00002F095FA6069711C407B02F090FA606962
:10D7F000807A002808A8807802D00821084301E038
:10D80000F721084008A988706169C97A002902D007
:10D810001021084301E0EF21084008A988706169E0
:10D82000097A002901D0284301E04008400008A9F6
:10D83000887061693840897B002901D0022100E0AD
:10D8400001214900084308A98870A069002800D078
:10D85000039009AA6946149B1298A2DF15B0F0BD87
:10D86000F8B53E481422017851430C18E0680C21A9
:10D8700048433A492769CC314018058941890091CC
:10D88000241D466801F0F8FF01463846FDF74EFCBE
:10D89000002932D000200099A2884D436188AE193A
:10D8A0008918CD1900222E4900280A6109D001F0FB
:10D8B000E3FF6188884222D0B54202D1A0880028C7
:10D8C0001DD0A06803281AD001F0D6FFA188CA197C
:10D8D00001461046FDF72AFC214C8808E06001F063
:10D8E000CBFF01462846FDF721FC002911D000207E
:10D8F000B5422FD000280ED02CE00120CBE701F05C
:10D90000BBFF01463846FDF711FC1549486103206D
:10D9100021E00120ECE7ADB2B7B201F0ADFF014666
:10D920003846FDF703FC064601F0A6FF01462846EF
:10D93000FDF7FCFB864201D1781B09E001F09CFF5A
:10D94000064601F099FF01462846FDF7EFFB701AE5
:10D9500080082061022002F005FAF8BD742700203B
:10D96000741F002010B5074814220178514308188D
:10D970000079042802D000F059F810BD012002F00F
:10D98000F1F910BD7427002010B50B48142201785E
:10D9900051430818094AC18811620079012806D04C
:10D9A000032801D0042801D1FFF75AFF10BD012040
:10D9B00002F0D8F910BD000074270020741F002069
:10D9C00014225043054A002180180171C1800222AF
:10D9D0000161C2604161018170470000742700202D
:10D9E000F8B5104C069E65780A2D19D027787D1958
:10D9F0000A2D00D30A3D14277D432D1928716A6131
:10DA000003C92961E860EB802E816078401C60705A
:10DA100005480078002801D1FFF7B6FF0020F8BDC7
:10DA20000420F8BD74270020741F002010B50D4C91
:10DA300014212078484301190020091DFEF7CCFD70
:10DA40002078FFF7BDFF6078401E60702078401C92
:10DA5000C0B220700A2801D100202070002002F0FE
:10DA600081F910BD74270020F8B52348C16800294A
:10DA70003ED00E6821494C680769C078E11B0D0251
:10DA80002D0AED1C002814D101201D4A000450600D
:10DA90001B4A403A50601B49400008601A49086020
:10DAA0001A49012008602F20FDF714FB12490120BC
:10DAB000C870B54200D23546E81900020F4B000A83
:10DAC000403318600D4A5168001B091B0902090AFE
:10DAD0000002000AC91C814209D9506818602F2031
:10DAE000FDF7F8FA01200749400480390860F8BDC5
:10DAF00002F064F8F8BD0000B41F002000150140DA
:10DB00004013014080E200E000E100E0001001402D
:10DB1000F8B50646108814468446801D0D46984286
:10DB200001D90C20F8BD32880720062AFAD319271C
:10DB3000FF01184BBA4201D99A42F3D171880629E4
:10DB4000F0D3B94201D99942ECD19A4203D099421B
:10DB500001D08A42E6D80521604629542088122146
:10DB6000401C80B2208029542088401C80B2208034
:10DB70004119308802F046FC2188401880B220808C
:10DB80004119708802F03EFC218840182080002056
:10DB9000F8BD0000FFFF000010B5FEF7E1FC10BD6E
:10DBA000F8B5164800F020FF144D00260C3D144C2B
:10DBB000002807D0616900291CD001206A46107036
:10DBC000684616E02878002805D06169002911D040
:10DBD000684606700DE0687800280DD0A1680948F5
:10DBE00000220068FEF77CFD002803D0A16900290F
:10DBF00000D088472E70F8BD6168F0E7541F002000
:10DC0000A42500203806020070B5094B04469E7A10
:10DC1000082000250E4207D00648844202D0188909
:10DC2000A04202D10020156070BD052070BD00002B
:10DC3000E0260020FFFF00000C214843064910B5F4
:10DC4000012240188272911E0181FF21C1720721B9
:10DC5000FDF7AFFA10BD0000E026002010B5134C10
:10DC6000207900071FD46069401C6061E0680028CB
:10DC700001D0042004E000F0E9FE002803D00220D7
:10DC800002F0C8F910BD2069002809D06068C107FA
:10DC900001D00320F4E70121084360600020EFE792
:10DCA000FFF760FE10BD02F0A9F910BD741F00203F
:10DCB00010B5084841680A0708D48A0702D501222E
:10DCC00011434160022002F0A5F910BD02F096F95F
:10DCD00010BD0000741F0020F8B500260124154D6A
:10DCE00023E06968F0004718387821462A698140A6
:10DCF000114218D08A432A6101F010FA3A7821467D
:10DD0000EB68914019400346934099420BD17978D2
:10DD1000012901D0012100E000217B684140002B56
:10DD200001D010469847761CF6B228788642D8D3A0
:10DD3000F8BD0000A01F0020FEB50E460446817805
:10DD40006A46234801F006FD002826D160780C21A0
:10DD5000204F4843C019807A40061FD4022E1DD0A0
:10DD6000012E1DD01C4DA0781C2148431B490023C7
:10DD700041181C226846A847002813D0022E0CD058
:10DD800020780C21484313490C314018807A1449FB
:10DD900080000A58214668469047FEBD114DE2E7D3
:10DDA000114DE0E7022EF8D060780C214843C019ED
:10DDB000817ABF221140817260781C214843054955
:10DDC000403941181C231A466846A847D8E7000086
:10DDD0006C1F0020E026002081FF0100DC250020D0
:10DDE0004006020029FB010049FA010070B5054612
:10DDF000114A124800241C2363431B189B7EFF2BEF
:10DE000004D0641C072CF6D3104670BD0A78022A91
:10DE100009D01C2262431018FD228276072210309E
:10DE2000FDF7AEF904E01C2161430818FE2181765C
:10DE30002C700022E8E7000043800000DC25002071
:10DE4000F7B505250F4F06460024002E0AD01C20EA
:10DE50006043C019072231461030FDF7BCF9002895
:10DE600007D00AE01C206043C019018B0298814250
:10DE700003D101980025046002E0641C072CE4D360
:10DE80002846FEBDDC2500207CB5054681B26A46E9
:10DE9000074801F05FFC040008D17421684601F0D6
:10DEA00085FC040002D1284601F008FC20467CBD18
:10DEB0006C1F002010B5100001D0FEF751FB0020B0
:10DEC00010BD00001FB56946087301F0DBFC002897
:10DED00001D0FEF745FB03A800F020FA002801D08E
:10DEE000FEF73EFB01A805210130FDF762F9694606
:10DEF000487901221043E1210840DF210C3008401D
:10DF000069464871072088711020C8710548009043
:10DF10000A71054800F028FB002801D0FEF720FB1D
:10DF20001FBD0000B5DE0100001F0020F0B5054652
:10DF300093B000200290FF24EC480E940078002853
:10DF400049D0EB4F3868002845D001A800F0D8F937
:10DF5000002801D0FEF704FB281D05902A20694601
:10DF60000883FF20002688710E710396E04C2888F4
:10DF70000C3C10280ED0A88803AA0221FFF744FE0B
:10DF8000002807D103980C2141430919CA7A694630
:10DF90008A7148712888132217287CD00FDC10283A
:10DFA0001BD0112853D0132876D0142813D10398EE
:10DFB0000C2148430019C07AFF2871D08DE0CD496B
:10DFC00018286BD01C286AD0522804D1B87A800057
:10DFD000095801A8884713B0F0BDC74F03AA012113
:10DFE0003846FFF711FE0028F5D103990C2048436D
:10DFF00002220019827211236A4613745171A98892
:10E0000001810722A91DFDF7BBF8687DC10707D074
:10E010004108B6480830405CFF2808D00E9006E062
:10E020003A460EA9A81DFFF70BFF00280ED1039951
:10E030000C22514309190E98C8728A7A08231A4390
:10E040008A726946887101A8FFF71AF839E10398C6
:10E050000C2148430119887AFD221040887201077B
:10E0600006D5C0090DD0002101A8FFF765FE08E024
:10E0700068468079FF2804D001F020FBFF20694624
:10E08000887103980C2250431021001981721220CC
:10E090006946087415E17FE030E001E0D5E00EE16B
:10E0A000EA890EA90020FFF7CBFE00280ED10398C5
:10E0B0000C22504300190E99C172837A082213432F
:10E0C00083726846817101A8FEF7DAFF03980C217C
:10E0D00048430019C07AFF2806D003981C21484302
:10E0E00083494C394018029003981C2148438349C6
:10E0F0004218A8880023029982DF6CE76846027400
:10E10000039B0C2058430119887A0422104388721B
:10E11000C87AFF2830D0162069460874242043436B
:10E1200073481A21303818180830FDF742F8039860
:10E130000C2148430019817A4022114381720399CE
:10E140000C2200204A430A901219D27A1C235A4307
:10E150006A4B0C90D2180B921C2251431A46C432BF
:10E1600089180791089009903A1DA88807AB0021EB
:10E170007FDF0028C1D1A4E00EA8FFF737FE0028FA
:10E1800001D00646DBE769460E98887103990C2298
:10E1900051430919C872D2E7787A40084000787272
:10E1A000039A0C209446424311198B7AFB200340BA
:10E1B0008B7214206F463874A879002804D0C87A6E
:10E1C000FFF762FEAE797CE0E879400779D5B8794F
:10E1D000FF2876D008273B438B72EB7A9B0708D544
:10E1E0001C2503466B43454D5B199D7E6D086D00F4
:10E1F0009D76CB7AFF2B64D0A25C022A10D01C2221
:10E2000050433E4D072240191030FCF7B9FF6846D5
:10E2100080791C2148434019817EFD2211400EE087
:10E2200061461C225143324A4C3A89184A8A1C21C1
:10E230004843324940180283817E4908490081766B
:10E24000012101A8FFF778FD3BE0A8790209012A26
:10E2500023D10007000F01281FD103980C2242434D
:10E260001219927A120718D52421484320493039CF
:10E2700040181A210830FCF79CFF162069460874E4
:10E2800003980C2148430119887A60221043887250
:10E29000787A0221084378720FE003980C225043E9
:10E2A0000019827A80231A43827215206A461074FC
:10E2B000B87A8000095801A88847002601E068461E
:10E2C0000274324604A901A8FEF756F96846007C9C
:10E2D000122800D07FE603980C2141430919897A5E
:10E2E0000129F7D0FFF7A8FC75E600005C1F0020AD
:10E2F000EC26002060060200FFFF0000DC25002065
:10E30000002806D0FF21017041708170C17000208B
:10E3100070470148704700000E800000F0B585B0DE
:10E32000040036D0294800250560457285722846CC
:10E33000FFF782FC254824213038FCF73AFF0026FD
:10E34000FF27304601F0BAF921488755761C072E81
:10E35000F7D37421684681800721C1801D481C497C
:10E3600000900831684601F011FB00280FD1184ECB
:10E370000120083E3070207800280CD0694688883B
:10E38000C988484381B23046103001F00FFA05B019
:10E39000F0BD1148FBE7114F00240D48A1B202AABD
:10E3A000083001F0D7F9002809D11C206043C019BA
:10E3B00000231C2202A901F093FA002801D0357035
:10E3C000E5E7641C072CE8D3E1E70000EC26002019
:10E3D000641F0020E1E301000E800000DC25002026
:10E3E000FFB55C488FB00068189F1E46002873D0A8
:10E3F000742F71D86846FFF783FF002801D0FEF71D
:10E40000AFF8002468460470047125460597069607
:10E41000A9B20DAA504801F09DF9002806D10822A2
:10E420000DA90F98FCF7D7FE002817D06D1C072DFB
:10E43000EED368468578FF2D4ED01098032810D073
:10E4400046481C21301AFCF771FE012707281ED20E
:10E4500004A80290119800280BD011E0684685703E
:10E46000E7E7742F03D04020694608716CE0202054
:10E47000FAE738463849A84010394968084261D05F
:10E48000284601F0C5FF2020694608714AE031485E
:10E490001C214C38301AFCF749FE00281DD02D48AD
:10E4A00024213038301AFCF741FE01002C482CD0D2
:10E4B00040216A4611712B498E4245D0274AA90056
:10E4C0001C3A5158B1423DD104A90291C07A85420B
:10E4D00028D16846447025E034E004A80290202149
:10E4E0006846017144701B480A940C300B905838F0
:10E4F0000790684680781C214843184940180890C6
:10E5000007A80690182005900CE0302269460A7191
:10E510004C70CF70807A800704D4114824212438AD
:10E52000FCF747FE109869460228087910D00221AE
:10E5300008436946087104A8029001A96846119A27
:10E54000FEF71AF813B0F0BD694608790321EFE72A
:10E550003843EFE7EC2600206C1F0020DC2500206C
:10E56000E02600203C06020070B5064618480D461D
:10E57000007800280ED01749002E0ED0002D0CD0A8
:10E580002868002809D0144C2168002907D01148B8
:10E590000A3870BD0F48801F70BD084670BD2060EE
:10E5A0000522691D201DFCF7EBFD2879A072207A59
:10E5B0000221400840000843FB2210402072E0790D
:10E5C0000123184308431040E0710020307070BDF3
:10E5D0005C1F00200E800000EC26002010B50E49C4
:10E5E00000234A788C78A24212D0521CD2B24A70D0
:10E5F000022A00D14B704A78074B920018339A5880
:10E600000260086910180002000A0861012010BDAC
:10E610000360002010BD0000B41F002082688388C2
:10E620001A4003689A5C0A708168491C81607047CF
:10E63000C26883881A4003689954C168491CC16044
:10E640007047000010B5002803D0112802D0FDF754
:10E65000D9FF10BD0248082241681143416010BD36
:10E66000741F002010B51C4C2178204640680129F9
:10E6700006D0022929D0032912D1000717D513E0AB
:10E68000000711D415481422017851430818C18895
:10E69000A28B891A0904090CC18002D001F072FC16
:10E6A00010BDFFF7C3F910BD00F0D0FB10BD6069CD
:10E6B000401C606100F0CAF9002803D0207801F006
:10E6C00051FB10BDFFF74EF910BD60780449800082
:10E6D0000858804710BD0000741F002074270020D8
:10E6E000B406020010B528DFFFF7ACFF10BD10B56F
:10E6F00029DFFFF7A7FF10BD0020704700207047FB
:10E7000000207047F8B506464078242104464C4363
:10E7100024490C2250436118224A00254B682432B8
:10E720008018AE462F469C46002B0CD0827A1346AA
:10E73000D20908D05A0606D40D461A4A614689B253
:10E74000175908358E46174C008924343B467246CB
:10E750002946A9DF0B2819D0002800D01248012F24
:10E7600013D170780C214843001900890F4AA7DFA4
:10E7700000280AD00E49884212D0082810D0891CDF
:10E7800088420DD011280BD00020F8BD70780C21E4
:10E79000484301230019008972462946A9DFE0E7B2
:10E7A0000148F8BDBC26002041800000FFFF0000AA
:10E7B0000230000070B50C46014660782422084DF6
:10E7C00050434019382301F08BF8002807D16178B5
:10E7D0002422514349194A68521C00D14A6070BD35
:10E7E000BC260020F3B589B00D461A2069468883FF
:10E7F00068780C2103274843224E3B468019008944
:10E8000007AA6946AADF002838D16878242148433E
:10E81000741A001969468A8B0830FCF7DCFC002862
:10E82000687807D0242148430119496800290DD090
:10E83000154E0CE00C2141438919897A89071DD4B2
:10E84000242148430019FCF7B4FC17E00F4E275071
:10E850006846828B687824214843001942606878B2
:10E860004843001969460830FCF78AFC687824217F
:10E8700048430119382324220998B04700200BB0DF
:10E88000F0BD0000E026002029FB010049FA01004C
:10E8900010B5FFF737FF10BD10B5FFF78BFF10BDA8
:10E8A00010B5FFF79FFF10BDF8B50746104E0125C4
:10E8B000BD403068FDF752FF00280DD10D4C206996
:10E8C000284207D1384600F029FC0028E06804D02F
:10E8D000284303E0A8432061F8BDA843E060206915
:10E8E000002228432061A1683068FDF7F9FEF8BDD9
:10E8F000E8060200A01F002070B51B4C207900071D
:10E900002ED41A481422017851430D182E6900F0B4
:10E91000B3FF0146E8882A89761E80188019FCF723
:10E9200005FC21690025002909D06169814206D1D1
:10E93000E560606801210843606000200AE000F0A3
:10E9400085F8002802D00220E56003E02069002855
:10E9500003D0032001F05EFB70BDFFF703F870BD2C
:10E9600001F04CFB70BD0000741F002074270020D4
:10E97000F8B51C4C2078002833D02069002807D037
:10E980000026E068002805D00025002E04D011E004
:10E990000126F6E70125F8E7684652DF052804D08E
:10E9A000002804D0FDF7DCFD04E0012602E0216927
:10E9B00000988847002D10D1608869460880A068BB
:10E9C00061DF052804D0002804D0FDF7C9FD04E06C
:10E9D000012502E0E168A0688847002EDCD0002D08
:10E9E000D3D0F8BDD41F0020418805480288914249
:10E9F00004D34088814201D801207047002070472D
:10EA00004C1F00201048018CC9B2012917D1818CFC
:10EA1000090714D1018D09060A0F03D1828D120650
:10EA2000120F0ED0090F012903D1828D1206120F89
:10EA300007D0032903D1808D0006000F01D00020EC
:10EA40007047012070470000C00F00F070B50E48FD
:10EA50001422017851430C18256900F00DFF01467E
:10EA6000E08822896D1E80184019FCF75FFB07497A
:10EA70004A69824206D3824202D10869002801D045
:10EA8000002070BD012070BD74270020741F00207D
:10EA9000800701D0002070470120704730B51588ED
:10EAA000EC1C9C4201D90C2030BD02244C5513882B
:10EAB0001C255B1C9BB21380CD5413885B1C9BB23E
:10EAC0001380012807D0022807D0032807D0042884
:10EAD00007D0072030BD002004E0012002E0CC5424
:10EAE00001E00320C8541088401C1080002030BD75
:10EAF00010B50448017AC90702D00078FEF78AFCF5
:10EB000010BD0000081F0020F8B52C49C8680A692C
:10EB10000C780F7989688646944600913EE000990A
:10EB2000E20055182A7836E0182353436968521CCE
:10EB3000C918AB78D2B2934200D100220B78022BD5
:10EB400002D0032B27D123E04E680346014603E0A1
:10EB5000B14204D00B46C96900291CD0F8E700294E
:10EB600019D08B4208D1C069002805D1144F012665
:10EB7000BE600026B44601270E68C969D961002924
:10EB800009D00B689B190B6005E00174C06900E0B7
:10EB900000210028F9D169789142C5D12146641E2F
:10EBA000E4B20029BBD1054962460A61C8600F7111
:10EBB000704501D00120F8BD0020F8BDB41F002031
:10EBC00000100140F8B5044631480026C1680091A4
:10EBD00007784EE02E48F90080680D1843E0002CBD
:10EBE00002D02046E4691FE02878182141436A6872
:10EBF000401CC0B251182870AA78904200D12E70E3
:10EC00000A784868012A30D1027C002A2DD18A680E
:10EC10004260CA6882600A69C260496981611C49B0
:10EC20000979002900D04660194943680A699C4661
:10EC3000991A0902174B090A994202D28268891867
:10EC400007E06146511A09028268090A8A4202D91C
:10EC5000511A016000E0066046600121866001747F
:10EC6000C66101F041FA002CB9D128786978884250
:10EC7000BAD138467F1EFFB20028ABD10448C16824
:10EC80000098814201D00120F8BD0020F8BD0000AD
:10EC9000B41F0020FFFF7F00002398B05A4A0521CF
:10ECA0001846FDF7D5FC002801D0FDF759FC574A5E
:10ECB00004AB07CA07C3FF21013155480090401833
:10ECC0000191039102900323524A694604A8FDF77B
:10ECD0006FFD002801D0FDF743FC4F4A4F49032048
:10ECE000FEF748FB002801D0FDF73AFC69460020FA
:10ECF000FEF7EAF9002801D0FDF732FC68460078FB
:10ED0000022878D0002168460171FEF77DF9684637
:10ED10000079FFF7D7F801200146103168460173EA
:10ED200013223FA103A87CDF002801D0FDF718FCC7
:10ED3000002400945021684601940180A021418064
:10ED4000FF2184809131C1807ADF002801D0FDF756
:10ED500007FC382101A8FCF72CFA02216846017152
:10ED6000012585710621C1718582324806902421D2
:10ED70000FA8FCF71EFA10A80572FF202D30139083
:10ED8000B420009414902C4B0FAA002101A8FDF789
:10ED9000A7FD002801D0FDF7E3FB2848009001946F
:10EDA00068460471447169462548FEF791F80028C9
:10EDB00001D0FDF7D5FB1C216846FCF7FAF90520C8
:10EDC000C00301900F2000040290009403216846C4
:10EDD0000173C48104741B4805901B480690684663
:10EDE000FDF77EFF002801D0FDF7BAFB0320FDF7F9
:10EDF00087FE03E0FFE7012185E748DF0028FCD01C
:10EE0000FDF7AEFBF9E70000EC1F0020F005020063
:10EE1000FC210020F501020075D20100CD0C00009C
:10EE2000437573746F6D2053657276696365205402
:10EE300065737400041F0020B1F40100BDF50100EA
:10EE4000FC2300209DF5010099DB010010B504486A
:10EE50000822416891434160007800F083FF10BDB3
:10EE6000741F002070B5144682880E46054620881F
:10EE7000111D4118921C994201D8FE2A01D90C207B
:10EE800070BD521C32542088FF21401C80B220806B
:10EE900031542088401C80B220808119288801F0DC
:10EEA000B1FA2188401880B22080AA88002A09D0AF
:10EEB000A968002908D08019FCF762F92088A98880
:10EEC00040182080002070BD072070BDF8B50F46A7
:10EED000017814460546012902D16878002806D039
:10EEE0002088821C9A422DD8012902D006E00720F2
:10EEF000F8BD69784118891C994223D8181A801ED8
:10EF000086B2684606802188B81C081869467DDFED
:10EF10000028EDD12878022805D169460988B14238
:10EF200001D809210AE00821012805D16878B042FA
:10EF300002D86A46108001E068460680684600886C
:10EF4000FE2801D90C20F8BD2288401CB854208826
:10EF5000401C80B22080395420886946401C2080A3
:10EF60000988401820800020F8BD0020704700204C
:10EF700070470020704700008207D30EFF229A409E
:10EF80008907090E10B5994000280BDA03071B0FFB
:10EF9000083B9C080C4BA400E318DC6994430C4329
:10EFA000DC6107E08408094BA400E418236893435C
:10EFB0000B432360C106C90E012088400449086044
:10EFC0000449086010BD000000ED00E000E400E02E
:10EFD00080E200E000E100E0F3B581B00F46019867
:10EFE00000F08CFB012400281E4E019817D0FEF77C
:10EFF00067FB80192030007F8009032802D0012898
:10F0000006D007E01848006901998C40204201D1E0
:10F01000022100E00321019800F022FAFEBD00F079
:10F0200079FB0028FAD00198FEF74AFB05468100DB
:10F03000C81D0E4AF93089180A6980B222430A6154
:10F040000B49401800210160002FE7D00198FEF71E
:10F0500037FB800030580028E0D00648AC404460C0
:10F06000FEBD000010270020000500500065004094
:10F070000060004000630040FEB5044623480E4691
:10F080000019202141560027C8171346401C01D003
:10F09000082738E0F27819462046FEF7EDFA0546D3
:10F0A000401C2FD0B078002807D01948A1000918BB
:10F0B000086802229043086007E000217378204628
:10F0C00000910A46019100F093F9F078002810D0E1
:10F0D0001048AA001018317802690F4B1A400261DB
:10F0E000E206D20C8907890B0A4301690A430261CF
:10F0F00009E00648327840192030017F920111431F
:10F10000017700E004273846FEBD000010270020EC
:10F110000007005000650040FFE0FCFF034909695B
:10F12000C140C807C00F00D0012070470005005043
:10F1300070B5124D2879002801D0082070BD0F4904
:10F1400000204039421E0B182033401CC0B21A70F8
:10F150002028F8D300242046FEF780FA641CE4B28D
:10F16000082CF8D303210620FFF706FF01200449ED
:10F17000C007486001202871002070BD5027002082
:10F180000063004002480079002800D00120704749
:10F1900050270020F3B52A4C0746E07E81B00028B6
:10F1A00001D00820FEBD002F00D1264F386800F0A6
:10F1B0004CF938780126314681402348816000218E
:10F1C000786800F039F9214DB8696862787D397D39
:10F1D0000843E86603CFE8606961387B083F01288F
:10F1E0000FD10021B86800F027F9F86800F02DF978
:10F1F000387B3146814014488160F968B868A9605D
:10F200002861029860603969216000280ED0FF23D0
:10F210000F481D33397F0022C250FF234533C250AF
:10F220000D4A0C4850600220FFF7A6FE042028601B
:10F230000020E0752076A075E676A076FEBD000081
:10F2400058270020800602000005005000250040DD
:10F25000002000408000020000230040F8B5104B61
:10F2600081245E680022A4000E4D002E00D0AC6008
:10F27000DF7D002F0BD01A7E002A04D0002E00D094
:10F280006C601120F8BD18610122197604E0D9756F
:10F290000024D8605C761C7600F012F8F8BD0000FF
:10F2A000582700200023004010B5044CA07E002801
:10F2B00003D100F0CFFC0120A07610BD582700201C
:10F2C000F8B5234DA87E104301D100F0C3FC686857
:10F2D000204C002805D081201F4980004860002074
:10F2E000F8BDFF20453000212150FF212531204667
:10F2F00000F0D0F80546FF210931204600F0CAF899
:10F300000746FF214531204600F0C4F8064639463D
:10F3100031432943E9D02846304306D100F070FC40
:10F320000B48C17D407E8142DFD800210848002D76
:10F33000C17501D00320F8BD002E01D00F20F8BD0B
:10F34000817E0120002901D02060C8E76060C6E707
:10F3500058270020002000400023004010B5064A36
:10F36000937D002B01D0112010BD9175906000207D
:10F37000908200F003F810BD58270020F8B5002651
:10F38000194FFF251D357E510120B86000F00CFF9C
:10F39000164C6168002910D022E0FF27013729466A
:10F3A000114800F077F8002802D1A08AB842F6D1BF
:10F3B000A08AB84201D000F0F7FEA08AA17D884261
:10F3C000EBD3A18AC81FF9380CD0074F294638461D
:10F3D00000F060F80028F9D00120F8600020A07546
:10F3E0003046F8BD0F26F9E70020004058270020DE
:10F3F00030B552000A439900039C0A432102049D40
:10F400000A4329040A43024980004018026030BDC3
:10F410000007005030B552000A439900039C0A438C
:10F420002102049D0A4329040A430249800040182E
:10F43000026030BD000700501CB500220B46009250
:10F4400011460192FFF7E6FF1CBD1CB5002100919B
:10F450000B46012201911146FFF7DCFF1CBD0000A5
:10F46000820006481018026803231B049A430260B6
:10F47000026809040A430260704700000007005058
:10F48000034940180068012800D0002070470000A0
:10F49000006000404058002800D00120704703223F
:10F4A000120280184068084000D001207047000018
:10F4B00010B500280CD0032809D108A000F092FF55
:10F4C0000220FDF749FF002801D0FDF749F810BDE3
:10F4D00007A000F087FF00F031FC10BD0D0A416469
:10F4E000766572746973696E672E2E2E0D0A0000A0
:10F4F000476F696E6720746F20736C6565702E2E80
:10F500002E0D0A0030B504460088134D8DB010282A
:10F5100009D0112805D10020C04368800FA000F059
:10F5200061FF0DB030BD0720FDF716FF002801D0A8
:10F53000FDF716F8A0886880E379227A617AA07ACC
:10F5400003936B4607C3E37A227B08A104A8FCF768
:10F55000E3F904A8E3E70000001F00204469736397
:10F560006F6E6E65637465640D0A0000436F6E6EA6
:10F57000656374656420746F3A20253032783A25CB
:10F580003032783A253032783A253032783A2530A0
:10F5900032783A253032780D0A00000010B5007834
:10F5A000002807D104483B21408876DF002801D09D
:10F5B000FCF7D6FF10BD0000001F00201FB5087823
:10F5C000022807D003281CD0042802D10EA000F086
:10F5D00009FF1FBD8C7813A122466846FCF79CF9F1
:10F5E000684600F0FFFE0122002192051248012C1E
:10F5F00004D0002CEDD18260C1601FBDC26081606B
:10F600001FBD0EA0E3E700004E6F74696669636179
:10F6100074696F6E2064697361626C65642E2E2E4E
:10F620000D0A000056616C75652077726974746507
:10F630006E3A2025640D0A00000500504E6F746973
:10F640006669636174696F6E20656E61626C656482
:10F650002E2E2E0D0A00000038B504460D460888EF
:10F66000E18888420BD12068002808D00221684632
:10F670000170A97E817022686946204690472888DB
:10F68000618A88420ED1206800280BD00520694687
:10F690000870E87EA97E0002084369464880226817
:10F6A0002046904738BD0021425C002A01D001204D
:10F6B0007047491C0629F7D30020704770B50546EE
:10F6C0001C200D4968434418204611300621FBF7E1
:10F6D00070FD20461021FBF76CFDFF2121740020F6
:10F6E000A176C0432083284600F092FE024A002003
:10F6F000A9001C3A505070BDDC25002004490818B0
:10F7000020214156042901DB012070470020704769
:10F71000102700200449081820214156042901D24D
:10F720000120704700207047102700200749097901
:10F73000490701D408207047002804D004494978BB
:10F740000160002070470E2070470000741F0020E9
:10F750007427002070B5134B1B795B0701D4082078
:10F7600070BD002817D0002A15D00368022B10D2D4
:10F770000C240D4D5C432E59002E0AD046686019AA
:10F780000489458940686143654371182818884297
:10F7900003D8072070BD0E2070BD1360002051609B
:10F7A00070BD0000741F002040280020FEB50446F4
:10F7B00026480E460079400701D40820FEBD002CE3
:10F7C00025D02068022836D20C21214D48432958E3
:10F7D000002930D0401941890289406851430918F5
:10F7E0006068814227D9FFF753F9002811D060687B
:10F7F000019021680C2251434F1979680091401AF9
:10F8000039890D46FBF792FC002914D103E00E2044
:10F81000FEBD1020FEBD29463046FBF787FC0029BF
:10F8200009D1002E07D078890099454301984919DC
:10F830008019884201D90720FEBD002002460090B1
:10F84000334621460320FEF7CBF8FEBD741F00208F
:10F850004028002010B507484469601C06D000F01D
:10F860000BF801462046FBF761FC10BD01200007A4
:10F87000406910BD0010001001200007006980B22F
:10F880007047000070B5002413482546047044708A
:10F890002846FEF795F86D1C0A2DF9D30F4D6C80A4
:10F8A000FFF7D8FFC61EFFF7E7FF46430A4A0020CE
:10F8B000AE60CC326C610C214143545089180C81EC
:10F8C000401C4C810228F6D32C70AC610420EC6102
:10F8D0006860002070BD000074270020741F0020A5
:10F8E000FFB5284881B000791F4616460C464007F0
:10F8F00002D4082005B0F0BD002C1DD001980028CE
:10F900001AD02068022815D20C211F4D48432958CF
:10F9100000290FD041194A89088949684243511882
:10F920006268914206D9002E04D0B04202D3F11988
:10F93000814203D90720DDE70E20DBE70198FFF7BE
:10F94000A7F800281BD03846FFF7A2F8002816D0E9
:10F950006068FFF79DF8002811D060683246C11931
:10F960000198FBF70DFC009620680C2148432D58A8
:10F97000002202212046019BA8470020BAE7102060
:10F98000B8E70000741F002040280020F8B52C4D77
:10F99000044628790E46400701D40820F8BD002C03
:10F9A00020D0002E1ED0206800281BD0FFF764FF57
:10F9B0000146A088814213D3102811D3E088002883
:10F9C0000ED0FFF747FF471EFFF756FF4743E28879
:10F9D000A188A8684A431218974201D3890703D027
:10F9E0000720F8BD0E20F8BD6988022926D03160B5
:10F9F0000C22144B51437060CA1850602068585054
:10FA0000A0881081E0885081FFF736FF0646FFF797
:10FA100033FFA188E288401E514340183146FBF76E
:10FA20009BFB0446FFF728FF0146A86861430818BE
:10FA3000A8606888401C68800020F8BD0420F8BDDC
:10FA4000741F002040280020F8B5044621481E46B7
:10FA5000007915460F46400701D40820F8BD002F55
:10FA60001CD0002C1AD02168022915D20C20414349
:10FA700019484258002A0FD0081842890189406865
:10FA80004A4310186268904206D9002D04D0A9425A
:10FA900002D3A819884203D90720F8BD0E20F8BD6B
:10FAA0003846FEF7F5FF002811D03046FEF7F0FF8C
:10FAB00000280CD06068FEF7EBFF002807D02B462B
:10FAC0003A46214601200096FDF78AFFF8BD102036
:10FAD000F8BD0000741F00204028002010B5114917
:10FAE00002460878002811D004280FD0022A16D028
:10FAF000032A0BD10A79120711D48A69521C8A6130
:10FB0000032A08D0022802D000F02CF910BD487852
:10FB100000F080FA10BD0D20FCF774FD10BDFEF75B
:10FB2000A1FD10BD741F0020F8B5044621481E46F3
:10FB3000007915460F46400701D40820F8BD002F74
:10FB40001CD0002C1AD02168022915D20C20414368
:10FB500019484258002A0FD0081842890189406884
:10FB60004A4310186268904206D9002D04D0A94279
:10FB700002D3A819884203D90720F8BD0E20F8BD8A
:10FB80003846FEF785FF002811D03046FEF780FF8B
:10FB900000280CD06068FEF77BFF002807D02B46BA
:10FBA0003A46214604200096FDF71AFFF8BD1020C2
:10FBB000F8BD0000741F00204028002070B501240B
:10FBC0000B49600408600B494010886009494039BE
:10FBD0008860094D6C602F20FBF77CFAAC60074D04
:10FBE00000242F202C61FBF775FAEC7070BD00002B
:10FBF00080E100E04013014000100140B41F0020EC
:10FC000030B50A48FF21C57D0022094C0931094B56
:10FC1000002D625007D09969437EC268D154417E5D
:10FC2000491C417630BD986930BD0000582700203E
:10FC300000200040002500401FB501236A461370D4
:10FC400010720348019106C8684690471FBD000026
:10FC500058270020FF220548253200218150FF222D
:10FC600009328150012101607047000000200040EE
:10FC700008B502490020009108BD0000001F0020C7
:10FC8000FFB50746806A81B0144600283DD00025A4
:10FC900038462030009033E00C20B96A68430E18D3
:10FCA000B088801CFE2802D90C2005B0F0BD228847
:10FCB0000299401C885420881622401C80B2208063
:10FCC00002990A542088401C80B220800299411871
:10FCD000308800F097FB2188401880B22080B288DD
:10FCE000002A0AD0B16800290FD0029BC018FBF788
:10FCF00047FA2088B188401820806D1C0098EDB22A
:10FD0000007BA842C8D80020CFE70720CDE700B588
:10FD100000220A700300FBF72AFE060406080A0CFC
:10FD20000E10002008E0112006E0212004E0312020
:10FD300002E0122000E02220087000BD10B5002073
:10FD4000FDF70AFB002801D0FCF70AFCFDF722FAB8
:10FD5000002801D0FCF704FC3CDF002801D0FCF7B0
:10FD6000FFFB10BD10B50F490028087009D001280D
:10FD700011D0022812D0032802D14869FEF7B2FC44
:10FD800010BD00208861C861074840780028F7D07E
:10FD9000FDF7FAFD10BD00F0F5F810BD00F054F8C5
:10FDA00010BD0000741F002074270020002803D01D
:10FDB0000249C860002070470E207047D41F002001
:10FDC0001CB5034901910091694660DF1CBD00002C
:10FDD000001F002070B50E4605461446142110463B
:10FDE000FBF7E7F9012000212080216121732672B1
:10FDF0006572002D00D0A072002070BD10B5FCF718
:10FE0000A1FB10BD70B5002901D08C0701D00720DF
:10FE100070BD064C0125A16062800549636010DF5A
:10FE20000028F5D1257016202EDF70BDD41F0020CC
:10FE3000FDFD0100002803D0024908610020704741
:10FE40000E207047D41F0020F8B5164C14226068AD
:10FE50004008400060601448017851430E1837692B
:10FE6000FFF70AFD01463846FBF760F90546606179
:10FE7000FFF702FD0146F0887F1EC019FBF756F917
:10FE800002228542606801D1104300E09043606027
:10FE9000E1681040084303D0002000F0BBF8F8BD33
:10FEA0000220FAE7741F00207427002010B50248D2
:10FEB0004069FEF717FC10BD741F002010B5FFF756
:10FEC000C9FC441EFFF7D8FC4443FFF7D5FC0449A6
:10FED0004A69521E5043CA682146FEF708FC10BD0D
:10FEE000741F0020F8B510481422017851430C18F3
:10FEF0002569FFF7C1FC0146E08822898018401976
:10FF0000FBF714F90F46FFF7A5FC461EFFF7B4FCFC
:10FF10004643E0882289F1198018044A4019126981
:10FF2000FEF7E5FBF8BD000074270020741F0020D9
:10FF300070B5FFF7A1FC0546FFF78CFC441EFFF7E8
:10FF40009BFC60432946FBF7F1F8FEF7CBFB70BD45
:10FF500070B5FFF791FC8608FFF78EFC07494969E9
:10FF600048430446FFF776FC451EFFF785FC6843CF
:10FF700032462146FEF7BBFB70BD0000741F002017
:10FF80000020704770B514481422017851430C18B2
:10FF9000241DFFF771FC6188104E884211D2FFF7D3
:10FFA0006BFC61880D1AFFF767FC8208A188E06886
:10FFB0004018216940194919FEF799FBFFF75CFCCD
:10FFC00007E0A288E06880188A082169FEF78FFBA5
:10FFD0006088F06170BD000074270020741F00204D
:10FFE00010B505480079000703D4012000F012F88D
:10FFF00010BD00F003F810BD741F002010B50448B8
:020000040002F8
:100000000822416891434160407800F003F810BD38
:10001000741F0020024948700249800008580047B8
:10002000741F0020A006020010B50446FFF756FD1D
:100030002046FCF725FD10BD10B5054800790007E6
:1000400002D4FDF78FFC10BDFFF7D8FF10BD0000F4
:10005000741F0020FEB51F4C00252769E068029040
:100060006846FEF7BBFA0190FEF74EFD0646019882
:10007000002822D000230098E16817E00E680A46A5
:10008000864202D9301A086012E0801BF31800265D
:100090001660D668D169B446002E07D0FE18360225
:1000A000360A566066469660D56115460029E5D148
:1000B0002846E160FEF786FD06E02846FEF782FD51
:1000C000002801D1002E02D00298FDF7CDFC0020BF
:1000D0002071FEBDB41F0020012002490005086008
:1000E0007047000000E200E010B50E4BD96800290F
:1000F00006D002680C68A24204D8A21A0A60C16144
:10010000D86010BD0B4604E00B46C969121B0029DC
:1001100004D00C689442F7D3A41A0C600260C16149
:10012000D86110BDB41F0020F8B51D4DEC68002C3F
:1001300034D01C48002740682969401A0602360A54
:100140002068B04218D8361AC7192246107CE469D4
:1001500000280FD0002010746B69002B07D0916924
:1001600050699847002805D0FCF7FAF902E0516978
:1001700090698847002CE3D16978A878814206D13C
:10018000401CC0B2A870022801D10020A870044908
:100190000006800D18310F50FFF79EFFF8BD0000DC
:1001A000B41F002000150140FF2107481D31002227
:1001B00042500648828A8168895C828A521C828207
:1001C0000348C1617047000000200040582700200C
:1001D000002500401FB500216A46117010720448C6
:1001E00082680192817506C8684690471FBD00006D
:1001F0005827002010B50178002906D0012901D028
:10020000022902D14068FCF7ABF910BD7CB501783A
:10021000284D01290AD002292FD000292CD12946A6
:100220002548FCF7AFF9002833D036E04068017864
:1002300021481038FCF7C3F91F4C103C002805D0AA
:1002400001216A4611700190684608E0A068E168E3
:10025000081A012805D100206946087068466968B7
:100260008847A068E168081AA188884204D8114824
:100270000121801CFEF7F2FF7CBD02216A4611704D
:10028000C06801900B480121801CFEF7E7FF68461B
:100290000CE001210748FFF761F807488168C06852
:1002A0008842E9D103206946087068466968884732
:1002B0007CBD0000981F002068280020F0B5454D47
:1002C000012185B049022846FFF7E9F801270026F9
:1002D000414C002824D0FF2125312846FFF7DAF8C9
:1002E00000281DD0FF2025302E5081203B49800062
:1002F0008860A07E002800D16F60022168460170EE
:100300003749086808600390E17D68460172E0683B
:100310000190E675267606CC6846083C90472BE0AF
:1003200004212846FFF7BBF8002825D0FF2109311A
:100330002846FFF7AFF800281ED0FFF761FCE07DEC
:10034000617E884218D1207E002808D0627EE16854
:10035000E0752069E0602676667610460AE0A07EA9
:10036000002800D16F6081201C4980008860E675FC
:10037000607EE168FFF760FCFF211D312846FFF732
:1003800089F800280DD0A18AA07D814202D2FFF712
:100390000BFF06E0FF211D316E50002801D0FFF752
:1003A00019FFFF2145312846FFF774F800280ED0C9
:1003B000FF2045302E50A07E002800D02F60E07D29
:1003C000002804D0E675607EE168FFF735FC05B0D3
:1003D000F0BD00000020004058270020002300400E
:1003E0008024004070B50546002405E0285D002803
:1003F00007D0FCF72DFA641C2846FAF7E5FEA04268
:10040000F4D870BD0870000A4870022070470000E0
:1004100001218140024842688A43426070470000DF
:100420005C1F002038B51549154A488890420FD006
:100430004A78144C521CD2B24A70237B934208D3A0
:10044000091D75DF002803D0A169002900D0884765
:1004500038BD00254D70217C002907D03B2176DF77
:10046000002803D0A169002900D0884761690029CC
:10047000EED068460570884738BD0000481F002050
:10048000FFFF0000A425002012494868C005C00DE8
:1004900019D0103840B2002807DA0207120F083AC4
:1004A000920892005118C96904E081080A4A89003B
:1004B000891809688007C00EC1400806800F01280E
:1004C00003D0032803D0022070470020704701208A
:1004D0007047000000ED00E000E400E0427883781F
:1004E000521CD2B2934200D100220378934201D130
:1004F000002070470A70416840781822504308185D
:100500007047FFB583B016460C9D0D9C1F46022216
:1005100000950194039800F00CF8002807D13B46A1
:100520001022314600950194039800F002F807B0BC
:10053000F0BDFFB583B0074600200C9C8646268898
:1005400005463AE07868A90042181188684681801B
:100550005188C1800022694601A865DF002839D191
:10056000684601780598814226D17046002801D05E
:10057000002200E002222088891842180D998A4240
:1005800027D8714600290AD1401C80B22080069AE3
:10059000049911542088401C20800120864621881F
:1005A00006980A18694601A865DF002812D1694635
:1005B00020880978401820806D1C3888A842C1DC4A
:1005C000704600280AD02088801B401E80B2FF2879
:1005D00002D90C2007B0F0BD069988550020F9E734
:1005E0000179002902D1007B002800D0012070474A
:1005F0000B09080A0100000000509D00142400208F
:1006000034240020602400201100000012000000AB
:10061000130000001400000011000300A9D1010024
:1006200012000300A9D1010013000300A9D10100A9
:1006300014000300A9D1010084250020FFFFFFFF63
:1006400073EF0100E5E7010001E70100A1E8010007
:100650006FEF0100B5E70100FDE6010099E8010038
:100660006BEF010005E70100F9E6010091E80100E8
:10067000FC19A45DFE29548E1D462C7E00001C49E9
:10068000090000000B0000000A0000000800000044
:10069000000000000000000000509D00030000006A
:1006A00031FF010051FF0100ADFE0100E5FE010038
:1006B000BDFE0100E1FF0100B1DC01005DDC0100D5
:1006C00039000200F9E80100090000000B000000F9
:1006D0000A00000008000000000000000000000008
:1006E00000509D0003000000782800200300000057
:1006F00010070200001F0020EC00000088B9010074
:10070000FC070200EC1F0020AC10000098B90100AB
:100710000000FFFF0A1801000000000000000000B8
:1007200000000000000000000000000000000000C9
:1007300000000000000000000000000000000000B9
:10074000FFFF0000000000000000000000000000AB
:100750000000000000000000000000000000000099
:100760000000000000000000000000000000000089
:100770000000000000000000000000000000000079
:100780000000000000000000000000000000000069
:100790000000000000000000000000000000000059
:1007A0000000000000000000000000000000000049
:1007B0000000000000000000000000000000000039
:1007C0000000000000000000000000000000000029
:1007D0000000000000000000000000000000000019
:1007E0000000000000000000000000000000000009
:0C07F00000000000000000000024F400E5
:040000050001B0C185
:00000001FF
