:10000000000002204D230000832300008523000010
:1000100087230000892300008B2300008123000038
:100020008123000081230000812300008D23000034
:100030008F23000081230000912300009323000000
:100040009523000079020000992300009B23000003
:100050009D2300009F230000A1230000A323000094
:10006000A5230000A7230000A923000085020000AB
:10007000AD230000AF230000B1230000B323000034
:10008000B5230000B7230000B9230000BB23000004
:10009000BD230000BF230000C1230000C3230000D4
:1000A000C5230000C7230000C1020000CB230000CD
:1000B000CD230000CF230000D123000091020000D7
:1000C000D5230000D7230000D9230000DB23000044
:1000D000DD230000DF230000E1230000000000001A
:1000E0000000000000000000000000000000000010
:1000F0000000000000000000000000000000000000
:1001000010B5054C237833B9044B13B10448AFF351
:1001100000800123237010BD740000200000000047
:10012000E830000008B5064B1BB106480649AFF39E
:1001300000800648036813B1054B03B1984708BD1A
:1001400000000000E830000078000020740000206B
:1001500000000000154B002B08BF134B9D46A3F574
:10016000803A00218B460F461348144A121A02F0B7
:1001700053FA0F4B002B00D098470E4B002B00D0AA
:1001800098470020002104000D000D48002802D0EF
:100190000C48AFF3008002F019FA2000290000F0AB
:1001A000BFF802F0FFF900BF0000080000000220C5
:1001B000000000000000000074000020B4000020D7
:1001C000000000000000000080B483B000AF0346D0
:1001D000FB71084B97F907205209F97901F01F01CB
:1001E000012000FA01F143F822100C37BD465DF8FA
:1001F000047B704700E100E080B582B000AF0C4B9B
:100200001B687B603B46184601F000FE7B681B0EB6
:100210000F2B0AD93B78032B07D1064B054A1268EE
:1002200022F0500242F010021A600837BD4680BD2D
:10023000FC81E00FC0800C4080B483B000AF7860D8
:10024000034B7A681A630C37BD465DF8047B704730
:100250000010084080B483B000AF7860054B054AB9
:10026000516B7A680A435A630C37BD465DF8047BCC
:10027000704700BF0010084080B500AF00F002F9E1
:1002800080BD00BF80B500AF00F0FCF880BD00BFAE
:1002900080B500AF0220FFF7CFFF074B1B685A1C49
:1002A000054B1A60054B1B68002B04D0024B1B68E2
:1002B000184601F025FF80BD900000209800002026
:1002C00080B582B000AF124B114A126A9A62114B8C
:1002D0001B683A1D104610491A4602F0A5F93B1D4D
:1002E000184601F0C7FF0B4B1B68002B07DC01F021
:1002F00001FE0A4B00221A60054B02225A60054B90
:100300001B685A1E034B1A600837BD4680BD00BFEC
:100310000020084094000020802E0000980000205B
:10032000B0B586B000AFFFF767FF4C48012100F081
:10033000FFFC01200121012201F086F801200021AB
:1003400001F050FD464B464A526C42F400525A644A
:10035000444B444AD26A42F02002DA62414B414A9D
:10036000D26A42F40072DA623E4B4FF4C0621A6302
:100370003C4B4FF48872C3F804213A4B4FF4C062EF
:10038000C3F80C21374B4FF4C062C3F81021354B32
:10039000344AD2F8942042F4A062C3F89420314B3E
:1003A000304AD2F8942042F4A042C3F894202D4B56
:1003B0000122C3F890202C4B3C1D1D460FCD0FC4CD
:1003C0002B68236001233B7102237B710023BB71E7
:1003D0004FF480533B810123FB6000233B610123E9
:1003E0003B7501237B750023BB75002047F6FF7129
:1003F00000F07CF91F20FFF7E7FE0220FFF72AFF3D
:100400003B1D184600F0FEF8154B01229A62144B72
:1004100010221A64124B04229A65144B4FF4007296
:100420001A60124B4FF400421A61104B0122DA623B
:100430000F4A0F4B19680F4B0B431360002001F05C
:1004400003FE0D4B00221A600C4B00221A600C4B6D
:1004500000221A60002001F025F9FBE700430400A8
:1004600000800C4000600040842E00000020084006
:1004700000E100E002080004900000209400002049
:100480009800002080B500AF0B4B0B4AD2F8142126
:10049000C3F81C21094B01221A60094B1B6818463E
:1004A00001F02EFE074801F0E5FE074B02221A601C
:1004B000064B01225A6080BD006000409800002079
:1004C00090000020982E000094000020002008409A
:1004D00080B487B000AFF860B9607A60FB6803F160
:1004E0000473DA00BB6813449B007B617B697A6804
:1004F0001A601C37BD465DF8047B704780B483B03A
:1005000000AF7860034B7A681A630C37BD465DF81C
:10051000047B70470010084080B582B000AF0346EE
:10052000FB71FB79002B05D00E4B1B6803F0030316
:10053000002B05D1FB7983F00103DBB2002B00D047
:1005400000BFFB79002B05D0064803210022FFF7EE
:10055000BFFF04E0034803210122FFF7B9FF08377A
:10056000BD4680BD0010084080B582B000AF034694
:10057000FB71FB79034800211A46FFF7A9FF0837F2
:10058000BD4680BD3810084080B487B000AF7860A9
:100590007B68002B04D07B68B3F5004F00D800BF08
:1005A0007B683B613B69B3FA83F3FB60FB68DBB2BA
:1005B000C3F11F037B617B6918461C37BD465DF89C
:1005C000047B704780B483B000AF78600C4B9B6BAA
:1005D00003F00103002B05D1094B1B6803F44053C2
:1005E000002B00D006E000BF054BDA6B7B681340A0
:1005F000002BF9D10C37BD465DF8047B704700BF76
:100600000010084080B584B000AF78607B689B68BC
:10061000002B04D07B689B68802B00D800BF7B68D0
:100620001B7883F00103DBB2002B07D17B681B78BA
:10063000002B04D07B685B78002B00D000BF7B6868
:100640009B88B3F5405F08D17B689B88B3F5405F1A
:1006500004D17B689B7C002B00D100BF7B689B682A
:100660001846FFF791FFF8607B681B78002B02D0DB
:100670000120FFF779FF0120FFF7A4FF1A4B7A68EA
:10068000927C5A607B685B7843F00803DBB21A46C1
:100690007B689B789B001A437B685B7C1B011A4339
:1006A0007B68DB685B011A43FB681B021A437B68AB
:1006B0009B881A437B681B7C9B031343BB604FF0F2
:1006C000FF30FFF71BFF084BBA681A607B681B7886
:1006D000002B05D00120FFF71FFF0020FFF744FF8C
:1006E0001037BD4680BD00BF0010084080B582B005
:1006F00000AF786039600220FFF764FF024B3A6870
:10070000DA600837BD4680BD0010084080B487B06D
:1007100000AFF860B9607A60FB6803F10473DA0037
:10072000BB6813449B007B617B697A681A601C3745
:10073000BD465DF8047B704780B483B000AF1D4BAD
:10074000DB6C03F47F031B0CFB71FB794A2B04D099
:100750004B2B26D0482B22D025E0174B1B699BB290
:1007600003F03F039BB21B02BB80134B9B699BB200
:1007700003F0F0039AB2BB881343BB800E4BDB69D6
:1007800003F0F0031B099AB2BB881343BB80BB88FC
:10079000B3F5017F01D3094B06E0094B04E0084B98
:1007A00002E0064B00E0002318460C37BD465DF81A
:1007B000047B7047B081E00FD0FF0FE000366E0180
:1007C0000048E80180B485B000AF7860284BDB6B4F
:1007D000002B0CBF00230123BB72254B41F6713265
:1007E000DA63234B5B6803F00703FB60FB68012BB4
:1007F00001D9042B02D10023FB7202E00123FB721A
:1008000000BF7A681B4B9A4207D9FB7A002B01D0B4
:10081000052300E00423FB6016E07A68154B9A423A
:100820000BD87A68144B9A4207D9FB7A002B01D077
:10083000032300E00123FB6006E0FB7A002B01D0DC
:10084000022300E00023FB60094B094A526822F0B2
:100850000701FA680A435A60BB7A002B02D0044BA6
:100860000022DA631437BD465DF8047B704700BF91
:1008700000000C400048E8010024F40080B582B07C
:1008800000AF044B7B607868FFF79CFF0837BD46DC
:1008900080BD00BF006CDC0280B487B000AF786020
:1008A0007B68002B04D07B68B3F5004F00D800BFF5
:1008B0007B683B613B69B3FA83F3FB60FB68DBB2A7
:1008C000C3F11F037B617B6918461C37BD465DF889
:1008D000047B704780B582B000AF104800F096FBF3
:1008E0000346FB70FB78032B07D0082B09D0022BA3
:1008F0000BD101F047FE78600AE001F02FFE78602E
:1009000006E001F0A1FD786002E000237B6000BFFB
:100910007B6818460837BD4680BD00BF05231C0014
:1009200080B483B000AF1A4B5B6903F4E063B3F5A6
:10093000007F14D0B3F5007F05D8002B15D0B3F598
:10094000807F0FD01AE0B3F5C06F14D0B3F5E06F1D
:100950000ED0B3F5407F11D10E4B7B6011E00E4BF2
:100960007B600EE00D4B7B600BE00D4B7B6008E085
:100970000C4B7B6005E00C4B7B6002E000237B604E
:1009800000BF7B6818460C37BD465DF8047B704796
:1009900000800C4040420F00C0CF6A00C0D8A700C2
:1009A000809FD500406F4001003FAB0180B582B011
:1009B00000AF124800F02AFB0346FB70FB78072BC0
:1009C0000FD0082B11D101F03FFD78600C4B1B6854
:1009D00003F4E0339B0B01337A68B2FBF3F37B60E3
:1009E00006E0FFF79DFF786002E000237B6000BF18
:1009F0007B6818460837BD4680BD00BF040018005C
:100A000000800C4080B584B000AF78607B68002B1C
:100A100002D07B68012B00D100BF264B9A6A7B680D
:100A20005B0022FA03F303F00303032B3AD801A27D
:100A300052F823F0850A0000450A00004D0A000024
:100A4000550A000001F08AFDF8602EE001F09AFDE1
:100A5000F8602AE0174B5B6803F48073002B05D124
:100A6000144B1B6803F08043002B05D001F0C8FC39
:100A700003469B08FB6018E001F0C2FC03465B08DC
:100A8000FB6012E00B4B9A6A7B6804339B0022FAEE
:100A900003F3002B03D001F06BFDF86005E00023A9
:100AA000FB6002E00023FB6000BFFB6818461037C4
:100AB000BD4680BD00800C4080B483B000AF78603C
:100AC000094B5B6D03F00103002B00D006E000BF73
:100AD000054B1A6D7B681340002BF9D10C37BD46CE
:100AE0005DF8047B704700BF00800C40B0B584B057
:100AF00000AF786039607B681B0903F00F03FB606F
:100B0000FB68013B042B00F2FE8001A252F823F0A7
:100B1000590B0000830B0000EF0B0000B30C00002A
:100B2000250B00003B68002B03D03B68082B00D846
:100B300000BFFFF7A3FE764B754A126822F4E0313E
:100B40003A68013A92030A431A6001F059FCB8600E
:100B5000B868FFF737FED7E03B68002B04D03B684E
:100B6000B3F5007F00D800BF3868FFF795FE386006
:100B7000674B674A926822F00F013A680A439A600D
:100B8000C2E0FFF77BFE512000F042F902463B68CD
:100B9000B2FBF3F4FFF7D0FD03469C420AD85C4851
:100BA0001E210022FFF7B2FD5A4808210022FFF75C
:100BB000ADFD09E056481E210122FFF7A7FD55486B
:100BC00008210122FFF7A2FD3868FFF765FE3860B3
:100BD0004F4B4F4A526822F00F013A680A435A605D
:100BE00001F00EFCB860B868FFF7ECFD8CE07B68A4
:100BF000494A93421ED0484A934203D8474A9342F7
:100C000007D055E0464A934225D0464A93423FD00A
:100C10004EE00420FFF750FF3868FFF73DFE3860D4
:100C20003B4B3B4A926E22F0F0013A6812010A43B4
:100C30009A663DE00420FFF73FFF3868FFF72CFE7F
:100C40003860334B324A926E22F470613A68120275
:100C50000A439A662CE03B680F2B03D93B68802B34
:100C600000D800BF0420FFF727FF3868FFF714FE05
:100C70003860274C264B9B6E23F440551020FFF71D
:100C80000BFE03463A68D31A1B032B43A3660FE0FF
:100C90000420FFF711FF3868FFF7FEFD38601C4B9A
:100CA0001B4A926E22F003013A680A439A6600BF1B
:100CB0002AE07B681C4A934203D01C4A934210D01E
:100CC00020E04020FFF7F8FE3868FFF7E5FD3860C8
:100CD0000F4B0F4A126F22F003013A680A431A675A
:100CE00010E04020FFF7E8FE3868FFF7D5FD3860D8
:100CF000074B074A126F22F030013A6812010A438B
:100D00001A6700BF00E000BF1037BD46B0BD00BF8E
:100D100000800C4004800C4030240A00301408008D
:100D200030000C003004100040051400401516007F
:100D300090B587B000AF78600B46FB7000233B6135
:100D40007B681B0A03F00F03013B052B4AD801A265
:100D500052F823F06D0D0000730D0000790D0000B6
:100D6000A70D0000B10D0000BB0D00001F4B7B6103
:100D700026E01F4B7B6123E01E4B7B611E4800F089
:100D800047F80446FFF7D8FC03469C420AD91B48A3
:100D90001E210122FFF7BAFC194808210122FFF7A2
:100DA000B5FC0DE00CE0174B7B6101233B6107E0D4
:100DB000154B7B6110233B6102E0144B7B6100BF4C
:100DC0007B681B0B03F01F03FB603B69002B02D009
:100DD0003869FFF771FEFB787869F9681A46FFF702
:100DE00095FC00E000BF1C37BD4690BD08800C405C
:100DF00044800C4040800C402000040000800C40E7
:100E000004800C4058800C4060800C4078800C407E
:100E100090B585B000AF78607B6803F47813B3F5C4
:100E2000602F00F09980B3F5602F18D8B3F5C02F6C
:100E30005ED0B3F5C02F08D8B3F5003F3ED0B3F570
:100E4000802F51D0002B2BD0D6E0B3F5202F62D0CD
:100E5000B3F5402F6DD0B3F5002F4ED0CCE0B3F5F5
:100E6000B01F00F0AF80B3F5B01F0CD8B3F5901FE2
:100E700000F09680B3F5A01F00F09780B3F5801FB7
:100E800000F08180B8E0B3F5D01F00F0AD80B3F57D
:100E9000E01F00F0AD80B3F5C01F00F0A180ABE013
:100EA00001F0D2FAF860584B1B6803F4E0339B0B57
:100EB0000133FA68B2FBF3F3FB60A0E001F0C4FA7F
:100EC000F860514B1B6803F4E0339B0B0133FA6865
:100ED000B2FBF3F3FB604C4B9B6803F00F03FA6823
:100EE00022FA03F3FB608AE001F08AFAF86086E0F8
:100EF0000020FFF787FDF86081E00020FFF782FD0A
:100F0000F860414B9B6E03F0F0031B09FA6822FA6C
:100F100003F3FB6073E00020FFF774FDF8603A4BC9
:100F20009B6E03F470631B0AFA6822FA03F3FB60FA
:100F300065E00020FFF766FDF860334B9B6E03F41D
:100F400040531C0B1020FFF7A7FC03462344FA680C
:100F500022FA03F3FB6052E00020FFF753FDF86034
:100F6000294B9B6E03F440531B0BFA6822FA03F3E0
:100F7000FB60254BDB6F03F007030133FA68B2FB1C
:100F8000F3F3FB603BE00020FFF73CFDF8601E4BF5
:100F90009B6E03F00303FA6822FA03F3FB602EE072
:100FA0000120FFF72FFDF86029E00120FFF72AFD5F
:100FB000F860154B1B6F03F00303FA6822FA03F382
:100FC000FB601CE00120FFF71DFDF8600E4B1B6F5E
:100FD00003F030031B09FA6822FA03F3FB600EE00A
:100FE000FFF7E4FCF8600AE0FFF79AFCF86006E01F
:100FF000FFF770FCF86002E00023FB6000BFFB68B5
:1010000018461437BD4690BD00800C4080B487B0B0
:1010100000AF78600123FB754FF470533B617B6830
:1010200003F00F03FB60FB68013B042B00F293808D
:1010300001A252F823F000BF4D1000008310000001
:10104000BF100000FB10000021110000474BDA6ABE
:101050003B691340B3F5805F09D0B3F5005F03D05F
:10106000B3F5006F06D008E00223FB7508E0032308
:10107000FB7505E00423FB7502E00523FB7500BF4B
:101080006CE03A4B9B6A03F00303022B06D0032B60
:1010900007D0012B08D10323FB750FE00223FB755A
:1010A0000CE00623FB7509E0304B9B6A03F48033A8
:1010B000002B02D00923FB7500E000BF4EE02B4B54
:1010C0009B6A03F00C03082B06D00C2B07D0042BD3
:1010D00008D10323FB750FE00223FB750CE0062308
:1010E000FB7509E0214B9B6A03F48013002B02D0AF
:1010F0000923FB7500E000BF30E00723FB751B4BA5
:101100001B6803F08053002B03D0B3F1805F03D042
:1011100024E00723FB7502E00823FB7500BF1DE0F8
:10112000124BDB6A03F46033B3F5803F06D0B3F5AE
:10113000003F06D0B3F5004F06D008E00223FB7550
:1011400008E00323FB7505E00823FB7502E001239B
:10115000FB7500BF02E00023FB7500BFFB7D184656
:101160001C37BD465DF8047B704700BF00800C4013
:1011700090B589B000AF78600B46FB700323FB612C
:101180000323FB7600237B617B6803F00F03FB6086
:10119000FB68013B042B00F22A8101A252F823F0E4
:1011A000B511000081120000811200005D130000E3
:1011B00087130000FB78023B072B00F21A8101A283
:1011C00052F823F0E5110000EF110000F9110000C2
:1011D0004D120000F3130000F3130000F31300009E
:1011E000571200000423FB610023FB7634E0032345
:1011F000FB610123FB762FE00223FB610223FB76D8
:1012000001F09AF90446FFF797FA03469C4213D976
:101210007B4A7B4B1B6843F0804343F060031360C1
:10122000774B1B6C03F01003002B0ED07548082180
:101230000122FFF76BFA0FE0714B714A126822F03E
:10124000600242F020021A6006E005E00123FB6123
:101250000323FB7600E000BFFB7E1846012101223C
:1012600000F0F2F8FFF70AFB654BFA695A6200F0EA
:1012700067FA01F0C5F8B860B868FFF7A3FABBE0F9
:10128000FB78013B082B00F2B68001A252F823F054
:10129000B5120000BB120000CB120000F7130000D3
:1012A000F7130000DB120000F7130000F713000033
:1012B0001313000000233B6130E0002001210122D4
:1012C00000F0C2F802233B6128E001200121012245
:1012D00000F0BAF801233B6120E04B4804210122D1
:1012E000FFF714FA03233B6101F08AF8B860FFF7B7
:1012F00023FA0246BB689A420AD241481E210122C3
:10130000FFF704FA3F4808210122FFF7FFF905E043
:1013100004E000233B6101237B6100BFFB68022BDB
:101320000DD1374A364B9B6A23F4803323F00303F5
:10133000396919437B691B040B4393625CE0304AB3
:101340002F4B9B6A23F4801323F00C033969890027
:1013500019437B691B050B4393624DE0FB78072B18
:1013600002D0082B07D047E0254B254A126822F00F
:1013700080521A6006E0224B214A126842F08052E5
:101380001A6000BF38E0FB78032B14D0082B22D062
:10139000022B00D030E000200121012200F054F89F
:1013A000174B40225A6200BF154BDB6A03F48033AF
:1013B000002BF9D01AE001200121012200F044F8AD
:1013C0000F4B60225A6200BF0D4BDB6A03F40033FF
:1013D000002BF9D00AE00A4B20225A6200BF084BCA
:1013E000DB6A03F40043002BF9D000BF04E000BF28
:1013F00002E000BF00E000BF2437BD4690BD00BF43
:1014000000800C4004800C4040800C4080B483B0CD
:1014100000AF78600B4B9B6D03F00803002B00D0EE
:101420000BE07B6803F007037B60064B054AD26F35
:1014300022F007017A680A43DA670C37BD465DF887
:10144000047B704700800C4080B586B000AF134627
:101450000246FA710A46BA717B71FB79052B4CD8AA
:1014600001A252F823F000BFB9140000AB14000031
:101470008F140000811400009D140000FB14000074
:1014800001233B610223FB6002237B611EE00423F6
:101490003B610823FB6008237B6117E010233B615D
:1014A0002023FB6020237B6110E040233B618023ED
:1014B000FB6080237B6109E04FF480733B614FF454
:1014C0000073FB604FF400737B6100BFBB79002B9E
:1014D0000DD00C4B3A691A627B79002B0AD000BF01
:1014E000084BDA6A7B691340002BF9D002E0054B08
:1014F000FA681A6200F024F900E000BF1837BD4610
:1015000080BD00BF00800C4080B500AF00F078FFC8
:1015100080BD00BF80B400AF034B0022C3F884201D
:10152000BD465DF8047B704700800C4080B400AF7E
:10153000044B45F60E02C3F88420BD465DF8047BDB
:10154000704700BF00800C4080B584B000AF394BBD
:10155000D3F8843003F00103FB60FFF7E7FF0023BB
:10156000BB60354B1B6803F00103BA681343BB60D3
:10157000314B1B6803F01003BA681343BB602E4B5A
:101580001B6803F04003BA681343BB602A4B1B6817
:1015900003F00403BA681343BB60274B1B6803F4D2
:1015A0008073BA681343BB60224BBA681A624FF467
:1015B00070537B60204B1A687B681340B3F5805FE3
:1015C00006D0B3F5005F0ED0B3F5006F16D020E063
:1015D00000BF184BDB6A03F08003002BF9D0154BDA
:1015E00003225A6215E000BF124BDB6A03F400735A
:1015F000002BF9D00F4B04225A620AE000BF0D4BBA
:10160000DB6A03F00803002BF9D00A4B02225A626E
:1016100000BF094B1B6803F00103002B02D1054BEF
:1016200002221A62FB68002B01D0FFF773FF10370C
:10163000BD4680BD00800C409C00002080B483B07B
:1016400000AF174B1B699BB203F03F039BB21B0219
:10165000FB80134B9B699BB203F0F0039AB2FB88AB
:101660001343FB800E4BDB6903F0F0031B099AB2B6
:10167000FB881343FB80FB88B3F5827F03D3FB8891
:10168000B3F5017F01D1012300E0002303F0010342
:10169000DBB218460C37BD465DF8047B704700BFCF
:1016A000D0FF0FE080B586B000AF0346FB711F4B43
:1016B000DA6A1F4B1A601F4B1E4A126942F004027D
:1016C0001A61FFF7BBFF0346FB75FB7D002B11D0B2
:1016D000194B1A68194B1340FB60174BFA68C3F893
:1016E0008020154B5B6823F046033B61124B3A693F
:1016F000C3F8842030BFFB7D002B05D00E4BFA6869
:101700001A600D4B3A695A60FB79002B02D0FFF743
:101710001BFF07E0064B1B6803F48063002B01D11D
:10172000FFF7F2FE1837BD4680BD00BF00800C40B9
:101730009C00002000ED00E000E100E09CF1FD00D5
:1017400080B400AF034BDA6A034B1A60BD465DF804
:10175000047B704700800C409C00002080B483B064
:1017600000AF0346FB71FB79002B06D0084B084AFB
:10177000126842F001021A6005E0054B044A126843
:1017800022F001021A600C37BD465DF8047B7047F9
:1017900000A0084080B487B000AFF860B9607A60FC
:1017A000FB6803F10473DA00BB6813449B007B61A0
:1017B0007B697A681A601C37BD465DF8047B704708
:1017C00080B584B000AF7860184B5B68FB60002088
:1017D000FFF7C4FFFB6823F4830323F01F03FB60C0
:1017E0007B685B68FA681343FB607B681B7AFA6866
:1017F0001343FB607B685B7AFA681343FB607B688A
:10180000DB68FA681343FB607B681B8AFA68134342
:10181000FB60064BFA685A607B681B78002B02D08D
:101820000120FFF79BFF1037BD4680BD00A0084098
:1018300080B485B000AF78600D4B5B68FB60FB68DF
:1018400023F48033FB607B68002B08D0B3F5803F26
:1018500000D005E0FB6843F48033FB6000E000BF8C
:10186000034BFA685A601437BD465DF8047B704735
:1018700000A0084080B483B000AF02460B46FA8057
:101880007B717B79002B06D0094B094A9168FA8855
:101890000A439A6006E0064B054A9168FA88D243EB
:1018A0000A409A600C37BD465DF8047B704700BF64
:1018B00000A0084080B584B000AFF860B96013465E
:1018C000FB71FB68072B00F2C38001A252F823F0E2
:1018D000F11800001D1900004919000075190000D9
:1018E000A1190000CD190000F9190000251A000007
:1018F000BB681F2B07DCBA68FB79574811461A46AC
:10190000FFF748FFA5E0BB68203BBB60BA68FB79E6
:10191000524811461A46FFF73DFF9AE0BB681F2B5D
:1019200007DCBA68FB794E4811461A46FFF732FFCA
:101930008FE0BB68203BBB60BA68FB794948114621
:101940001A46FFF727FF84E0BB681F2B07DCBA6845
:10195000FB79454811461A46FFF71CFF79E0BB6842
:10196000203BBB60BA68FB79404811461A46FFF736
:1019700011FF6EE0BB681F2B07DCBA68FB793C489F
:1019800011461A46FFF706FF63E0BB68203BBB60C9
:10199000BA68FB79374811461A46FFF7FBFE58E054
:1019A000BB681F2B07DCBA68FB79334811461A461F
:1019B000FFF7F0FE4DE0BB68203BBB60BA68FB79E7
:1019C0002E4811461A46FFF7E5FE42E0BB681F2B82
:1019D00007DCBA68FB792A4811461A46FFF7DAFE97
:1019E00037E0BB68203BBB60BA68FB7925481146ED
:1019F0001A46FFF7CFFE2CE0BB681F2B07DCBA6846
:101A0000FB79214811461A46FFF7C4FE21E0BB6866
:101A1000203BBB60BA68FB791C4811461A46FFF7A9
:101A2000B9FE16E0BB681F2B07DCBA68FB791848C3
:101A300011461A46FFF7AEFE0BE0BB68203BBB60C9
:101A4000BA68FB79134811461A46FFF7A3FE00E077
:101A500000BF1037BD4680BD40A0084050A00840E0
:101A600044A0084054A0084048A0084058A008409E
:101A70004CA008405CA00840CCA00840B4A008409E
:101A8000D0A00840B8A00840D4A00840BCA008409E
:101A9000D8A00840C0A0084080B487B000AFF8606C
:101AA000B9607A60FB68072B00F2AC8001A252F8A3
:101AB00023F000BFD51A0000F91A00001D1B00001A
:101AC000411B0000651B00008D1B0000B51B0000C2
:101AD000DD1B00004E4B1B6C7B61BB68DB437A69EE
:101AE00013407B61BA687B6813407A6913437B615A
:101AF000474B7A691A6486E0454B5B6C7B61BB6837
:101B0000DB437A6913407B61BA687B6813407A696A
:101B100013437B613E4B7A695A6474E03C4B9B6C87
:101B20007B61BB68DB437A6913407B61BA687B6881
:101B300013407A6913437B61354B7A699A6462E09A
:101B4000334BDB6C7B61BB68DB437A6913407B61A1
:101B5000BA687B6813407A6913437B612C4B7A69BE
:101B6000DA6450E02A4BD3F8CC307B61BB68DB43AE
:101B70007A6913407B61BA687B6813407A691343C2
:101B80007B61234B7A69C3F8CC203CE0204BD3F82F
:101B9000D0307B61BB68DB437A6913407B61BA68F4
:101BA0007B6813407A6913437B61194B7A69C3F8E8
:101BB000D02028E0164BD3F8D4307B61BB68DB43E0
:101BC0007A6913407B61BA687B6813407A69134372
:101BD0007B610F4B7A69C3F8D42014E00C4BD3F827
:101BE000D8307B61BB68DB437A6913407B61BA689C
:101BF0007B6813407A6913437B61054B7A69C3F8AC
:101C0000D82000E000BF1C37BD465DF8047B70475C
:101C100000A0084080B487B000AFF860B9607A6077
:101C2000FB68072B00F2AC8001A252F823F000BF42
:101C3000511C0000751C0000991C0000BD1C000018
:101C4000E11C0000091D0000311D0000591D0000AD
:101C50004E4B1B6D7B61BB68DB437A6913407B6134
:101C6000BA687B6813407A6913437B61474B7A6992
:101C70001A6586E0454B5B6D7B61BB68DB437A6927
:101C800013407B61BA687B6813407A6913437B61B8
:101C90003E4B7A695A6574E03C4B9B6D7B61BB6837
:101CA000DB437A6913407B61BA687B6813407A69C9
:101CB00013437B61354B7A699A6562E0334BDB6D88
:101CC0007B61BB68DB437A6913407B61BA687B68E0
:101CD00013407A6913437B612C4B7A69DA6550E0D3
:101CE0002A4BD3F8B4307B61BB68DB437A6913407D
:101CF0007B61BA687B6813407A6913437B61234B2D
:101D00007A69C3F8B4203CE0204BD3F8B8307B614B
:101D1000BB68DB437A6913407B61BA687B68134018
:101D20007A6913437B61194B7A69C3F8B82028E0BC
:101D3000164BD3F8BC307B61BB68DB437A69134038
:101D40007B61BA687B6813407A6913437B610F4BF0
:101D50007A69C3F8BC2014E00C4BD3F8C0307B6127
:101D6000BB68DB437A6913407B61BA687B681340C8
:101D70007A6913437B61054B7A69C3F8C02000E0A0
:101D800000BF1C37BD465DF8047B704700A00840CB
:101D900080B483B000AF7860064B064A526822F4E4
:101DA000E0117A680A435A600C37BD465DF8047B3F
:101DB000704700BF00A0084080B487B000AFF86053
:101DC000B9607A60FB6803F10473DA00BB681344FE
:101DD0009B007B617B697A681A601C37BD465DF8A1
:101DE000047B704780B582B000AF02460B46FA71A3
:101DF000BB71FA79BB79044811461A46FFF7DCFF3C
:101E00000837BD4680BD00BF00A00C4080B485B03F
:101E100000AF7860194B5B69DBB203F00F03DBB2F4
:101E20009B00FB73154B1B6903F0C0039B09DAB2DF
:101E3000FB7B1343FB737B68FA7B9A700F4B1B6928
:101E4000DBB203F03F03DAB27B685A700B4B9B693D
:101E5000DBB223F00F03FB73084BDB6903F0F003E5
:101E60001B09DAB2FB7B1343FB737B68FA7B1A70A6
:101E70001437BD465DF8047B704700BFD0FF0FE00C
:101E800080B483B000AF0346FB71FB79002B03D015
:101E9000054B01221A6602E0034B00221A660C373A
:101EA000BD465DF8047B704700A0084080B483B055
:101EB00000AF786000BF054B5A6E7B681340002B63
:101EC000F9D10C37BD465DF8047B704700A008408F
:101ED00080B483B000AF7860054B054A916A7A6898
:101EE000D2430A409A620C37BD465DF8047B7047C6
:101EF00000A0084080B500AF002028490022FFF76D
:101F0000CBFD012025490022FFF7C6FD0220234911
:101F10000022FFF7C1FD032020490022FFF7BCFD8E
:101F200004201E490022FFF7B7FD05201B490022AF
:101F3000FFF7B2FD062019490022FFF7ADFD07208B
:101F400016490022FFF7A8FD0020FF210022FFF71D
:101F500061FE0120FF210022FFF75CFE0220FF212D
:101F60000022FFF757FE0320FF210022FFF752FE59
:101F70000420FF210022FFF74DFE0520FF21002253
:101F8000FFF748FE0620FF210022FFF743FE07204F
:101F9000FF210022FFF73EFE80BD00BF00F00FF0E2
:101FA00080B500AF072026490022FFF775FD062007
:101FB00024490022FFF770FD052022490022FFF787
:101FC0006BFD04201F490022FFF766FD03201D4919
:101FD0000022FFF761FD02201A490022FFF75CFD95
:101FE000012018490022FFF757FD00204FF0204143
:101FF0000022FFF751FD072007210022FFF70AFE0C
:10200000062007210022FFF705FE052007210022F8
:10201000FFF700FE042007210022FFF7FBFD03204D
:1020200007210022FFF7F6FD022007210022FFF71B
:10203000F1FD012007210022FFF7ECFD00BF80BD6C
:1020400000E00F5000E00FF080B582B000AF034613
:10205000FB7125480121FEF76BFE24480321FFF7A1
:1020600087F823484021FEF741FD0120FFF7CEF914
:1020700020480121FEF75CFE4FF0FF30FFF728FFFC
:102080001D48FFF79DFB08200121FFF7F3FB1020FF
:102090000121FFF7EFFB80200121FFF7EBFB4FF45D
:1020A00080700121FFF7E6FB4FF400700121FFF77C
:1020B000E1FBFB79002B0DD04FF44020FFF768FEC9
:1020C0004FF48030FFF7B4FB0C4B0C4AD26F42F058
:1020D0000802DA67FFF70EFF4FF0FF30FFF7E6FE6A
:1020E0000837BD4680BD00BF004304000200060063
:1020F00030000C0000340E009830000000800C40CE
:1021000080B58AB000AF78607A6842F20E739A4266
:1021100002DD42F20F737B607B6813F57A7F01DC8E
:102120003C4B7B607B68002B06DA786800F036FA5F
:1021300078600123BB6101E00023BB614FF0FF30F9
:10214000FFF7B4FE0120FFF79BFE00F06BF80123C0
:10215000FB6100233B6254E07A68FB6992FBF3F178
:102160002D4B83FB01239A10CB17D21A13469B00E9
:1021700013445B00CA1A1346FB82BB69012B04D1CE
:102180003B6A032B01D11023FB82FA8A234B33F8DD
:102190001230BB8200237B6227E021493A6A134652
:1021A000DB009B1A5B00CA187B6A1344C033DB7ADE
:1021B0003B611B493A6A1346DB009B1A5B00CA1855
:1021C0007B6A1344C0331B79FB60BA8A7B6A42FA8C
:1021D00003F303F00103002B04D0F86839690122EE
:1021E000FFF768FB7B6A01337B627B6A062BD4DDD9
:1021F000FA6913469B0013445B00FB613B6A0133A1
:102200003B623B6A032BA7DD0020FFF739FE28372E
:10221000BD4680BD19FCFFFF67666666743000002E
:102220009C2E000080B500AF012078210022FFF72E
:10223000F1FC022078210022FFF7ECFC032078213A
:102240000022FFF7E7FC042078210022FFF7E2FCE0
:10225000052078210022FFF7DDFC062078210022EE
:10226000FFF7D8FC072078210022FFF7D3FC00BF3E
:1022700080BD00BF80B58AB000AF7860786800F09C
:10228000F7F90346BB6100233B624FF0FF30FFF7D5
:102290000DFE0120FFF7F4FDFFF782FE00233B62F5
:1022A00046E03A6ABB699A4203DA7B681B787B6234
:1022B00001E020237B627B6A203B7B62214B7A6AB0
:1022C00033F81230FB820023FB6128E01E493A6A92
:1022D0001346DB009B1A9B00CA18FB6913440833A2
:1022E0009B793B6118493A6A1346DB009B1A9B00B5
:1022F000FA6913440B441B78FB60FA8AFB6942FAC3
:1023000003F303F00103002B06D0FA683B69104683
:1023100019460122FFF7CEFAFB690133FB61FB6925
:102320000D2BD3DD7B6801337B603B6A01333B625D
:102330003B6A062BB5DD0020FFF7A2FD2837BD461E
:1023400080BD00BFBC2F00009C2E000007488047C6
:102350000749084A084B9B1A40F30580043BC858BC
:10236000D0503FF7FBAF0548004700005125000063
:10237000F43000000000002074000020550100002F
:10238000FEE7FEE7FEE7FEE7FEE7FEE7FEE7FEE725
:10239000FEE7FEE7FEE7FEE7FEE7FEE7FEE7FEE715
:1023A000FEE7FEE7FEE7FEE7FEE7FEE7FEE7FEE705
:1023B000FEE7FEE7FEE7FEE7FEE7FEE7FEE7FEE7F5
:1023C000FEE7FEE7FEE7FEE7FEE7FEE7FEE7FEE7E5
:1023D000FEE7FEE7FEE7FEE7FEE7FEE7FEE7FEE7D5
:1023E000FEE700BF80B400AF044BDB6C1B0EDBB21A
:1023F0001846BD465DF8047B704700BFB081E00F12
:1024000080B582B000AF00F01FF878600C4B1B68FD
:1024100003F4E0339B0B01337A68B2FBF3F37B6088
:10242000074B5B6803F00F037A6822FA03F37B60C3
:10243000044B7A681A607B6818460837BD4680BD31
:1024400000800C40AC00002080B582B000AF2F4B64
:10245000DB6A03F47053B3F5805F0AD0B3F5005F15
:1024600003D0B3F5006F08D00BE0294B1B687B60ED
:1024700047E04FF400437B6043E0264B1B687B60E2
:102480003FE0224BDB6803F4E063B3F5007F1BD031
:10249000B3F5007F05D8002B24D0B3F5807F16D08C
:1024A0002BE0B3F5806F09D0B3F5A06F03D0B3F57F
:1024B000407F06D021E0184B7B6021E0174B7B600A
:1024C0001EE0174B7B601BE0164B7B6018E0FFF7AC
:1024D00089FF0346122B02D9134B7B6010E0134B8C
:1024E0007B600DE0FFF77EFF0346122B02D9104BF5
:1024F0007B6005E00F4B7B6002E000237B6000BF48
:1025000000BF7B6818460837BD4680BD00800C4080
:102510000400002000000020003FAB01406F40019C
:10252000809FD500C0D8A70040B56400C0CF6A0026
:10253000804F120040420F0080B400AF034B1B6875
:102540001846BD465DF8047B704700BF00000020C0
:1025500080B400AFBD465DF8047B704780B400AF27
:102560004FF400431846BD465DF8047B704700BF3A
:1025700080B400AF4FF47A731846BD465DF8047B13
:10258000704700BF80B400AF034B1B681846BD46C0
:102590005DF8047B704700BF040000200028B8BF2E
:1025A0004042704708B5074B044613B10021AFF312
:1025B0000080054B1868836A03B19847204600F0F5
:1025C00051FC00BF00000000B030000070B50E4BA1
:1025D0000E4D0024ED1AAD101E46AC4204D056F844
:1025E000242090470134F8E700F03EFC084D094BE9
:1025F0000024ED1AAD101E46AC4204D056F824203B
:1026000090470134F8E770BD6C0000206C0000209A
:10261000700000206C00002002440346934202D068
:1026200003F8011BFAE770470EB400B54FF40271CE
:102630009CB0ADF814106FF00041049107914FF673
:10264000FF711DABADF81610084953F8042B02902A
:102650000690086802A9019300F06EF8029B002220
:102660001A701CB05DF804EB03B0704768000020DE
:10267000034613F8012B002AFBD1181A01387047C2
:102680002DE9F0478D688146AB420C4692461F46C5
:1026900043D38B8913F4906F3DD0266809690222D9
:1026A000C1EB0608666906EB460696FBF2F608F1F2
:1026B00001023A44964238BF16465B050FD53146B3
:1026C00000F022FB054698B12169424600F0B4FAB9
:1026D000A38923F4906343F08003A38113E032467F
:1026E00000F066FB054670B94846216900F0C8FA5B
:1026F0000C23C9F80030A3894FF0FF3043F04003AA
:10270000A381BDE8F087256166614544C8EB0606F4
:102710002560A6603D46AF4200D23D462A4620686D
:10272000514600F092FAA36800205B1BA360236867
:102730001D442560BDE8F0872DE9F0439DB003936B
:102740008B8907461C060D4616460CD50B6953B9F6
:10275000402100F0D9FA2860286110B90C233B60B1
:10276000C7E040236B610023099320238DF82930B3
:1027700030238DF82A3033461C4613F8012B1AB942
:10278000B4EB06090FD002E0252AF5D1F8E7384668
:10279000294632464B46FFF773FF013000F0A48014
:1027A000099B4B4409932378002B00F09D80002364
:1027B0004FF0FF3204930793059206938DF8533040
:1027C0001A9304F101094D4E4C46304621780522FA
:1027D00000F024FA09F10109049B28B1861B0120AD
:1027E000B04003430493EEE7D90644BF20228DF89E
:1027F00053201A0744BF2B228DF8532022782A2A0F
:1028000002D0079B21460EE0039A111D1268039126
:10281000002A01DB079204E0524243F002030792D0
:10282000049301340AE00C4622780131303A092A37
:1028300003D80A2000FB0323F5E7079323782E2B08
:1028400019D163782A2B09D1039B02341A1D1B6806
:102850000392002BB8BF4FF0FF330BE0611C002345
:102860000C4622780131303A092A03D80A2000FBAD
:102870000323F5E70593224E21783046032200F02A
:10288000CDF930B1861B4020B040049B0134034396
:10289000049321781B480622661C8DF8281000F04E
:1028A000BDF988B1184B33B9039B073323F00703F5
:1028B0000833039314E003AB0093384604A92A4677
:1028C000124BAFF3008007E003AB0093384604A936
:1028D0002A460E4B00F08EF8B0F1FF3F804603D041
:1028E000099B4344099346E7AB895B0601D40998E9
:1028F00001E04FF0FF301DB0BDE8F083B4300000C0
:10290000BA300000BE300000000000008126000048
:102910002DE9F84315461F468A680B6906469A4218
:10292000A8BF13462B6091F843200C46DDF82080A9
:102930000AB101332B602368990602D52B68023354
:102940002B60236813F006091DD094F843302268E9
:10295000003318BF012392061FD5E118302081F8FB
:1029600043005A1C94F845102244023382F8431065
:1029700013E03046394604F119020123C047013003
:1029800007D009F10109E2682B68D31A9945F0DBF9
:10299000DBE74FF0FF30BDE8F8833046394604F1FD
:1029A0004302C0470130F4D023682A6803F00603CD
:1029B000E168042B08BFC2EB01052369A2680CBFC4
:1029C00025EAE57500259A42C4BFC3EB0203ED1862
:1029D0004FF00009A9450ADA3046394604F11A02D7
:1029E0000123C0470130D4D009F10109F2E70020EA
:1029F000BDE8F8832DE9FF470E7E80466E2E0C461B
:102A000091469A460C9D01F1430000F0A58011D833
:102A1000632E22D009D8002E00F0AF80582E40F04F
:102A2000BF8081F845607B4A4FE0642E1ED0692E3E
:102A30001CD0B5E0732E00F0A48009D86F2E2BD0E7
:102A4000702E40F0AD800B6843F020030B6038E03F
:102A5000752E21D0782E34D0A2E02B6801F14207E8
:102A60001A1D1B682A6081F842309DE022682B689D
:102A700012F0800F03D01A1D2A601D6805E0510670
:102A8000F9D51A1D2A60B3F90050002D39DA2D232B
:102A90006D4284F8433034E022682B6812F0800FD6
:102AA00003D01A1D2A601D6804E05206F9D51A1DCC
:102AB0002A601D88237E574A6F2B14BF0A230823E0
:102AC0001BE07823544A84F845302368296813F0C2
:102AD000800F01F104062E6001D00D6802E05F0650
:102AE000FBD50D88DE0744BF43F0200323601DB9EA
:102AF000236823F0200323601023002184F843106F
:102B000001E0444A0A236668002EA66003DB2168C0
:102B100021F00401216005B96EB104F14201B5FB59
:102B2000F3F603FB1655555D0F4601F8015935467E
:102B3000002EF4D100E00746082B0AD12368DD07F8
:102B400007D5626823699A4203DC302307F8013C09
:102B5000013FC01B20612CE009682B6811F0800F39
:102B6000626904D0191D29601B681A6005E04906D6
:102B7000F8D5191D29601B681A80002323610746B8
:102B800017E02B681A1D2A601F683846FFF770FD92
:102B900063682061984288BF23612369636005E010
:102BA00004F1420784F8426001232361002384F882
:102BB0004330CDF800A04046214603AA4B46FFF71C
:102BC000A7FE013002D14FF0FF301FE040464946DA
:102BD0003A462369D0470130F5D023689B0705D4D6
:102BE000E068039B9842B8BF18460FE00025E268F2
:102BF000039BD31A9D42F3DA4046494604F1190279
:102C00000123D0470130DED00135F0E704B0BDE844
:102C1000F08700BFC5300000D630000010B5C9B243
:102C200002449042034605D01C7801308C42F8D112
:102C3000184610BD002010BD10B50023934203D0EC
:102C4000CC5CC4540133F9E710BD814270B501D3A7
:102C500000230EE08C18A042FAD28518134613F117
:102C6000FF3305D351426618F65C2944CE54F6E78B
:102C700070BD934203D0CC5CC4540133F9E770BDFE
:102C800030B500293CD051F8042C0B1F1D49002AF7
:102C9000B8BF9B180A680C4612B95A600B6030BD69
:102CA00093420DD219685818904203D15A581144D2
:102CB000426819605A60236030BD994203D80A46C1
:102CC00051680029F9D1146815199D420AD11B6871
:102CD0002344D0188842136012D10868034413605B
:102CE0004B680CE002D90C23036030BD18681C1837
:102CF0008C4203D10C6849682044186059605360C5
:102D000030BD00BFA400002070B5CD1C25F0030528
:102D100008350C2D38BF0C25002D06463FDB8D42B3
:102D20003DD3214B1C6818462146A1B10B685B1BA3
:102D30000ED40B2B03D90B60CC18CD501FE08C4266
:102D400002D1626802601AE04B6863600C4616E0CC
:102D50000C464968E9E7154C23681BB9304600F07A
:102D60004DF820602946304600F048F8431C0146E3
:102D700015D0C41C24F0030484420AD1256004F158
:102D80000B00231D20F00700C31A0BD05A42E2505B
:102D900070BD3046611A00F031F80130EED10C23DD
:102DA0003360002070BD00BFA4000020A000002000
:102DB000F8B5064614460D4621B91146BDE8F8405F
:102DC000FFF7A2BF1AB9FFF75BFF2046F8BD00F07E
:102DD00025F8A0420ED230462146FFF795FF074660
:102DE00050B129462246FFF727FF30462946FFF714
:102DF00047FF01E02846F8BD3846F8BD38B5064C17
:102E0000002305460846236000F012F8431C02D157
:102E1000236803B12B6038BDB000002051F8040CCA
:102E2000002802DA04390B581844043870470000AF
:102E3000094A136863B118446946884202D8106091
:102E400018467047054B0C221A604FF0FF30704750
:102E5000034B1360EFE700BFA8000020B000002084
:102E6000B8000020FEE700BFF8B500BFF8BC08BC02
:102E70009E467047F8B500BFF8BC08BC9E46704738
:102E80002564000001010000003000000100000086
:102E900000000000010000003300000001010507F0
:102EA000070304020302040605060D0E0E0E0D0DA7
:102EB0000D0D0E0E0E0E0D0D010105070703040288
:102EC0000302040605060F1010100F0F0F0F10104D
:102ED00010100F0F01010507070304020302040687
:102EE00005061112121211111111121212121111E2
:102EF0000101050707030402030204060506131C6B
:102F00001C1C131313131C1C1C1C1313000105079A
:102F1000060203010302040604051D1E1E1E1D1DDC
:102F20001D1D1E1E1E1E1D1D00010507060203019C
:102F30000302040604051F2020201F1F1F1F20203E
:102F400020201F1F010105070703040203020406D6
:102F50000506212222222121212122222222212191
:102F60000705020103060423232323232323070544
:102F70000201030604242424242424240705020136
:102F80000306042525252525252507050201030619
:102F9000042626262626262600010702062727279E
:102FA00027270000000000000000131211100F0E70
:102FB0000D0C000000002125242600000000001157
:102FC00080020000000002060000200039000F000F
:102FD0000000401500204004001000223F000600C1
:102FE0005B044F0466046D047D0407007F046F04D6
:102FF00000000000000A000080200000FFFF7704AE
:10300000790A3900B020790071007D047604060049
:103010000E00700A3800B602B6083F0073043F087D
:10302000730C6D0401113E0030223628802A6E0494
:103030000922390080080F00010008000001581023
:103040007C0458005E04582071040C0C74040400C5
:103050000E00700C3800541454045C0473046704AC
:103060005004080C78001C0010201428802A0C083A
:10307000482000003F0006005B004F0066006D0026
:103080007D0007007F006F0077007C0039005E0044
:1030900079007100400000000100000003004000C2
:1030A0000C000000000000000000000043000000D1
:1030B00008000020232D302B2000686C4C00656632
:1030C0006745464700303132333435363738394179
:1030D000424344454600303132333435363738398F
:0C30E0006162636465660000000000008F
:0830EC0068D0FF7F0100000025
:1030F400006CDC0200800000000000000000000002
:1031040000000000000000000000000000000000BB
:103114000000000000000000AC30000000000000CF
:10312400000000000000000000000000000000009B
:10313400000000000000000000000000000000008B
:10314400000000000000000000000000000000007B
:10315400000000000000000008000020250100001D
:043164000101000065
:040000030000234D89
:00000001FF
